:020000040100F9
:10000000181D0021C12B000119650001952B00016D
:10001000952B0001952B0001952B0001000000009D
:100020000000000000000000000000006525000145
:10003000952B0001000000000D250001952B00010B
:10004000E5250001E5250001E5250001E525000184
:10005000E5250001E5250001E5250001E525000174
:10006000E5250001E5250001E5250001E525000164
:10007000E5250001E5250001E5250001E525000154
:10008000E5250001E5250001E5250001E525000144
:10009000E5250001E5250001E5250001E525000134
:1000A000E5250001E5250001E5250001E525000124
:0800B000E5250001E525000132
:1000B80053B94AB9002908BF00281CBF4FF0FF31C7
:1000C8004FF0FF3000F00CB8ADF1080C6DE904CE2C
:1000D80000F008F8DDF804E0DDE9022304B0704719
:1000E800704700BF2DE9F04786468C460846089EB3
:1000F800154674461946002B40F0C1808542B2FA75
:1001080082F245D94AB1C2F1200300FA02FC9540B7
:1001180094402EFA03F343EA0C0C4FEA154EA8B2AA
:10012800230CBCFBFEF80EFB18CC08FB00F943EAD5
:100138000C43994528D9EB1808F1FF3704D29945A3
:1001480002D9A8F102072B44A3EB0903A4B2B3FB1D
:10015800FEFC0EFB1C330CFB00F044EA0344A042F7
:1001680014D92C190CF1FF3304D2A04202D9ACF1F6
:1001780002032C44241A43EA07401EB1D44000234A
:1001880034607360BDE8F0874746DDE76346F1E712
:1001980092BB431B01214FEA154EAFB2200CB3FBB3
:1001A800FEFC0EFB1C330CFB07F840EA03439845A2
:1001B80061D9EB180CF1FF3004D2984502D9ACF1A3
:1001C80002002B44A3EB0803A4B2B3FBFEFC0EFB16
:1001D8001C330CFB07F744EA0344A7424DD92C19FA
:1001E8000CF1FF3304D2A74202D9ACF102032C442C
:1001F800E41B43EA0040C0E7C2F120039540944065
:1002080020FA03F12EFA03F34FEA154E9040AFB2ED
:100218000343B1FBFEFC0EFB1C10190C0CFB07F88A
:1002280041EA0041884522D969180CF1FF3004D20F
:10023800884502D9ACF102002944A1EB08019BB220
:10024800B1FBFEFC0EFB1C110CFB07F743EA014354
:100258009F420ED9EB180CF1FF3104D29F4202D90C
:10026800ACF102012B44DB1B41EA004193E76046F5
:10027800E3E76146F7E76046A4E76346B8E78342E9
:1002880006D916B9002108467CE7C6E900E0F9E777
:10029800B3FA83F78FB9834201D3724508D8BEEB0E
:1002A800020460EB030301209C461EB9002169E7A4
:1002B8003846FAE7C6E9004CF8E7C7F1200CBB401E
:1002C8000EFA07F522FA0CF42EFA0CF1BA401C4388
:1002D80020FA0CF3B8404FEA144901431FFA84FE90
:1002E800B3FBF9F809FB18300B0C08FB0EFA43EACC
:1002F80000439A4540D9E31808F1FF3004D29A45E3
:1003080002D9A8F102002344A3EB0A0389B2B3FB84
:10031800F9F809FB183308FB0EFE41EA03418E4544
:100328002CD9611808F1FF3304D28E4502D9A8F1FF
:100338000203214443EA0040A1EB0E01A0FB02980E
:100348004145CE46434602D306D14D4504D2013835
:10035800B9EB020E68EB0403002EA7D0B5EB0E0232
:1003680061EB030101FA0CFC22FA07F3F9404CEAAD
:100378000303C6E9003199E74046C5E74346D9E794
:100388007FB5084B05930223049300234FF4825151
:10039800054804AA01F086FC6FF00F0007B05DF86D
:1003A80004FB00BF1C710001E06E00012DE9F04163
:1003B8006D4600AF88B004466A460326224BC2E960
:1003C800053042F8106F00234FF4C6511F4801F062
:1003D80069FCAD46ACB9DFF878801E4AD8F8003021
:1003E8001B68934210D088B06A461B49C2E90513BE
:1003F80042F8106F4FF4C4512346144801F052FCE0
:10040800AD46BD46BDE8F08188B06A46134B144935
:100418005361144B93614FF400739383124B42F86A
:10042800103FD8F800309868DB6801EAC04141F411
:10043800E651064801F036FCD8F80030AD461C609D
:10044800D8F800305C60DCE728710001E06E00013C
:10045800000000210804222036710001C771000144
:100468000000F87F4A71000103000001B1F5FE6F3A
:100478000A4638B519DC0E490E4C0B681D68A542B2
:1004880006D15D68012D03D1BDE83840FFF778BF7C
:100498001C6001240B680146C3E90142D86806F0D4
:1004A80088F80020044B5C6038BD6FF01500FBE74E
:1004B80004000021080422200020014190B587B0E3
:1004C8000123194C00AF3B71237810215A1C22706C
:1004D800781D164A02F0C4FD1021381DFFF7C6FF2B
:1004E800034690B16C4688B06A4603231049C2E9B6
:1004F800051042F8103F00234FF4C2510D4801F097
:10050800D1FBA5461C37BD4690BD21786C4688B006
:100518006A4601390848C2E90501032142F8101F5B
:100528004FF4C651EAE700BFEC08002155710001FD
:1005380066710001E06E00017D710001F0B587B0C1
:100548006C4600AF8AB06B463846304903F110025A
:1005580059612F4903F1230599612E4939602E49C4
:10056800D96103F11F0110F8016B01F8016FA9426D
:10057800F9D12A49196100234FF42351284801F081
:1005880091FB0022A5461046264904F0DBF900221B
:100598000421122001F06CFF2348244A016801F16C
:1005A8001003CB60136803F11004DC6000230B60B8
:1005B800016802244B6011680B60012112685360C6
:1005C8001B4AC2F81445C2F89015C2F80413194A18
:1005D800C7E90442184E124D4FF48651104807F1EE
:1005E800100201F05FFBC7E9044600234FF486516F
:1005F800284607F1100201F055FBFFF75FFF0021C5
:100608004FF4004005F07CF8EDE700BF927100015F
:10061800CA71000100020103D37100010400000245
:10062800E06E0001B5030001040000210000002174
:1006380000200141DF710001ED7100012DE9F04F4B
:1006480091B0009302F004030293C2F3C203013392
:10065800840705460E46DDF868800392059340F04E
:10066800BD81041D30B1072909D86FF01B0011B0F6
:10067800BDE8F08F01F00706341DC6F10806009B9F
:100688004FF000094FF0040A591E4FF0FF334F4650
:100698000193CB465346CDF810900DB1009A2260D5
:1006A8000598002800F3EB809948009A824203D30A
:1006B80098488242C0F0E380039AA4EB050E9207A3
:1006C8004FEA9E0000F106810F2F00F2B480002D42
:1006D80000F0088107F140020DEB020C019A0CF8BA
:1006E800200C0CF8102C049801300490EAE07A28C9
:1006F80060D84B280ED847285CD829282FD8252819
:1007080055D057D820287DD02338D0F1000B4BEB9B
:10071800000B77E0A0F14C0CBCF12E0F4AD8DFE8B3
:100728000CF07149494949494949494949494C499C
:10073800494949494949495A494C4C5A5A5A714CAC
:100748006E497149184C18494983804C49494C49AC
:10075800800000204FF0000B4FF0040A39E001221E
:10076800A0F12A0C5FFA8CFC02FA0CFC1CEA0E0FB2
:1007780048D11CF062502ED11CEA020B42D0013C39
:100788005444CAF1000C04EA0C04002D61D0A3EB18
:10079800050CA444B4453FF668AF002868D1042B83
:1007A80047D158F8043B2360042304342AE0019A13
:1007B800013A01924FF0000B24E011F8010C6C286B
:1007C80034D1002011F8023C83466C2BC4D14FF081
:1007D800080A5346D3E708F1070828F00708073442
:1007E80024F00704F8E802AB35B106982044B0427B
:1007F8003FF63BAFC4E900AB4FF0000B08344FF0B5
:10080800080A534611F8010F002878D0BBF1000FF1
:100818007FF46DAF2528F5D14FF0010B019B013313
:1008280001934FF0040AECE7584693E7002083460B
:10083800A5E7082B02D06FF0150018E708F10708A4
:1008480028F00708F8E80223C4E90023082308343D
:10085800D8E768B9042B02D108F10408A4E7082BEB
:10086800E9D108F1070828F0070808F10808EDE7BA
:10087800059A013A059258F8042B00920DE7039A5D
:10088800900720D54FF0010CA4EB050E4FEA9E000F
:10089800BEF5007FCFD20F2FCDD8F5B107F14002BA
:1008A8000DEB020E019AC0B20EF8200C0EF8102CB7
:1008B800BCF1000F3FF417AF60F07F000EF8200C7A
:1008C80009F101090137C5F108024FF6DA7E04344F
:1008D800069297E74FF0000CDAE7BCF1000F01D061
:1008E8000136EFE7029802360028EBD10098CDE9EF
:1008F800063105F04EFEDDE906310644E2E7631BEA
:10090800B3F5806F97D23DB9A6F10804E018AEE6BA
:10091800F86C0001D4790001029A9B0828602B70BA
:100928009DF81030C2B1EB7085F80290B9F1000F54
:1009380005D0002208A8C5F1010C97420ED14FF04E
:10094800000AC5F101030DF1200801930DF1300BE8
:10095800574512D1601B8AE66B70E5E710F8013B3A
:10096800190608D504EB0C0EB64503F07F033FF6D5
:100978007CAE04F8013B0132DFE7B9F1000F03D088
:1009880098F90020002A17DB029BD3B11AF80B2034
:1009980004F8012B0022019B98182044B0423FF62E
:1009A80064AE98F80000009904F8010B2046039201
:1009B80005F0FFFD039A14440AF1010A08F1010841
:1009C800C6E798F8002055F822300093029B00985B
:1009D80045F8223005F0DDFD421CDCE76FF00D0024
:1009E80045E600BF2DE9F04F95B000AFD7F878B0D5
:1009F800BB61CBF3C00304467A623B61396251B9EB
:100A08000D4603784678807800EB83002044AE4298
:100A18001AD8031B3B6294F80290E3784E467B6138
:100A2800B9F1000F02D01BF0010F16D17B6953BB3F
:100A38007B6A1BB12046BA69396A98473D6A2846DD
:100A48005437BD46BDE8F08F00F10108404605F077
:100A5800A0FD013040440135D9E7636894F800A04F
:100A6800FB617B6A4FEA8A02FA6004EB8A0A002B70
:100A780040F00281D04600263D6A09EB0A0343454F
:100A88004ED1CA4413E01BF0020FD1D094F800A055
:100A98004FEA8A03FB60636804EB8A0AFB617B6A9E
:100AA800002B78D13D6AB9F1000F4ED14E461BF0AC
:100AB800050F0CBF022301237B627B690AEB430904
:100AC8000BF002033B62CA45B9D01AF8021B1AF8A8
:100AD800013C54F82380AD4B984502D3AC4B984564
:100AE80039D33B69002B43D0F86905F0D2F80028C8
:100AF8003ED0E8468AB06A46A64B5361FB69C2E914
:100B080006314FF400731384A34B42F8103F0023BF
:100B18004FF41251A14801F0C5F8023DC546D2E78D
:100B280018F8012B7B6254F8220005F032FDFA6FA9
:100B38007B6A01303AB1D7F8802096423EBFFA6FFF
:100B480022F816000136054499E71BF004061CBF7D
:100B58007E6ACA44ABE73B6923B1F86905F099F8A6
:100B68000028C6D11BF0010F05D17B6AED1AAAE750
:100B78003B6A002BA7D0404605F00BFDFB6F43B145
:100B8800D7F880309E423FBFFA6F431C22F81630D8
:100B98000136054497E7B9F1000F72D01BF004063F
:100BA80072D0C846002607F140004A46514605F073
:100BB80000FD7B69CA445B00BB607B690AEB4303A9
:100BC8007B610BF002037B607B699A455ED12378D9
:100BD8001BF0020FFB61637818BF002106EB0302CC
:100BE80008BF4FEA58011BF0010FD2B240F09C80B9
:100BF8001BF0040F14BF4046002094F802B094F88C
:100C080003A03B616270A070E1702046BA69F96880
:100C18007B6A9847051EFFF612AFFB6941462370B1
:100C28003B69BA69637084F802B07B6A84F803A0F0
:100C380007F140009847B0F10008C0F2A2803B6A73
:100C4800BA69A3EB0901FB687869C91ABB68C91AB4
:100C58007B6A98470028C0F296804FF0000BA844A2
:100C680008EB000507F1300AB3455FDB0021BA69DC
:100C780008467B6A9847E2E64FF0000807F1300023
:100C880093E74E46C84694E7B04692E71AF8021B27
:100C98003E4A1AF8015C54F82530934202D33C4A84
:100CA80093421BD33B6923B1F86904F0F2FF002893
:100CB8008AD17B68EBB908F10103DBB208F128029D
:100CC80007F128002833024408F10208034402F817
:100CD800101C5FFA88F803F8105C75E73B692BB1C4
:100CE800F86904F0D6FF00287FF46EAF1BF0010FFF
:100CF80009D006F1280207F12801731C561806F8D6
:100D0800205CDEB260E71BF0040F3FF45DAF08F132
:100D1800280207F1280108F1010302EB010808F88D
:100D2800105C5FFA83F84FE7002066E71BF80A308B
:100D380054F8239087F82F30FB6FFBB133F81B80F2
:100D48000121BA697B6A07F12F00984700281ADB4E
:100D58000544B8F1000F06D1484605F01AFC00F129
:100D680001081FFA88F841464846BA697B6A9847DD
:100D7800002808DB05440BF1010B75E7D7F87C80E8
:100D8800DEE745465BE6054659E600BFF86C00011C
:100D9800D47900010C72000104000001C86E000142
:100DA800014B1860704700BF0800002130B50025CE
:100DB80087B0CDE903010446009503A905480595C8
:100DC80000F018F9DDE904309842B8BF255407B09F
:100DD80030BD00BFE95C00012DE9F047058B0446F2
:100DE8002807904611D4022905F0070540F0CD8068
:100DF800204604F0ACFF78B10138218B042811D8C3
:100E0800DFE800F0C3106D85950001290CBF45F09F
:100E1800100545F02005258388F31188BFF36F8FEF
:100E2800BDE8F08701F0070AAA4500F0A680002770
:100E3800B9463E46A368002B00F0BD8041F008018A
:100E4800218388F31188BFF36F8FA168002900F010
:100E5800BB800D68002900F0B78033465246204613
:100E6800D1F80480C047002D76D02B6829461D464E
:100E7800F0E701F007035A1F012A1BD8002221F0CE
:100E88000701062B276889B2C4E9002209D13B462D
:100E980003E0628B013262831B68002BF9D141F0B9
:100EA80002012046218304F052FF00287BD041F044
:100EB800200177E0042B0AD121F0070189B22046EE
:100EC800218304F044FF10B141F020012183218BDC
:100ED80001F0070AAA4550D00027B946AAE72369B6
:100EE80021F0070141F00601062DD3F80090218377
:100EF8002DD1B9F1000F40D041F00801218388F3CA
:100F08001188BFF36F8F20463949C84729E021F07F
:100F18000701236941F0040189B2042DD3F8049034
:100F28002183E6D000274FF0040A3E4682E721F0ED
:100F38000701236941F0050189B2052DD3F808900E
:100F48002183D6D000274FF0050A3E4672E70027D6
:100F58004FF0060A3E466DE72B4687E7B9F1000FCA
:100F6800D1D14FF02003EFF3118883F31288BFF338
:100F78006F8F238B23F008032383258BEA062ED556
:100F880025F01003238305F007056669218B002EE1
:100F9800BFF66FAF00232768C4E9003321F00701CB
:100FA80041F001012183218B4FF0000901F0070A6C
:100FB800AA457FF43FAF002F9BD041F00801218361
:100FC80088F31188BFF36F8F002FC7D03D6839466B
:100FD80033465246204604F0E6FE2F46F4E7AB06B9
:100FE8007FF51AAF25F02003238305F00705FFE6F8
:100FF800DB5D00012DE9F04F81468B4617461C4604
:10100800002595B0387808B9284657E37B1C252871
:10101800039306D05946C8470028C0F24F830135CC
:10102800FBE1182200210EA805F0CEFA7B78252BCB
:101038007DD0002398469E469C461E46781C014655
:1010480010F8012B2B2A00F0A18000F29880202AAA
:1010580000F09F80232A00F09F802BB19DF840303C
:1010680043F040038DF84030B8F1000F05D09DF8EB
:10107800403043F020038DF84030BEF1000F05D01A
:101088009DF8403043F010038DF84030BCF1000F5C
:1010980005D09DF8403043F008038DF840302EB15C
:1010A8009DF8403043F004038DF840309DF84030FF
:1010B80003F04400442803D16FF386138DF84030C1
:1010C8009DF840302A2A43F080038DF840307FD1C4
:1010D8009DF841204B1C42F001028DF841201A78FE
:1010E8002E2A0CBF012100219DF8412061F3410205
:1010F8008DF8412078D15A782A2A6ED000224FF0F4
:101108000A0C0133194611F8010BA0F13006092E1B
:1011180040F295809DF840101292C1F3400040EAD9
:10112800D2700A4660F341028DF840205CE0BA1C98
:1011380003928DF843309DF84130DA0740F12E8153
:1011480054F8048BB8F1000F07DA9DF84020C8F175
:10115800000842F004028DF840205E0740F1278124
:1011680054F804ABBAF1000F80F226819DF84130A3
:101178006FF341038DF841304FF0FF3A1CE12D2AFF
:101188000DD0302A7FF469AF012358E74FF0010CE6
:1011980055E74FF0010E52E74FF001084FE70126DF
:1011A8004DE703460EFB0262303A184610F8016B11
:1011B800A6F1300CBCF1090FF3D999428FD09DF8F4
:1011C80040101192D20F62F341018DF8401086E76A
:1011D8000B4600224FF00A0EE7E79DF84120023344
:1011E80042F004028DF841201A786C2A47D02BD897
:1011F800682A31D06A2A4BD04C2A51D01A4612F8A4
:10120800013B782B03928DF843309DF8412000F282
:10121800BE806D2B51D8692B00F2B980572B67D847
:10122800412B03D0453B022B00F2B18004229DF8EC
:10123800423062F302038DF84230012373E00CFB65
:1012480002020B46303A5DE7742A25D07A2AD5D1B6
:1012580006219DF841200CE05A78682A9DF8412023
:1012680006D1012161F3C6028DF841200233C5E79A
:10127800022161F3C6028DF841200133BEE75A7896
:101288006C2A9DF8412001D10421EBE70321F0E706
:1012980005219DF84120ECE707219DF84120E8E76A
:1012A800BDF8402022F4F04222F0020242F48042CB
:1012B80042F00202ADF84020DFE76E3BD9B20123CD
:1012C8008B4040F282410B4237D113F0240F51D1A9
:1012D800D8075CD503219DF8423061F302038DF8ED
:1012E800423002F07803A3F140014B424B411AE02F
:1012F8000120A3F15801C9B200FA01F111F4624FBB
:1013080094D140F6010631421DD111F4043F3ED07C
:101318009DF8423060F3020302F07802402A8DF80B
:10132800423034D000239DF84020C2F340010B43E3
:1013380063F341028DF84020FDE602219DF842301A
:1013480061F30203E8E702209DF8421002F07802F8
:1013580060F30201402A8DF8421002BF9DF8401048
:1013680041F001018DF84010632BDBD1131E18BF2B
:101378000123D8E703219DF8423012F0780F61F37A
:1013880002038DF8423014BF01230023CBE79DF8F8
:10139800403043F001038DF84030C3E79DF9402009
:1013A800002AACBF4FF0FF38DDF84480D5E6980737
:1013B8007FF5E2AEDDF848A00023CDE911339DF8B2
:1013C80042309DF8411003F00703012BC1F3C3011C
:1013D80033D1CB1E042B04D8DFE803F02146462185
:1013E8002100236801294FEAE372CDE90E321CD1AE
:1013F8009DF93830DA17CDE90E3204349DF84030C3
:1014080013F0030650D03A4659464846039B04F069
:10141800BDFD0028C0F252810544039FF2E554F84F
:10142800043BDA17CDE90E32E8E70229E5D11AB212
:1014380043F3C033CDE90E23DFE7022B24D1CB1EC3
:10144800042B04D8DFE803F018101018180001293D
:101458004FF0000254F8043B14D00229CDE90E32B3
:10146800CCD19BB20E93C9E7073424F00704F4E803
:101478000223CDE90E23C1E754F8043B0E93002361
:101488000F93BBE7DBB2CDE7042B08D1073424F078
:101498000704D4E900230834CDE90E23AEE7032B73
:1014A800ACD154F8043BDDE79DF843007828B4D864
:1014B80062281CD825283FF4ADAD5828ADD1DDE908
:1014C8000E010DF13603009310AA08AB04F018FDC5
:1014D800BAF1000F074680F29980002F9DD00DF1D8
:1014E8003603D81B002E00F0C0800130BDE0633801
:1014F800152892D801A252F820F000BFD915000192
:10150800EB1500012314000123140001231400012A
:1015180023140001EB15000123140001231400011A
:101528002314000123140001771600010F1600018F
:101538003516000123140001231400015D15000174
:10154800231400010F1600012314000123140001C5
:101558000F160001BAF1000F0E9F35DB51463846D1
:1015680005F01EF807EB000A002F3FF456AF0026DF
:101578009DF8423013F01002059200F0928002307C
:101588005B06119A48BF129B104448BFC018B8F1B7
:10159800000F049240F39F809DF84020A8EB0008BC
:1015A800C2F380035007069300F19580510640F17D
:1015B80088803EB159463046C84700287EDB069BE6
:1015C80001351E4630227DE0384604F0E2FFC9E7C7
:1015D8000E9B002601208DF8203008AF0DF1210A5E
:1015E800C6E719075ABFC3F300135E012B26DDE9CE
:1015F8000E23002BBFF663AF524263EB43032D2645
:10160800CDE90E235BE7002659E700269DF8402028
:101618000DF13603DB1B6FF386129A458DF84020D7
:101628007FF65BAFAAEB0303119356E70E9890B3CE
:101638000DF136030093002108AB10AA04F060FCFA
:10164800BDF84230BAF1000F03F0EF0343F4F04362
:1016580043F010030746ADF84230D6DA00283FF4CD
:10166800DCAE00260DF13603181A9A4680E70E9B69
:1016780007293FF6D2AEDFE801F00C04060C080893
:101688000C0C1D70C9E61D80C7E6EA17C3E90052B5
:10169800C3E61D60C1E62F4F064607F1050A05207F
:1016A80066E71A0748BF01306AE7104607930692B3
:1016B8005946C847DDE90623002804DA15B0BDE815
:1016C800F08F202243461946002903F1FF33ECDC52
:1016D800454498466D1A2EB159463046C8470028E9
:1016E800ECDB01359DF84230DA0601D41B0705D53D
:1016F80059463020C8470028E0DB0135059B33B147
:1017080059469DF84300C8470028D7DB0135049E99
:101718002E4405E059463020C8470028CEDB013565
:10172800731B002BF6DC53463A465946484604F0EC
:101738002DFC0028C2DB0544A844A8EB0503002BB8
:101748007FF76BAE59462020C8470028B6DB013525
:10175800F3E700BFC07200014FF02002EFF31183DE
:1017680082F31288BFF36F8F0121044AC2F8401533
:1017780083F31188BFF36F8F002070470000084182
:1017880020B1034B800143F001031847704700BFA5
:10179800406F000102F0EEBB2DE9F0470446074612
:1017A8004FF00109DFF8508014B93846BDE8F087DA
:1017B80094FAA4F5B5FA85F509FA05F32E0108EBB4
:1017C80005156FEA030A24EA03042B7B002BEBD0F0
:1017D80058F806301B694BB94644736804222846FA
:1017E800196807EA0A0700F049FADDE7284698472A
:1017F8000028D9D1F0E700BF206F000130B50022E2
:1018080089B00F490F4805F044FA0022002300244C
:10181800CDE906230E230C4DCDE903344FF4407275
:101828002846CDE90144094B0949009403F01AFB05
:101838000849284605F007F9204609B030BD00BF21
:1018480061180001B005002128010021311B0001A9
:10185800180D0021CA720001014803F041BC00BF05
:10186800140100212DE9F04780461F480F4604F077
:10187800B4FD0646002830D000252846BDE8F0878C
:10188800237B73B12368DB680BB120469847236834
:101898001B69D3B9636804222046196800F0EEF981
:1018A800013610344C45EBD3B8F1000FE5D0002DCC
:1018B800E2D02846FFF770FF0546002FF7D0002139
:1018C8004FF4A47003F01CFFF1E720469847002866
:1018D800E0D00AFA06F31D43E2E705464FF0010A95
:1018E800024CDFF80C90DDE720070021206F000193
:1018F800406F0001014B53F8200070475C6F0001F6
:1019080008B5034608462BB1044A136000F03CFCB6
:10191800002008BD6FF01500FBE700BF0C00002198
:1019280010B5044C237813B9034803F0D9FB0123FD
:10193800237010BDED0800211401002110B50446E4
:10194800064804F04AFD3CB1054BD3E8EF1F0139C6
:10195800C3E8E21F002AF8D110BD00BF1807002114
:101968001C07002100200146034BD3E8EF0FC3E812
:10197800E21F002AF9D170471807002170B5FFF758
:10198800F1FF0546074C084EB44200D370BD6368AA
:101998005B792BB123685B6813B1294620469847C9
:1019A8001034F1E7206F0001406F000110B5044CBE
:1019B8000449204604F0AEFB034B1C6010BD00BF79
:1019C800C4000021486F00011007002108B500235A
:1019D800064A4FF400411370054A06481360FFF7A2
:1019E8008FFFBDE80840FFF7E1BF00BFEE08002108
:1019F80018070021DF630001014600220023014887
:101A080004F0A9BBC4000021014804F042BC00BF97
:101A1800C4000021024B0146186804F08ABC00BFCC
:101A280010070021014804F0B8BC00BFC400002121
:101A380070B5264B1878002847D0FFF7E5FF054614
:101A480070B1234BD3E8EF1F0139C3E8E21F002A26
:101A5800F8D1204C204EB4422DD32846FFF7DAFFA8
:101A68001E4B1F4C1B68002B19DD05F00CF94FF4B9
:101A78007A72A0FB020302FB0131C30B43EA414324
:101A8800D4E900209B1A40F2E9324FEAD13161EBE8
:101A98000001934271F1000101D3FFF76FFFD4E910
:101AA800003213F57A7342F10002C4E90032BDE84E
:101AB8007040FFF7B7BF63685B7923B12368294695
:101AC80020461B6898471034C5E770BDED08002113
:101AD8001C070021206F0001406F0001180700213A
:101AE800A805002170B50D4D297861B90120FFF7CF
:101AF800B9FE0B4C0B4EB44206D3FFF799FF0028F2
:101B0800FBD101232B7070BD63685B791BB123681F
:101B180020469B6898471034EDE700BFEE08002187
:101B2800206F0001406F000100212DE9F0470846B1
:101B3800FFF798FE044648B340F267684FF0000983
:101B480003F0F8FD1A4B186030B11A4B1B68092BCB
:101B580002DD194803F0C4FA0025184FDFF858A031
:101B680044B12046FFF718FE044618B94FF0FF3875
:101B78004FF0FF39FFF75CFF064628B9B5B9424672
:101B88004B46504603F0CCFA3546E9E74FF0FF38AC
:101B98004FF0FF39D4E72B689B691BB10022284618
:101BA800114698471035BD42F5D3E8E7044DFAE7EA
:101BB800140700211C07002114010021406F0001B7
:101BC800206F000113B5184804F007FC174B1B7869
:101BD8007BB14FF02003EFF3118483F31288BFF336
:101BE8006F8FFFF725FF84F31188BFF36F8F02B063
:101BF80010BD0F4B1B68002BF9D050B900220023F1
:101C08000C48CDE900234FF40042002303F0BEFF47
:101C1800EDE70A28EBD1074805F047F8064802B077
:101C2800BDE8104003F05CBA1C070021EE08002153
:101C380014070021B00500211401002110B5064B3E
:101C480004461B6898472146A060044804F001FB3D
:101C5800BDE81040FFF7B6BF0C000021C40000210A
:101C6800044A054B9B1AB1EBD30F34BF52F831002D
:101C780000207047B06E0001206F0001084B10B4BF
:101C8800C31A44681B110133237143689A710122F6
:101C98004368196043685A7110BCFFF741BE00BF22
:101CA800206F00012DE9F04FC1F3CB448FB0C1F391
:101CB80049260D469046994605901734002E3CD08B
:101CC8004FF0040B4FF00A0A002209AF31460BAB64
:101CD8004046CDF808B00197CDF800A0CDE90B2219
:101CE8000D920796FEF77EFEC0F30903181920F03F
:101CF800070080081E4663F352250693FFF77CFE13
:101D0800044678B10022069B10300B900C930D927C
:101D18004046CDE9017B0C4A0799CDF800A00BABF2
:101D2800FEF760FE66F352254B462A462046059983
:101D38000FB0BDE8F04F04F082BB24F00700800824
:101D4800FFF75AFE0446EDE71B6400012DE9F04F4A
:101D580087B00446DDE9105ADDE912690F4693465B
:101D68009846B6B31021334652460020CDF800906D
:101D7800CDF81490FEF762FC0146174B04F00704F7
:101D88000BF0070BE40003EA412305F1170044EACE
:101D98008B141C430844114B20F0070003EAC54389
:101DA80080081C430391FFF727FE054640B13EB16A
:101DB800334652460399CDF800901030FEF73EFCAA
:101DC800434622463946284607B0BDE8F04F04F09E
:101DD80036BB3146D1E700BF00FE07000000F87FA0
:101DE8000EB403B503AB53F8042B01460448019322
:101DF80004F04CFB02B05DF804EB03B0704700BF81
:101E0800BD640001CA0605D48B064CBF02490349CC
:101E1800FFF7E6BF704700BFE0720001DF72000104
:101E28002DE9F04F89B09B46DDE915769DF84830DD
:101E380004460493DDE913930593049B0D4606922B
:101E4800002B00F0878006F00803079304F0DFFA00
:101E580006F0020A024600284BD020468549FFF7C3
:101E6800BFFF8046BAF1000F08D016F0440F42D1E8
:101E78002A4620468049FFF7B3FF804406F0010355
:101E88005BB17E4B049A204653F822207C4B7D4957
:101E9800002A08BF1A46FFF7A3FF06F00803002B25
:101EA80055D0794B049A204653F822207749FFF7FA
:101EB80097FF0546069B2BB11A4620467449FFF743
:101EC8008FFF0544BBF1000F05D05A4620467149E3
:101ED800FFF786FF05444544B9F1000F49D1002FAB
:101EE8004FD1F30700F1C08031462046FFF78AFF43
:101EF800B4E08046B6E7684B18680028BDD0674B49
:101F08004FF47A7E1B684FF46162B5FBF3F5B5FBBD
:101F1800F0F300FB13550EFB05F5B3FBF2FAB5FB26
:101F2800F0FC3C2102FB1A3200FB1C55B2FBF1F31A
:101F38000EFB05F5B5FBF0F501FB132220460092D8
:101F4800CDE901C552465649FFF74AFF95E706F025
:101F58000805AFE7BBF1010F06D1B9F1000F64D155
:101F6800002F7BD000250CE0B9F1000FF8D04D48C8
:101F78005CE04D484B4622464C4903F059FE002F81
:101F880068D0DFF82C91DFF82CA1102F31462046BD
:101F9800B8464FF0000B28BF4FF01008FFF732FF8C
:101FA8005D4545DC059B514620461A78FFF718FF2A
:101FB8004FF0010B1BF0070F03D149462046FFF7EE
:101FC8000FFFD8453BD9059B5146204613F80B20F7
:101FD800FFF706FF0BF1010BBBF1100FEAD14FF031
:101FE800000B20463449FFF7FBFE5A46059B204666
:101FF8009A5CA2F120015F2928BF2E222F49FFF702
:10200800EFFE0BF1010BBBF1100F1DD01BF0070FFA
:1020180003D149462046FFF7E3FED8455A46E5D89E
:1020280049462046FFF7DCFEEBE71F48049DA1E781
:1020380049462046FFF7D4FE0BF1010BB0E72046D6
:102048001F49FFF7CDFEC5E7059BB7EB08074344DB
:1020580005939AD1049B002B7FF443AF204609B027
:10206800BDE8F04F04F019BA2046054A0549FFF7C4
:10207800B7FE39E7E7720001EB7200016C6F0001EF
:10208800E2720001C7710001806F00011073000146
:10209800167300011A730001280700212407002184
:1020A800F4720001EB640001BD6400019564000155
:1020B800277300011F730001297300016371000178
:1020C800257300012DE9F0410F884B6805460C4641
:1020D80090468E6886B0C7F382175BB1134A9B1A85
:1020E80043F3CF0100291FDB2078C0F3C200FFF7BC
:1020F800B7FD0346214651F8102B6088C2F34922E8
:10210800002A01EB020408BF0021C0F3CB00CDE98F
:102118000308CDE901140022314628460097FFF74D
:102128007FFE06B0BDE8F0810023E3E7B06E000152
:1021380042F20F7373B58B4228BF0B4605680446FD
:10214800052168460D4A03F0EBFD064663682846FC
:102158000B225B680A4904F08CF9636832466946C9
:1021680028465B6804F085F963681B2228465B688B
:10217800044904F07EF902B070BD00BF0379000184
:10218800477300012B73000100210123064A904286
:1021980006D8064A01B901231360054B1860704739
:1021A800012140085B00F2E740420F0024070021AC
:1021B800280700210122014B1A707047EF080021FF
:1021C800014B002019607047400700210122024B93
:1021D80002481A7004F061B9F0080021B06F0001DC
:1021E8000148FFF7A5BF00BFB06F000110B5064B4F
:1021F8000C461868FFF77EFB2146BDE810400346F1
:102208000F220248184700BF40070021B06F0001A5
:1022180010B9074B18707047064B1B781BB141F279
:10222800883004F032BDA420002103F069BA00BF51
:10223800EF080021F00800212DE9F84380460E46FA
:102248000424DFF870901C4F99F8005095B902F0FB
:102258005FFC28463246414602F0DCFB054602F0A8
:1022680061FCE5B101233B7099F8003073B9304641
:10227800BDE8F88332464146002002F0CBFB054614
:10228800EFE72046651EFFF7C3FF2C46002002F04B
:1022980035FC0028EBD03B78002BF2D1E7E73B7800
:1022A800002BE4D0013C2046FFF7B2FF3B78002B1F
:1022B800CAD1DCE7F0080021EF080021014B00201B
:1022C80019607047580700210122024B02481A7012
:1022D80004F0E3B802090021DC6F00010148FFF7B0
:1022E80027BF00BFDC6F000110B5064B0C4618680D
:1022F800FFF700FB2146BDE8104003460F220248C5
:10230800184700BF58070021DC6F0001F8B50D46DB
:102318000446064F4618B44201D12846F8BD14F8C1
:10232800011BBB6801485B689847F4E7906D0001A2
:10233800014910220A60704710ED00E072B6404073
:1023480080F31188BFF36F8FBFF34F8F30BF62B632
:10235800BFF36F8F704700BF72B6494081F3118891
:1023680020BF80F3118862B6704700BF2DE9F0479F
:1023780081460C4600AF00294CD0D1E900126E46C8
:102388008AB0A3686D464FF0050AA8462548C5E9F6
:102398000723C5E9050148F810AF002342464FF46A
:1023A80021512148FFF77EFCD4E90312B546636941
:1023B800AD461E48C5E90723C5E90501C5F810A0C3
:1023C800002342464FF421511748FFF76BFCB546EE
:1023D80088B0E3696D464FF0030AA846144AC5E978
:1023E800052348F810AF002342464FF4C2510E4867
:1023F800FFF758FCB546A369AD460E4AC5F810A0CC
:10240800C5E90523002342464FF4C2510648FFF7A9
:1024180049FCB5462146484602F08AFBBD46BDE860
:10242800F08700BF9D730001086F0001CC730001A5
:10243800FB7300010A74000140B2002807DB012386
:102448004109034A00F01F00834042F821307047D9
:1024580000E100E0054B420953F82220012300F077
:102468001F0003FA00F01040704700BF00E100E0D1
:1024780040B2002801F10101ACBF00F16040064BF9
:102488004FEA4111C9B2ABBF00F5614000F00F003F
:1024980080F800131954704714ED00E030BFFFF7BF
:1024A800FDBF00BF08B5084B084A23F07F039360BF
:1024B800BFF34F8FBFF36F8F02F0F4FB03F0A0F967
:1024C80000F06EFB02F02EFC0000000100ED00E0C1
:1024D800094A0A49936809685867996708494B681F
:1024E80043F080534B60002383F31188BFF36F8F51
:1024F8009368986F704700BFB8080021EC7000011E
:1025080000ED00E013498A684FF030001044EFF303
:10251800098C80E8F01F202080F31288BFF36F8FAA
:102528000D4F4FF000668A698A603E60506F002345
:10253800536780F3118802F1300090E8F01F8CF3A4
:10254800098802F1000004B503F0E9FFBDE8044082
:1025580070470000B808002104ED00E01EF0040FE9
:102568000CBFEFF30880EFF30980816911F8021CB2
:102578000229FFD001B503F0C3FF01BD42F8203C9A
:10258800009B0B4942F81C3C019B21F0010142F8D9
:10259800183C029B42F8081C42F8143C4FF0807328
:1025A80042F8043C0023203A02654367704700BFA5
:1025B800435D0001084B9860436E83F30B88104617
:1025C80081F30988002163B681F31188BFF36F8F07
:1025D8000022002303F0B1FBB808002101B5EFF396
:1025E8000580A0F110004FEAC0000449014409C960
:1025F8009847BDE80140024908470000A86D00015E
:102608000D260001044B99689869884203D0034954
:102618004FF080520A607047B808002104ED00E0CE
:102628002DE9F04186B006460D4600AF0224364B30
:102638004FF482517B6135483C6107F1100203F089
:1026480072FF334B9B6AD90609D5324B4FF482513E
:10265800C7E904432D4807F1100203F064FF2C4B2F
:102668009B6A1A070AD52C4B4FF482517B610223CF
:1026780026483B6107F1100203F055FF244CA36A7A
:102688009B0722D5E846254B20487B61022307F1AA
:1026980010023B614FF4825103F045FF636BA26A5D
:1026A800100612D588B06A461D491848C2E90513B4
:1026B80003234FF4C25142F8103F03F034FFC546DC
:1026C8001EB1A36A23F08003A362114B9B6AD9074A
:1026D8000AD5144B4FF482517B6102230B483B61AE
:1026E80007F1100203F01FFF0020094B18379A6A00
:1026F800D20658BF9A6A9A6A42F0FF029A62287014
:10270800BD46BDE8F08100BF38740001086F0001C4
:1027180000ED00E04E740001817400019474000122
:10272800AC740001C27400012DE9F04186B0064680
:102738000D4600AF02243B4B4FF482517B613A486F
:102748003C6107F1100203F0EEFE384B9B6ADB0494
:1027580009D5374B4FF48251C7E90443324807F192
:10276800100203F0E0FE314B9B6A1C050AD5314B81
:102778004FF482517B6102232B483B6107F1100221
:1027880003F0D1FE294CA36A980522D5E8462A4BC6
:102798004FF482517B61022307F110023B6122480A
:1027A80003F0C1FEA36BA26A110412D588B06A4671
:1027B80022491D48C2E9051303234FF4C25142F8C8
:1027C800103F03F0B0FEC5461EB1A36A23F40043D0
:1027D800A362164B9B6A5A050AD5194B4FF48251CE
:1027E8007B61022310483B6107F1100203F09BFE56
:1027F8000E4B9B6ADB050AD5124B4FF482517B6165
:10280800022309483B6107F1100203F08CFE002007
:10281800064A1837936A43F47F4393622870BD468B
:10282800BDE8F081E1740001086F000100ED00E0EF
:10283800F774000181740001087500012175000119
:10284800367500015175000110B586B002243A4B67
:102858004FF48251394804AA0593049403F063FEA7
:10286800374B9B6A9B0108D5364B4FF4825133484E
:1028780004AACDE9044303F056FE314B9B6ADC0100
:1028880009D5314B4FF48251059302232B4804AAF2
:10289800049303F048FE2A4B9C6A14F4801409D070
:1028A80002242A4B4FF48251244804AA0593049425
:1028B80003F039FE224B9B6A180309D5244B4FF4C9
:1028C8008251059302231D4804AA049303F02BFEAA
:1028D8001B4B9B6A590309D51E4B4FF48251059334
:1028E8000223164804AA049303F01DFE144B9B6AA6
:1028F8009A0309D5184B4FF48251059302230F48C8
:1029080004AA049303F00FFE0D4B9B6ADB0309D561
:10291800124B4FF4825105930223084804AA0493EA
:1029280003F001FE064A2046936A6FEA03436FEA02
:102938001343936206B010BD69750001086F00016A
:1029480000ED00E08175000194750001AE7500018D
:10295800D8750001F67500011B7600013576000177
:102968002DE9F0438BB0764B0546D3F8048000265A
:1029780000AFC8F3080486F31188BFF36F8F02F025
:102988007F43B3F17F4F0ED102F00C03082B19D10E
:102998006C4B4FF48251FB6102236B48BB6107F11A
:1029A800180203F0C0FD002635460023FB71E31E24
:1029B800092B00F2A580DFE803F00A989B94A3A3F3
:1029C800A3A3A39E10074CBF0D460126EDE7E946D9
:1029D8004FF002085D4B07F11802FB614FF482517A
:1029E8005948C7F8188003F09EFD0023544CFB712A
:1029F800E36A9A070BD5564BC7E906834FF4825111
:102A0800514807F1180203F08EFD002440E0E36A04
:102A1800002B01DA4F4BEFE7E36A5B00F5D54E4B2D
:102A280007F11802C7E906834FF48251464803F0BC
:102A38007AFD6369AA6943F480736361BFF34F8FBA
:102A4800BFF36F8F636932F8022C23F480736361DC
:102A5800BFF34F8FBFF36F8F4DF602739A4207D0C3
:102A6800A36ADBB283B30120F91DFFF7D9FD3AE071
:102A780088B02B686A4639493348C2E905130323ED
:102A88004FF4C25142F8103F03F04DFDCD462C687B
:102A9800FB79ABB92022294607F1080003F089FD2C
:102AA8007B6A002E47D0C3F3080222B96FEA53238A
:102AB8006FEA43237B62204607F10801FFF756FCC3
:102AC8002C37BD46BDE8F083A36A13F47F4F04D0CA
:102AD8000120F91DFFF728FE05E0A36AB3F5803F42
:102AE80093D3FFF7B1FE0446D2E70020F91DBCE7F7
:102AF8000020F91DEEE71A4BFB610223BB617DE75D
:102B0800184A18F4F87FE8468AB0174B18BF1346DE
:102B18006A461649103CC2E905134FF40073138442
:102B2800134BD4614FF41151074842F8103F03F09A
:102B3800FAFCC54669E723F4FF7323F00103B9E7FC
:102B480000ED00E08E760001086F0001B976000103
:102B5800D0760001F1760001FF7600011E770001B2
:102B68003A77000175760001607600015E77000112
:102B780004000001044B5A6942F010025A615A6974
:102B880042F480625A61704700ED00E0EFF308807C
:102B9800EFF3098101B57246FFF7E2FE01BD00BF00
:102BA800002320210348C21801331E2B82F800138A
:102BB800F9D1704700E100E0002080F31488BFF3EA
:102BC8006F8F002080F30A8880F30B88FEF7E2FD00
:102BD80000200E490860BFF34F8F0D4880F3088826
:102BE80000F03EF8202080F311880A484FF4006175
:102BF800401880F30988EFF314800221084380F31A
:102C08001488BFF36F8FFFF74DFC000094ED00E0D0
:102C1800181D002118100021BFF34F8F0549064BDE
:102C2800CA6802F4E0621343CB60BFF34F8F00BF62
:102C3800FDE700BF00ED00E00400FA050023184698
:102C48000649D1F89020C2F30722934200DB70476F
:102C5800C1F89830C1F8A0000133F6E700ED00E0B4
:102C680010B572B6002484F31388FFF7E7FF2346F4
:102C78004FF0FF300C4A03F120010133102B42F8CA
:102C88002100F8D100234FF0FF30074A03F160011B
:102C98000133102B42F82100F8D162B6BFF34F8FF1
:102CA800BFF36F8F10BD00BF00E100E0084B9B68C9
:102CB80083420BD1EFF3058343B1064B5A6842F0C8
:102CC80080525A605A6A22F400425A6202F038BDB1
:102CD800B808002100ED00E01FB5094C094A234659
:102CE8000121094800F02AF900230393074B012129
:102CF800E41A01A80193029400F02AF904B010BD67
:102D08000000012100000021EC6F000128010021D2
:102D180010B50C7A0B6804F01F0223F01F031A4346
:102D2800CB68640923F01F03054943EA440343F0D1
:102D38000103C1F89800C1F89C20C1F8A03010BD6B
:102D480000ED00E080B500AF88B06A46074BC2E9E5
:102D58000530032342F8103F00234FF4C2510448C2
:102D6800FEF7A0FF6FF01500BD4680BD7577000126
:102D7800006F00012DE9F04F144606464FF0000998
:102D880087B05F4D00AF79607B68994535DAD6F832
:102D98000480B8F1000F54D0B8F11F0F1BD918F0F8
:102DA8001F0F18D1D6F800B01BF01F0F13D15846CB
:102DB80003F0BCFB824608EB0B00013803F0B6FBBE
:102DC80082451FD06FF0150A6C4688B06A464D4997
:102DD800C2E9051A05E06C4688B06A464A4BC2E962
:102DE8000539032342F8103F00234FF4C2514748E6
:102DF800FEF758FFA5466FF0150420461C37BD4660
:102E0800BDE8F08F1AF1160FDED05445DCDDC5F8A9
:102E180098A0D5F89C00C5F898A0D5F8A02020F077
:102E28001F0042F01F08D6E900211144904201F129
:102E3800FF3B1ED1D84508D131465FFA8AF003F02E
:102E48007EFB09F101090C369EE7C5F898A0D5F874
:102E58009C3021F01F0103F01F030B433146C5F8D6
:102E68009C30E0B203F06BFB10F1160FC3D0441C8A
:102E7800E7E7013AD845E0B222F01F02C5F898A06A
:102E880008D1D5F8A030314603F01F031343C5F825
:102E9800A030E7E7D5F8A01001F01F010A43C5F8F4
:102EA800A020314603F04BFB10F1160FA3D0C5F854
:102EB80098A0D5F89C203B7C08F1FF3862F3040306
:102EC8003B74D5F8A0303A7C5B0863F347123A7438
:102ED800D6E900321344BB6023F01F03441C43446B
:102EE800A3EB0B03E0B223F01F0307287B6102D991
:102EF800FFF728FFB8E707F10801FFF709FFB6E772
:102F080000ED00E0BE7700019B770001006F000133
:102F18000522044BC3F89420BFF34F8FBFF36F8F84
:102F2800704700BF00ED00E0BFF35F8F0022024B47
:102F3800C3F89420704700BF00ED00E010B5034CC3
:102F48002278FFF717FF207010BD00BF030900218A
:102F58002DE9F74F294D8A4606464FF00008AB4643
:102F6800274FD0451BDAD6F80490B9F1000F3FD0AF
:102F780031680846019103F0D9FA0199044609EB32
:102F88000100013803F0D2FA84424FF014021D4BBD
:102F980008D002FB08F36FF015024BF8032003B0CA
:102FA800BDE8F08F14F1160F2C60F8D01978A14203
:102FB800F5DD02FB08B0C7F89840C7F89840D7F885
:102FC8009C4000F10801007B64F304000871D7F805
:102FD800A0000C79400860F347140C71D7F89C10D6
:102FE80021F01F016960D7F8A01021F01F012961A5
:102FF80008F1010814350C36B3E700BF5C0700215F
:1030080000ED00E00309002138B50E4D2C68082CAE
:1030180015D80020FFF788FF0B4B0C4AC3F8C020D7
:10302800844205D10A4B00201C70FFF771FF38BDA0
:10303800696801EB0011FFF76BFE0130F0E74FF014
:10304800FF30F4E7F86F000100ED00E0AAFF44004C
:1030580003090021014B1860704700BF10000021D0
:103068000CB410B586B009B90DF10B000024CDE9F8
:10307800040109AB089A009404A905480393FDF7D5
:10308800B9FF049B1C7006B0BDE8104002B0704741
:10309800E9650001084B70B5C31A0D4607499B1036
:1030A800044659434022064803F0C3FA2B4601461A
:1030B8002046BDE87040184784070021B76DDBB68D
:1030C800486D0001402373B50B4C0093041B0B465D
:1030D8000D460A49A41061430646094A094803F007
:1030E800D4FA011E05DA30462B4602B0BDE870401E
:1030F800184702B070BD00BF84070021B76DDBB66A
:10310800FD660001486D000170B5002201210446EA
:103118000520FFF7ADF90F4801F008F80E4B98426B
:1031280015D101F013F826690C49304602F05FFE0C
:1031380000280BDB012535642469084904F11C00CB
:1031480002F055FE002801DB0020E56470BD6FF039
:103158000400FBE79D3100010000AD0B2070000169
:1031680001460C23002270B54B430848C41840336D
:10317800D4E90E561844A26303F048FA2DB132463A
:103188002B46BDE870400248184770BD84070021EF
:10319800486D000110B1012804D07047034B1B6C27
:1031A8005B0701D1FFF7DCBF704700BF8407002130
:1031B80008B54FF02003EFF3118183F31288BFF3B2
:1031C8006F8F114A136843F002001060DA0708D4C1
:1031D80081F31188BFF36F8FBDE80840012000F02C
:1031E800C7BF0A4BD3F80C24D3F80C34D307EFD558
:1031F800074803F00BFA81F31188BFF36F8FBDE81E
:1032080008400020FFF7ACBFD40700210050004160
:10321800C40700211FB500220123CDE902236B4614
:10322800084ACDF800D0CDF804D003F05CFA0028A5
:1032380005DB4FF480420023684601F071FF05B0BA
:103248005DF804FB1B67000110B54FF02003EFF396
:10325800118483F31288BFF36F8F074A136823F032
:103268000201DB07116002D4012003F028FB84F37C
:103278001188BFF36F8F10BDD40700212DE9F041ED
:10328800012207463549D1E8EF3FC1E8E02F002881
:10329800F9D133B9324933484B60CB608A6002F0C8
:1032A800B9FD7B1E012B28D8012F06D12E4BD3F850
:1032B8001C3403F00303022B1FD003F0BEFB0546AA
:1032C800E8B92A4B1B78D3B102220646264BC3F82D
:1032D8000823254CDFF89880D4F81834D4F818243B
:1032E800D20316D503F00303022B01D0012F10D10E
:1032F80075B386F31188BFF36F8FBDE8F0814FF087
:103308002003EFF3118683F31288BFF36F8F012533
:10331800DFE7C5B13046FFF71FF8D4F81835DBB240
:10332800012BD9D1D4F80421002AD5D00022C4F821
:103338000421D4F804210222C4F818252022C8F850
:103348008021A360C8E70021212002F0D9F9E4E731
:103358000222054BC3F80423CFE700BF80070021F2
:1033680070070021A007002100500041170D00211F
:1033780000E100E010B5044C2046FDF711FD2046A1
:10338800FFF768FE002010BD95330001F7B504462D
:103398000325124E8DF8070001F0BAFB0122002028
:1033A8000DF1070101F07EFB074601F0BBFB27B1D9
:1033B80001233370204603B0F0BD3378002BF9D0D9
:1033C800013D08D003F039FB0028E5D10021422057
:1033D80002F096F9E0E73570ECE700BF0409002138
:1033E80008B5074803F01AFB38B10648FFF732FE64
:1033F8000448FDF7D5FC002008BD6FF01200FBE77C
:10340800906D0001113400010A2838B50446074DB3
:1034180004D1AB680D2128465B689847AB68034820
:103428005B68E1B29847204638BD00BF906D000147
:1034380030B5406801F01F04057BB2F5001F85B068
:1034480044EA451405D1204601F050F9002005B0A2
:1034580030BD0025B2F5800FCDE9025514D1B3F186
:10346800007F0CBF042305238DF808300023204675
:10347800194602AA00F076FF1F4B984238D1012165
:10348800204601F0EDF8E1E7B3F1C06F25D0B3F1C4
:10349800007F14BF012302238DF808308368CB40D6
:1034A800D907E3D4B2F1A07FE0D1144A14486109E6
:1034B800012908BF024604F01F03803352F8233065
:1034C800DB07D3D40DF107052946204601F074F82F
:1034D8000C4B984203D00395C8E70323DCE7284642
:1034E80001F0B8F8044B9842F5D06FF00B00AEE746
:1034F8006FF01500ABE700BF0000AD0B00058C4175
:1035080000088C410400AD0B10B501F093F8044697
:1035180068B901F067F8084B98420AD12146074874
:1035280001F044F8224605210A20FEF7A1FF0020F9
:1035380010BD6FF00400FBE70000AD0B493500013A
:103548004209034670B502D0012A17D070BD0D4E4E
:10355800326951680029F9D0012503F01F030C686E
:103568009D400029F2D08A682A4002D030464B6834
:1035780098472CB1236821461C46F2E7024EE7E73C
:103588002346F8E7786D0001606D00012DE9FF41E1
:10359800476801F01F053B7B144645EA43150E4674
:1035A80028460DF1030101F007F814F4403F804666
:1035B8000BD1284601F0C2F83C4B984503D19DF841
:1035C800030001F041F800200CE0002328461946CA
:1035D80002AACDE9023300F0C5FE344B984204D06C
:1035E8006FF0150004B0BDE8F081804503D19DF867
:1035F800030001F029F8A30349D540F2063323401C
:10360800B3F5837F19D00CD8062B17D004D8ABB1EB
:10361800022BE5D1042311E0B3F5807FE0D101232B
:103628000CE040F20222934226D0B3F5407F25D029
:10363800B3F5007FD4D1022300E007238DF80430CE
:1036480084F48033C3F30043E0068DF805304CBFA3
:103658000323C4F3401321038DF8063010D501234A
:103668007A68B34093600022284601A900F02AFF37
:103678000E4B9842A7D0B3E70523DFE70323DDE726
:10368800620341BF01237A68B340D360EBE7E306E6
:103698004FF000034CBF0324C4F340141A462846D5
:1036A80001A98DF8044000F05DFEE1E70000AD0BD4
:1036B800F0B54B79012B29D0032B24D110278B7916
:1036C800032B20D1CE790EB1012E1CD10A79012A03
:1036D8001ED0022A20D0B2B914460B684568B3F54B
:1036E800164FD5F800C06ED033D8B3F5165F6DD03D
:1036F8001CD8B3F5966F6BD010D8B3F5967F6AD007
:10370800B3F5167F6AD06FF085005BE00027D6E737
:103718004FF480740E22E0E70024FBE7B3F5166F40
:103728005FD0B3F5965FEED1384B3CE0B3F5E14F8F
:103738005AD007D8B3F5615F58D0B3F5964FE2D1A8
:10374800334B30E047F61225AB42DCD14FF400038F
:1037580029E0B3F5613F4BD013D8B3F5963F4AD073
:1037680009D84DF6C025AB4247D0B3F5614FCAD151
:103778004FF46B0317E0B3F5E13FC4D14FF0EB739F
:1037880011E0B3F5612F3BD008D8224DAB423AD0B7
:10379800B3F5E12FB7D14FF0E86304E01E4DAB421B
:1037A800B1D14FF080530569CCF8243543683A43CA
:1037B8001B6834432243C3F86C252B1D03C983E8D7
:1037C80003000020F0BD4FF41D03ECE7134BEAE7BC
:1037D8004FF49E23E7E74FF4A033E4E74FF41C339C
:1037E800E1E74FF41D23DEE70D4BDCE70D4BDAE78D
:1037F8004FF06C73D7E70C4BD5E74FF46503D2E76E
:103808004FF07063CFE74FF08063CCE700B0130050
:1038180000A04E0090D0030040420F000050270047
:1038280000C0750000F03A0000903A012DE9F0431D
:10383800804687B0002201211320FEF719FE1320CD
:10384800FEF7FAFD0021D8F80470D8F810603C683B
:103858006A46C4F80015C6F80080D7F80C904846A8
:1038680003F017F8051E25DB009BD9F8002019790D
:10387800186800F003FB051E1CDB4046311DFFF7EE
:1038880017FF0546B0B97B68990724D506F11800DB
:1038980000F0E2FC244B984210D0244B05930223FD
:1038A80004932B466FF004054FF48251204804AA74
:1038B800FEF7F8F9284607B0BDE8F083337E43F0F9
:1038C8000043C4F8A031C4F88C300123327E934001
:1038D800184AC2F804350823C4F800353B7A53B9AE
:1038E800C4F81031D4F810317369C4F834350123A1
:1038F800C4F8383523607B689A075CBF4FF480733F
:10390800C4F804337B68DB0644BF4FF48003C4F873
:1039180004333369C4F844350023C4F84835012317
:10392800A360E360C6E700BF0000AD0B3578000177
:10393800186F000100F00041F8B504460D4607690C
:1039480003F07BF8B0B92E4B1B789BB164266068F6
:1039580002F052FF00BB012002F0AFFF013EF6D19A
:103968000021212001F0CCFEF0E786F31188BFF397
:103978006F8FF5E74FF02003EFF3118683F312887A
:10398800BFF36F8F6068314602F036FF90B986F357
:103998001188BFF36F8FEDE74FF02003EFF3118627
:1039A80083F31288BFF36F8F6068314602F024FFFB
:1039B8000028DAD03B691D70626838691368C3F85B
:1039C80044050120C3F848050020C3F82001D3F8B6
:1039D8002051C3F858015268D3F85801D20608D5C7
:1039E800082062681268C2F800054FF48002C3F824
:1039F800042301229A6081F31188BFF36F8FF8BD09
:103A0800170D00210123834070B5DC430B4AD2E82F
:103A1800EF1F01EA0405C2E8E65F002EF7D14FF474
:103A2800803282400648C0F80823BFF35F8FBFF397
:103A38006F8F0B4214BF0120002070BDF4070021D6
:103A480000600141F8B51B49044622F07F4508682B
:103A5800C1E90023A5F50013101AB3F5400F0FD3E1
:103A680001F0B4FFA30003F1824303F5B033D3F8A8
:103A7800402595421DD14FF40002C3F8402512E0BD
:103A88000D4B1B681A0A1B065E190C4B42F1000706
:103A9800C3E9006701F09AFF094A04F5A87352F8D0
:103AA80023309D4205D14FF48033054AA340C2F824
:103AB8004433F8BDF8050021F8070021000600216D
:103AC80000600141D9B101230D4A8340D2E8EFCF0C
:103AD8004CEA030CC2E8E1CF0029F7D14FF4803358
:103AE800084A8340C2F80433074BD3E8AF3FC340CA
:103AF800DB0742BF4FF48002044BC3F80021704734
:103B0800F407002100600141F007002100E100E016
:103B18000D4B1868010A0006BFF35F8F0B4BD3F8F3
:103B28000435181841F10001B3F5801F0AD2084B7B
:103B3800D3E90023904271EB030303D210F18070A4
:103B480041F10001704700BFF80700210060014102
:103B5800000600212DE9F04F85B014461D460746A2
:103B6800FFF750FF0190FFF7D3FFA04271EB050369
:103B780080F08680494B201A65EB0101984271F16B
:103B8800000180F08880464B03EB0713D3E902233A
:103B98009D4208BF94425ED04FF4803324F07F42A8
:103BA80016464FF0020B6FF001014FEA870907F143
:103BB800500809F182494FEA8808BB4009F5B03935
:103BC8001FFA88F808F182480293D9F84005354B66
:103BD80008F5B038D3F804A5A0EB0A0020F07F4020
:103BE8002AF07F4C0128C9F840C507D10392132059
:103BF80003F04BF86FF001012A4B039AA1EB0A007E
:103C0800304420F07F40B0F5000F4FF00000C8F8B6
:103C18000000D8F80000029888BF0AEB0B06C3F82A
:103C2800440326F07F40C9F84005D3F8040588BF4F
:103C38000BF1010B824506D0081A304420F07F4072
:103C4800B0F5000F1AD8B61A26F07F46361945F196
:103C5800000334461D4612490E9801EB0712C2E9CB
:103C6800024500243B01C8500F9B53603846019918
:103C7800FFF728FF204605B0BDE8F08F3046A9E7DA
:103C88000123094ABB40D2E8EF0F1843C2E8E10F0D
:103C98000029E0D0F7E76FF01504E7E7010000011D
:103CA800E805002100600141F007002173B50024F8
:103CB8004FF0FF304FF0FF31164D174BC5F8084550
:103CC800C3E902014FF4803302264FF48002C5F89D
:103CD8000433124B0121C5F804631620C3F8802170
:103CE8002246FEF7C5FB1620FEF7A6FB01230C4A69
:103CF800AB602B6013600B4B0B4A009320460023EC
:103D08000194FFF727FF3046FFF7B8FA204602B0C4
:103D180070BD00BF00600141E805002100E100E03E
:103D2800F40700214D3A0001FFFF7F002DE9F7431A
:103D3800314BD3F8042392070BD5D3F8042142B1B1
:103D48000022C3F804212D4AD3F804311368013343
:103D580013604FF02003EFF3118283F31288BFF34F
:103D68006F8F254CD4F80433DB0325D5244BD3E8D7
:103D7800EF1F21F00100C3E8E50F002DF7D111B9BD
:103D8800D4F84031C3B10025C4F84051D4F84031CB
:103D980082F31188BFF36F8FFFF7BAFE4FF020034D
:103DA800EFF3118283F31288BFF36F8F154BD3E9BA
:103DB8000267B042B94106D282F31188BFF36F8F10
:103DC80003B0BDE8F0834FF0FF38D3E900104FF09F
:103DD800FF391D60C3E902894FF48033C4F84833C2
:103DE80082F31188BFF36F8F0029E9D00090324623
:103DF8003B4628468847E3E700600141F807002171
:103E0800F0070021E8050021431C13B520D0012844
:103E180020DDB0F5000F1FDA441EFFF779FE0F4BC7
:103E2800D3E90013421AB2F5000F28BF00240C484A
:103E380001322244824228BF024600205218094912
:103E48000190009143F10003FFF784FE02B010BD1A
:103E58000348E1E70024E0E7014CDEE7F80500212C
:103E6800FFFF7F004D3A000108B5FFF751FE024BF6
:103E78001B68C01A08BD00BFF80500212DE9F047EE
:103E880001272F4D2F4E00EB8101814202D10020E6
:103E9800BDE8F087046804F07F03C4F3432A7F2B4E
:103EA8004FEA144408BF4FF0FF33032C44D8DFE82F
:103EB80004F002133D40C2F80C354FEA531EBEF120
:103EC800010F14BFAC46B44603F01F0407FA04F40C
:103ED800CCF80840012402E0C2F81435002450F858
:103EE800049B03F01F0809F4005CBCF1000F4FEAC3
:103EF80053130EBFA6464FF0010E0024012B0CBF32
:103F0800B446AC460CEB880CDCF80032C9F3C11996
:103F180003F0E0484FEA0A2343EA8903234343EACC
:103F28004E0343EA0803CCF80032AEE7C2F808357E
:103F3800C3E7C2F81035D1E76FF08500A8E700BFE6
:103F480000058C4100088C417FB5FDF7CBFD074B80
:103F5800059302230493064800234FF4825104AAD0
:103F6800FDF7A0FE0020FEF757FE00BF72780001A3
:103F7800D86E00010022D30003F1FF7303F58033EC
:103F8800D3F80013013107D0D3F800130132D3F866
:103F98000433202A0B60EED1144BD3E94C32072BA3
:103FA80007D1023A032A124B0CD9D3F80024D107BF
:103FB80016D4104B1A68104BC3F844250F4B104AFF
:103FC8001A6070470F498A5C002AEED0D3F80024A3
:103FD800D207EAD50022C3F81421C3F81821E4E770
:103FE8006FF00102C3F80024E3E700BF0000FF01FF
:103FF800005000410080FF010060004130000021B6
:104008000090D0038F78000170B501250268B2FADC
:1040180082F3C3F11F03DBB205FA03F422EA0404B6
:10402800D0E8EF6F964204D1C0E8EC4FBCF1000F26
:10403800F6D1EBD101480B7070BD00BF0000AD0B8D
:1040480010B50368CB40DB0710D401238B4002680E
:1040580043EA0201D0E8EF4F944204D1C0E8EC1FD4
:10406800BCF1000FF6D1F2D1014810BD0148FCE7C0
:104078000000AD0B0400AD0BF7B5044618B10128DC
:104088001ED003B0F0BD0222274B0746C3F8082311
:10409800C3F80401D3F804210122DA60012342F2B3
:1040A8001075214E8DF80730B4B1012CE9D187B3D2
:1040B800D6F80C3403F001033B70D6F80C3413E047
:1040C8000022194B0DF10707C3F80803C3F80021B4
:1040D800D3F800215860E1E78FB1D6F8183403F01F
:1040E80003033B70D6F81834DA03CAD59DF80700E5
:1040F8000128C6D102F0E1FB013DD5D1C1E7D6F8D0
:104108001834D903BDD5012002F0D7FB013DF6D103
:10411800B7E7D6F80C34DB03B3D5012002F0CDFBAA
:10412800013DF6D1ADE700BF00500041044B1A79BC
:1041380022B9012218601A71024870470248704774
:10414800FC0700210000AD0B0C00AD0B08B50520E5
:10415800FEF780F910B90520FEF76EF90122034B2E
:10416800C3F81825C3F8142508BD00BF0050004146
:1041780008B510B101282ED008BD1C4AD2F8183451
:10418800D2F81814C9030ED4D2F81434DB0713D5A7
:10419800D2F81C3403F00303013B012B09D8022396
:1041A800C2F80433E8E703F00303022B05D0012B20
:1041B80002D00020FFF760FF01230C4AC2F818352F
:1041C8000023C2F80431D2F804310223C2F80433C0
:1041D80001239360D0E70022044BC3F80021D3F8F1
:1041E8000021C3F804031860C6E700BF005000416F
:1041F80010B5174BD3F8002152B10020C3F80001C5
:10420800D3F800210122C3F80823124B1B689847F2
:104218000F4BD3F804218AB10022C3F80421D3F844
:104228000421D3F81824D3F8181402F00302012A41
:104238004FF0020103D1C3F818159A6010BDC3F8F6
:104248000813044B0120BDE810401B68184700BF45
:1042580000500041FC07002101460148FFF7D4BE89
:1042680034000021036803F01F020260034A044877
:104278005B09012B18BF1046704700BF00058C4131
:1042880000088C41034B083033F81000C0F340108D
:10429800704700BF3800002170B50D4C00F10803CD
:1042A80034F813300546DA050E4607D5C3F3432321
:1042B80004EBC302526854F833309847A3682BB113
:1042C80031462846E268BDE87040184770BD00BF17
:1042D8003800002110B4124A083032F81030D905DD
:1042E8001BD5C3F3432123F4F85322F810300020E0
:1042F80002F10E0434F8023F13F4807F03D0C3F3B5
:104308004323994209D001303028F3D1002342F8E1
:104318003130044810BCFFF793BE10BC704700BF93
:1043280038000021AC00002138B50246FFF7AAFF8B
:104338000B4C02F1080560B1002134F815305B0B15
:104348009B0003F1824303F52043C3F81015C3F81B
:1043580010151046FFF7BEFF002324F8153038BDAE
:10436800380000212DE9FF41044690461D4601B35F
:10437800504E00F1080736F817309B0702D5FFF7B3
:1043880081FF28BB00232046CDE900338DF80E308D
:104398008DF80F300DF10F020B460DF10E0102F0F2
:1043A80090FA36F8173023F0020343F0010326F899
:1043B8001730B8F1000F2DD03E4E04F1080736F83B
:1043C800173098F800009907D8F8042002D5CAB128
:1043D800394821E023F02003DB04DB0C26F81730F2
:1043E80082B10328F4D8D8F8042092F800C04FEA24
:1043F8008C0202F1824202F5204280B9C2F810050F
:10440800C2F8100536F8173023F01C0343EA80037E
:1044180026F817301DBB294804B0BDE8F081D2F852
:10442800101543EA4C3321F00301C2F81015D2F8F5
:10443800101543F0200321F44F3121F44071C2F8E4
:1044480010152102D2F810E501F47C5141EA00412F
:1044580041EA0E01C2F8101526F81730D2E72046B7
:10446800D5E90067FFF736FF002ED4D0114DD5E906
:104478000023964201D19F4219D011480DF10F0136
:10448800FFF7C2FD0D4B9842C6D19DF80F2005EBF2
:10449800C20304F108005F6035F8103045F8326057
:1044A80043EA422343F4807325F81030B3E700222F
:1044B800EDE700BF380000210400AD0B0000AD0B94
:1044C800AC000021F0B50446164685B019B3344D4A
:1044D80000F1080735F81720930703D4FFF7D2FE39
:1044E80000285AD112F01C0F02D04B78012B54D05F
:1044F80001238DF80F3000234A1CCDE90013204614
:104508008B1C0DF10F0102F0DCF935F8173043F080
:10451800030325F8173016B9224805B0F0BD204A24
:1045280004F1080732F81700830736D5002396F8F8
:1045380000C020F020004FEA8C0101F18241C00444
:1045480001F52041C00CC1F8103522F81700C1F858
:1045580010357578002DDFD0D1F81035B67823F4F2
:10456800991323F4F853C1F81035D1F810E5230254
:1045780003F47C532D0443EA0E0305F44035340557
:104588002B4304F4801440EA4C30234340F02000CD
:10459800C1F8103522F81700BEE70348BDE700BF91
:1045A800380000210000AD0B0400AD0B014BC3E93E
:1045B800020170473800002108B50246FFF762FE85
:1045C80038B1054B083233F8123004485B0B0B70D6
:1045D80008BD0348FCE700BF380000210000AD0B10
:1045E8000400AD0B38B50F4C94F87850BDB9602273
:1045F800294604F1100001F0E7FF0A20FDF71CFF2F
:10460800094B0A48C3F87C51D3F87C214FF000428B
:10461800C3F80423012384F87830636738BD04485D
:10462800FCE700BF3800002100A000410000AD0BEE
:104638000500AD0B034B93F87800003818BF012034
:10464800704700BF3800002101460148FFF7F8BC59
:10465800A800002101460148FFF7D6BCA8000021A8
:1046680037B50446FFF70EFE1E4B04F1080233F877
:104678001230E8B113F002051AD15B0B9A0002F16F
:10468800824000F5214002F18242056002F5204295
:104698000068D2F8100540F00100C2F8100529B1F1
:1046A800012202FA03F3104AC2F8043303B030BD02
:1046B800C3F38203042B11D0052B11D001A8019458
:1046C800FFF7D0FD019B0169D94001F001010231DA
:1046D800204603B0BDE8304002F03CB90321F7E7BB
:1046E8000221F5E73800002100A0004108B5024684
:1046F800FFF7C8FDC0B10F4B02F1080133F81130C4
:10470800990711D401225B0B9A400B499B0003F1D6
:104718008243C1F8082303F52043D3F8102522F07B
:104728000302C3F8102508BD0021BDE80840104663
:1047380002F010B93800002100A0004113B5104B59
:1047480000F1080233F812300446DB0716D5FFF7EC
:10475800CDFF2046FFF7E8FD01A80194FFF782FD91
:10476800019B00EB8300D0F8003203F0E04343F0F4
:104778000203C0F80032034802B010BD0248FBE74C
:10478800380000210000AD0B0400AD0B2DE9F04FFF
:10479800002601223446654B6548664987B01D6886
:1047A80035B1D0F8045315421EBF1C601D6816436E
:1047B80004338B424FEA4202F1D15D4BD3F87C318E
:1047C800002B00F09680DFF87091DFF87081D9F83F
:1047D80020300493C9F82030D8F820300593C8F861
:1047E80020304FF0000A0DF1100B4FEA4A130093E6
:1047F80048E094FAA4F4B4FA84F4009B504A1C44A8
:1048080004F1080332F813700123E00804F00702EA
:1048180003FA02F21BF80030039423EA02030BF8B0
:10482800003003A8FFF71EFD039BB908803350F83A
:104838002330C7F382054A072F46C3F301432BD51C
:1048480020463946DDB2FFF727FD03A80394FFF79A
:1048580009FD039B803350F82330C3F301439D4285
:1048680007D10021204602F075F82946204602F0BB
:1048780071F803A80394FFF7F5FC0122039B02FAE1
:1048880003F303625BF82A40002CB2D1BAF1000F9F
:104898001DD14FF0010AA8E7022B0CD103212046B5
:1048A80002F058F805F00503012BE2D139462046FD
:1048B800FFF7F2FCDDE702212046019302F04AF8F7
:1048C800032DF3D0019B032BD3D1022DEDE7184B19
:1048D800C3F87C41D3F87C31D9F820300493C9F867
:1048E8002030D8F8202013430592C8F820207FF400
:1048F80078AF012416B907B0BDE8F08F96FAA6F391
:10490800B3FA83F304FA03F29B0003F1824303F53D
:104918002043D3F81005D3F81015C0F30520C1F3D0
:10492800014126EA0206FFF7B7FCE3E700A10041D0
:1049380000A0004120A1004100058C4100088C41E5
:104948003800002170B5084C0E462379154643B946
:104958001220FDF771FD0123044823712660A5602C
:1049680070BD0348FCE700BF040800210000AD0B40
:104978000C00AD0BF8B5012600270B4B0B4DD3F8F7
:104988000C4304B9F8BD94FAA4F0B0FA80F006FA22
:1049980000F324EA0304064B82009F502B68002B87
:1049A800EFD0A9689847ECE70020014104080021EE
:1049B80000210141032310B5104C114A23616361A2
:1049C800104BA261E3614FF4806323620023A3626A
:1049D8006362E36222660C4A0C4962661022E01D9B
:1049E800A2662367E366636701F0C9FD20460849AC
:1049F80001F0C5FD2023A37110BD00BF10080021E0
:104A0800B47800011709002107090021BD780001C9
:104A1800C17800012DE9F84F4FF0180B204F1446CC
:104A28000BFB0072936A556A0646AB42884631D83A
:104A3800D2F820A0AAEB050909F1FF32944211D857
:104A4800182306FB03333B44586822464146284452
:104A580001F0AFFD2C441823012003FB06735C62B0
:104A6800BDE8F88F13449C4218D800FB0BBBBB442D
:104A7800DBF804004A4628442C4401F09AFDB4EBC4
:104A88000A04E8D02246DBF8040008EB090101F02B
:104A980090FDE0E7013B5B1BA342D1D20020DFE79A
:104AA80010080021F8B5182700FB0775124B0E46B1
:104AB8001D4407FB0033DB6A1446012B0AD0022B86
:104AC80014D023B9284601F054FF844208D90024A1
:104AD8002046F8BD284601F04CFF844228BF044612
:104AE80022463146284601F04DFFF1E72846BDE849
:104AF800F84001F062BF00BF100800211822034BE4
:104B080002FB00339A6A586A801A7047100800211D
:104B18004FF0FF324FF0FF33014800F02BBA00BFCF
:104B280000010021014800F09FBA00BF00010021E8
:104B38002DE9F04786B005460E4600AF4FF020033A
:104B4800EFF3118883F31288BFF36F8F00F0F2FD43
:104B5800042D98BF2C4BE9468AB004466A4694BF98
:104B680053F82530294BD36140F201334FF0000A46
:104B780093842749274BC2E90515C2F820A042F8BB
:104B8800103F4FF4315153462348FDF78BF8CD467B
:104B98007EB1F369C3F308035BB1204B7B61022349
:104BA8003B614FF4825153461B4807F11002FDF751
:104BB80079F82CB1204601F049FF08B1037803B910
:104BC8001748E9468AB06A46164BD061C2E90534EF
:104BD80040F201331384144B42F8103F00234FF482
:104BE80011510D48FDF75EF83146CD462846FFF7CE
:104BF800ABF988F31188BFF36F8F2046FEF756F89C
:104C08001837BD46BDE8F087F0700001C87800018C
:104C1800DE78000105000001086F00010679000137
:104C2800D678000127790001040000010F4B70B508
:104C380053F82040013053F82060A64200D870BDD8
:104C4800D4E90035284698476DB138B10028B8BF77
:104C58004042FF28A8BFFF20EB681870EA68537825
:104C680043F0010353700834E7E700BF0471000103
:104C7800012208B5094B03201A70FFF7D7FF00F08F
:104C8800D1FF0420FFF7D2FF00F018F9FBF756FC1C
:104C9800034A137B23F00103137308BD170D00218A
:104CA8008806002108B50348034A0021121A01F0BA
:104CB800C0FE08BD28010021180D00210023012293
:104CC80070B586B0CDE904230F220193CDE90232F5
:104CD80018230F4D0F4E03FB00550F4906EBC01666
:104CE800044601EB00214FF4807230460B4B0095CF
:104CF80000F088F8737B2C7523F004037373084B5A
:104D0800013403EBC423EE606B6006B070BD00BFD6
:104D1800B80800210806002118180021596A000166
:104D28001810002180B50020A6B0FFF77FFF2E4B9A
:104D380003F5006282F3088883F30A880024E023DD
:104D48002A4D2B4E85F82230EC772C766C76AC7693
:104D580085F820406B6A274F43F4E0236B6285F89F
:104D68002340FDF707FFFDF7E3FA4FF0FF33AB628F
:104D7800EB62FEF749F9FDF7AFFFFCF727FE40F2BB
:104D88000113ADF8243006ABB360CDE91F4422947B
:104D980001F043FE0120FFF749FF0220164DFFF7FF
:104DA80045FF00F01FFC154BB5610593012314491D
:104DB8004FF48062CDE9034328463B46CDE90144E0
:104DC800009400F01FF806466A7B284622F0040289
:104DD8006A7301F0B9FE2046FFF770FF3A46314684
:104DE8002846FDF7E7FB00BF1810002100ED00E0A2
:104DF800B8080021794C0001880600218979000152
:104E0800181900212DE9FF410E9E00F1580506737F
:104E18000426C0E916550025044646730D9EC0E9D0
:104E280006558673D61D0C9A26F00706C0E9191692
:104E38008560C573C56602920B9A01EB060801925C
:104E48000A9A00924246FDF799FB054B65659B68F7
:104E580003B11B6F4046236704B0BDE8F08100BF73
:104E6800B8080021F0B5002587B00595109DDDE94B
:104E7800127604950F9D044603950E9D02950D9D8F
:104E880001950C9D0095FFF7BDFFB6F1FF3F08BFE8
:104E9800B7F1FF3F05D056EA070305D1204600F0D9
:104EA80021FB204607B0F0BD3A463346024904F1DB
:104EB800180000F00DFDF4E7BD6A00012DE9F0438C
:104EC800294C2A4D87B02646AE4204F130040FD350
:104ED80000F058FB4FF4004640F2E737224CDFF869
:104EE8009090AC4220D307B0BDE8F04300F05EBB21
:104EF80054F8043C059354F8103C049354F8143CBB
:104F0800039354F8183C029354F81C3C019354F84A
:104F1800203C009354E90A2354E90C01FFF772FF7F
:104F280054F8303C5E65CEE7636A5A1C0DD0002108
:104F3800384623EAE373C3FB060151EAC333D4F8C6
:104F4800008004D1404600F0CDFA3034C9E74FF470
:104F58007A720023FBF7ACF802460B4608F11800FA
:104F6800494600F0B5FCF0E7986E0001986E000124
:104F7800BD6A00012DE9F341044617461E464FF06D
:104F88002003EFF3118883F31288BFF36F8FC36890
:104F9800334A7BB180689168884219D057EA060382
:104FA80018D188F31188BFF36F8F6FF00F0002B02C
:104FB800BDE8F081916891F90E100133E3609368C0
:104FC8002161A36088F31188BFF36F8F0020EEE79B
:104FD8002169F2E791F90E1090F90E306FF07E0218
:104FE8009942A8BF19469142B8BF11468B422EDD9F
:104FF80001F03AFD054622464146CDE900761948BA
:1050080000F0FAF90028E1D04FF02003EFF3118601
:1050180083F31288BFF36F8FA068D0B1236821692A
:105028009C420AD04BB193F90E309942A8BF194659
:105038006FF07E039942B8BF194601F015FD40B1E3
:105048003146084800F03CFA6FF00A00AFE7002547
:10505800D1E7002DF4D186F31188BFF36F8FF3E702
:10506800B8080021180D002138B5836804466BB3D1
:10507800194A926893422CD1C368012B03D9013B8A
:10508800C360002038BD4FF02003EFF3118583F390
:105098001288BFF36F8F0169806801F0E5FC204634
:1050A80001F089FDA06058B190F90E20226100221C
:1050B800826701F049FD2946084800F001FAE0E757
:1050C800E06085F31188BFF36F8FDAE76FF01500A2
:1050D800D8E74FF0FF30D5E7B8080021180D0021B8
:1050E80038B504464FF02003EFF3118583F3128897
:1050F800BFF36F8F01F05FFD48B10022826701F0B6
:1051080023FD2946BDE83840044800F0D9B9D4E960
:1051180002329A4218BF0133A360F2E7180D00214A
:1051280013B54FF02004EFF3118184F31288BFF315
:105138006F8F846844B1013C846081F31188BFF3A8
:105148006F8F002002B010BD52EA030406D181F32C
:105158001188BFF36F8F6FF00F00F3E7CDE90023DD
:105168000246024800F048F9ECE700BF180D00219C
:1051780038B5074D2C6854B1FEF776FE054B04444C
:105188001C6128680021BDE8384001F05CBD38BDCD
:10519800E4080021B808002138B50D4D2B4653F816
:1051A8001C4F9C4200D004B9EC68AB6838B95A7BF4
:1051B800D20604D1A26912B9DA897F2A05D89C429D
:1051C80002D02046FFF7D4FF2346AB6138BD00BFAD
:1051D800B808002170B590F90D200146002A437BDC
:1051E80004DA03F07F03437301F052FC154A4B7B4A
:1051F800104663F07F034B7350F81C3F146A8342D8
:1052080008BF002323B9C1E90004216011620CE042
:1052180091F90E5093F90E60B5420ED0AE420CDDF6
:105228005868C1E90030016059609068BDE8704075
:10523800431A58425841FFF7AFBF9C42E3D01B685E
:10524800E0E700BFB808002170B490F90D30427B48
:10525800002B29DBD30627D183692BBB134962F0C6
:105268007F0242730A4652F81C4F944218BF2346E5
:105278000C6A23B9C0E90024206008620CE090F9A8
:105288000E5093F90E60B5420AD0AE4208DD5A6856
:10529800C0E9003210605860002070BCFFF77CBF86
:1052A800A342E7D01B68E4E770BC7047B808002148
:1052B80008B590F90D200146002A437B04DA03F073
:1052C8007F03437301F0E4FB044B9868431A584288
:1052D8005841BDE80840FFF75FBF00BFB80800218C
:1052E80070B515461C46064601F006FCB4F1FF3FB2
:1052F80008BFB5F1FF3F08D02A46234606F118003B
:105308000249BDE8704000F0E3BA70BDBD6A000113
:10531800F8B504460D464FF02003EFF3118783F3E9
:105328001288BFF36F8F00264FF4004C40F2E7302D
:1053380031464FF47A720023E4FB0C01FAF7B8FE09
:10534800B44202DD0228B8BF0220074A074B1060AA
:10535800074A98681E611560FFF70AFF87F31188EE
:10536800BFF36F8FF8BD00BFE4080021B808002123
:10537800E008002138B54FF02003EFF3118583F3DF
:105388001288BFF36F8F174B174A9C6811688C42BD
:1053980007D12046FFF7ECFE85F31188BFF36F8F26
:1053A80038BD00211160114A1268C2B1E2897F2A12
:1053B80015D8627BD20612D10D4A94F90E101268E4
:1053C80091420CDB0B4A944209D01A69824203DCF1
:1053D8002046FFF7FFFEDCE7121A1A61DCE700221D
:1053E800FBE700BFB8080021DC080021E408002121
:1053F800E00800210806002170B50C480C4D8668AD
:105408000C462E601146DDE904234FF02006EFF329
:10541800118586F31288BFF36F8F8068FFF760FFEE
:105428002046BDE87040FDF753B800BFB80800211A
:10543800DC080021F8B504464FF02003EFF311868D
:1054480083F31288BFF36F8F437B49B2DA0619D111
:105458008569BDB903F07F03437301F019FB437BF2
:10546800164A63F07F0343731346817353F81C0F86
:10547800984218BF0546106A5DB9C4E90030046057
:10548800146211E00020A17386F31188BFF36F8FB7
:10549800F8BD95F90E70B9420BD08F4209DD6B68E3
:1054A800C4E900531C606C600120FFF775FE012001
:1054B800EAE7A842E1D02D68DEE700BFB80800217E
:1054C80049B9EFF3058030B9054B9A699B689A4250
:1054D80001D0FCF7FDBF81F31188BFF36F8F7047D0
:1054E800B808002110B54FF02002EFF3118482F3C1
:1054F8001288BFF36F8F427B510704D484F311885D
:10550800BFF36F8F10BD22F004024273FFF79CFEB9
:105518002146BDE810400148FFF7D2BF180D002111
:1055280070B50446183001F078FB4FF02003EFF314
:10553800118683F31288BFF36F8F94F90D20637B74
:10554800002A05DA03F07F032046637301F0A0FA0E
:105558000B4D637BA86843F010036373031B584229
:105568005841FFF719FE86F31188BFF36F8FAB68B8
:10557800A34203D1BDE8704001F045BB70BD00BF38
:10558800B80800214FF02003EFF3118183F312884C
:10559800BFF36F8F044B9A68D37B013BD37381F3BE
:1055A8001188BFF36F8F7047B808002110B54FF00E
:1055B8002003EFF3118483F31288BFF36F8F084B36
:1055C80000209A68D37B0133D373FFF7E5FD84F39A
:1055D8001188BFF36F8FBDE8104001F014BB00BF06
:1055E800B80800210021044B084603F11C02C3E956
:1055F8000722FFF78DBE00BFB8080021F8B54FF0AD
:105608002003EFF3118583F31288BFF36F8F1949D5
:105618008868437B03F07F03437301F039FA084637
:105628008B685A7B62F07F025A7350F81C2F0C6A01
:10563800824208BF002222B9C3E9000423600B623A
:105648000CE093F90E6092F90E70BE420ED0B7428C
:105658000CDD5168C3E900210B6053600120FFF79E
:105668009BFD2846BDE8F840FCF732BFA242E3D0D4
:105678001268E0E7B808002150EA01032DE9F0417B
:1056880005460E4603D1FFF7B9FF00202CE0831C26
:1056980071F1FF332ADB01F0F2FA2C184FF02003E6
:1056A800EFF3118883F31288BFF36F8F114F124BFA
:1056B800B8681860FFF7FCFDB86810492A463346F9
:1056C800183000F005F9BA684046537B43F01003E0
:1056D8005373FCF7FDFE01F0D2FA201A63EB0303C3
:1056E800012873F10003D0DBBDE8F0816FF00104FD
:1056F800241AD3E7B8080021DC080021BD6A00019C
:10570800B1F1FF3F08BFB0F1FF3F08B506D1084B24
:105718009868FFF705FF4FF0FF3008BDFFF7ACFFB3
:105728004FF47A7380FB0303C00B40EA4340F4E76D
:10573800B8080021014B9868704700BFB8080021DD
:105748002DE9F04104464FF02003EFF3118683F36F
:105758001288BFF36F8F037BD9070BD586F31188A7
:10576800BFF36F8F404080F311884FF0040002DFD1
:10577800BDE8F081437B1A0704D586F31188BFF38F
:105788006F8FF5E723F0200242F00801D20920D1FB
:105798004173A36813B1204601F082F904F118009F
:1057A80001F03BFA4FF0000804F15807A56DBD421F
:1057B80000D0B5B90120FFF7EFFC104B9B68A3425E
:1057C800DBD1EFF30583002BD7D13046FCF780FE01
:1057D800D3E703F05F0343F00803437301F058F97C
:1057E800D7E7284601F05CF905F1180001F015FA31
:1057F8002846C5F87880FFF727FDD7E7B8080021C5
:1058080008B50648064A0749121A01F014F9BDE816
:105818000840054A0549064801F00DB90000002175
:1058280024010021D479000100000000D47900018E
:1058380000000021034B1B680BB9FEF715BB0020C5
:10584800704700BFE808002110B5114B1C689C4246
:105858000AD1FFF7EFFF6FF000400E4B1B6913B141
:105868009842A8BF184610BDFFF7E4FF002CF2D0FD
:10587800D4E904321B1A62EBE072B3F1004F72F103
:105888000001E8DA002AACBF18460020E5E700BFAF
:10589800B4000021B808002130B570B10B4B5B682B
:1058A80098420AD0036843B1D3E90421D0E90445FA
:1058B800121941EB0501C3E90421D0E90032136054
:1058C8005A600023C0E9003330BD00BFB400002196
:1058D800B3F1FF3F08BFB2F1FF3FF8B504461D46DC
:1058E800164661D081604FF02003EFF3118783F3F0
:1058F8001288BFF36F8F013275F1FF3324DA6FF02E
:1059080001032F49D1E900209B1A4FF0FF3262EBC7
:1059180000009E1B60EB0500012E70F1000301DA08
:1059280001260020C4E90460264ED6F800C0756838
:10593800B44508BF4FF0000CBCF1000F0DD1C4E90D
:1059480000652C6074601CE0FFF774FF013645F1B8
:105958000005361845EBE070E4E7DCE90420D4E9FB
:105968000431934271EB000E1FDAD21ADCF80430CE
:1059780060EB0100CCE90420C4E900C31C60CCF84A
:1059880004403368B3420BD09C4209D1FFF75CFF57
:1059980018B10D4B1B69834202D00021FEF734FA7F
:1059A80087F31188BFF36F8FF8BD9B1A61EB000175
:1059B800AC45C4E90431C2D0DCF800C0BCE700BF84
:1059C80008070021B4000021B80800212DE9F84398
:1059D8000446FFF7CFFC4FF02003EFF3118683F363
:1059E8001288BFF36F8F244FDFF89080D8F800003B
:1059F800234A40453C604FEAE471D2E9003E0BD0AF
:105A080050B1D0E9045CAC4271EB0C0917DA2D1BDC
:105A18006CEB010CC0E9045CE3184FF000044EEB9A
:105A28000101C2E900313C60FFF70EFF2146FEF795
:105A3800EBF986F31188BFF36F8FBDE8F883EB1895
:105A48004EEBE571C2E9003100220023C0E90423CE
:105A5800FFF722FF86F31188BFF36F8F836898479B
:105A68004FF02003EFF3118683F31288BFF36F8F93
:105A78003C68641BBAE700BFE8080021B4000021B5
:105A88000807002110B54FF02003EFF3118483F3CA
:105A98001288BFF36F8FFFF7CDFE0346054AD2E9A0
:105AA8000001181841EBE37184F31188BFF36F8F7D
:105AB80010BD00BF0807002170B504464FF0200351
:105AC800EFF3118583F31288BFF36F8FD0E90A32A1
