:10000000B880042009270000BB800000DD26000026
:10001000DD260000DD260000DD260000DD260000D4
:10002000000000000000000000000000512200005D
:10003000DD2600000000000009220000DD2600008F
:10004000CD220000CD220000CD220000CD220000F4
:10005000CD220000CD220000CD220000CD220000E4
:10006000CD220000CD220000CD220000CD220000D4
:10007000CD220000CD220000CD220000CD220000C4
:10008000CD220000CD220000CD220000CD220000B4
:10009000CD220000CD220000CD220000CD220000A4
:1000A000CD220000CD220000CD220000CD22000094
:1000B000CD220000CD220000CD220000CD22000084
:1000C000CD220000CD220000CD220000CD22000074
:1000D000CD220000CD220000CD220000CD22000064
:1000E000CD220000CD220000CD220000CD22000054
:1000F000CD220000CD220000CD220000CD22000044
:10010000CD220000CD220000CD220000CD22000033
:10011000CD220000CD220000CD220000CD22000023
:10012000CD220000CD220000CD220000CD22000013
:10013000CD220000CD220000CD220000CD22000003
:10014000CD220000CD220000CD220000CD220000F3
:04015000CD220000BC
:1001540053B94AB9002908BF00281CBF4FF0FF312A
:100164004FF0FF3000F00CB8ADF1080C6DE904CE8F
:1001740000F008F8DDF804E0DDE9022304B070477C
:10018400704700BF2DE9F04786468C460846089E16
:10019400154674461946002B40F0C1808542B2FAD8
:1001A40082F245D94AB1C2F1200300FA02FC95401B
:1001B40094402EFA03F343EA0C0C4FEA154EA8B20E
:1001C400230CBCFBFEF80EFB18CC08FB00F943EA39
:1001D4000C43994528D9EB1808F1FF3704D2994507
:1001E40002D9A8F102072B44A3EB0903A4B2B3FB81
:1001F400FEFC0EFB1C330CFB00F044EA0344A0425B
:1002040014D92C190CF1FF3304D2A04202D9ACF159
:1002140002032C44241A43EA07401EB1D4400023AD
:1002240034607360BDE8F0874746DDE76346F1E775
:1002340092BB431B01214FEA154EAFB2200CB3FB16
:10024400FEFC0EFB1C330CFB07F840EA0343984505
:1002540061D9EB180CF1FF3004D2984502D9ACF106
:1002640002002B44A3EB0803A4B2B3FBFEFC0EFB79
:100274001C330CFB07F744EA0344A7424DD92C195D
:100284000CF1FF3304D2A74202D9ACF102032C448F
:10029400E41B43EA0040C0E7C2F1200395409440C8
:1002A40020FA03F12EFA03F34FEA154E9040AFB251
:1002B4000343B1FBFEFC0EFB1C10190C0CFB07F8EE
:1002C40041EA0041884522D969180CF1FF3004D273
:1002D400884502D9ACF102002944A1EB08019BB284
:1002E400B1FBFEFC0EFB1C110CFB07F743EA0143B8
:1002F4009F420ED9EB180CF1FF3104D29F4202D970
:10030400ACF102012B44DB1B41EA004193E7604658
:10031400E3E76146F7E76046A4E76346B8E783424C
:1003240006D916B9002108467CE7C6E900E0F9E7DA
:10033400B3FA83F78FB9834201D3724508D8BEEB71
:10034400020460EB030301209C461EB9002169E707
:100354003846FAE7C6E9004CF8E7C7F1200CBB4081
:100364000EFA07F522FA0CF42EFA0CF1BA401C43EB
:1003740020FA0CF3B8404FEA144901431FFA84FEF3
:10038400B3FBF9F809FB18300B0C08FB0EFA43EA2F
:1003940000439A4540D9E31808F1FF3004D29A4546
:1003A40002D9A8F102002344A3EB0A0389B2B3FBE8
:1003B400F9F809FB183308FB0EFE41EA03418E45A8
:1003C4002CD9611808F1FF3304D28E4502D9A8F163
:1003D4000203214443EA0040A1EB0E01A0FB029872
:1003E4004145CE46434602D306D14D4504D2013899
:1003F400B9EB020E68EB0403002EA7D0B5EB0E0296
:1004040061EB030101FA0CFC22FA07F3F9404CEA10
:100414000303C6E9003199E74046C5E74346D9E7F7
:10042400F0B5374B374A4921C2F80036C2F80436D2
:10043400C2F80836C2F80C36C2F81036C2F81436C0
:10044400C2F81836C2F81C3602F58052C2F80036DB
:100454002D48C2F8043685B0C2F80836C2F80C3606
:10046400C2F81036C2F81436C2F81836C2F81C3670
:1004740007F099FD06F0FDFB01A800F059FE234B9F
:100484001B68834204D04521214807F08CFDFEE718
:10049400039A49211F4807F086FD49211E4807F0A9
:1004A40082FD4FF44041002003F052FF044620B186
:1004B40045211A4807F077FDFEE704F00DF8694678
:1004C4009DF8080000F02EF8009B039D1D44019B3D
:1004D4001E8901F089F8AF1901F06AF802F054F9A5
:1004E400AB5983F3088884F31488BFF36F8FBFF389
:1004F4006F8F7B6898474521094807F054FDFEE754
:100504003546526E0080015046960000402300207C
:100514005F96000082960000B1960000D696000017
:1005240009970000024608B538B105480023452163
:1005340007F039FD6FF0150008BD0860FCE700BF47
:100544002C9700002DE9F04FDFF8CCA1D9B038A8E2
:10055400DDE9644817461D46DAF8006000F0FCFF48
:100564003CB1B8F1000F04DD4246214638A807F03B
:10057400A2FB4FF000097B89B7F808809844FB6818
:100584009844C84521D838A90CA807F0BAFB669B43
:1005940023B1202218460CA907F0CBFD00232A46DC
:1005A400009339464FF6FF7306A806F063FB044632
:1005B40038B928460B9F06F02AFC87421BD94FF016
:1005C400FF34204659B0BDE8F08F639BA8EB090BBC
:1005D4009B4528BF9B4649465B462846629A07F0DE
:1005E400F0FC04460028ECD15A46629938A807F07A
:1005F40062FBD944C5E74FF0FF37DFF820910DF1D6
:10060400120304AA05A906A806F082FBB0F10008AB
:100614007FDB73D1BDF81230102B18D1BDF8104018
:10062400202CCCD123462846059938AA07F0C9FCCA
:10063400804600286DD1224638A90CA806F0E0FBBC
:100644000446374B1B688342BBD10124D7E7012BF7
:1006540033D1BDF81030202BB1D82846059938AADB
:1006640007F0AFFC8046002853D19DF810B0BBF1D1
:10067400200F03D94FF0FF384746C0E7D9F80030C0
:10068400284F0393039B9845F4DA1CA800F064FFF9
:100694007A681CA8126857F8081B07F00CFB1CA901
:1006A40014A807F02EFB5A4638A914A807F01AFD1F
:1006B4000028E1D008F10108E4E7222B9FD17B1C3C
:1006C4009DD0D9F80030BB4215DDBDF81030802B29
:1006D4003FF675AF2846059938AA07F072FC8046A4
:1006E400B8B9FFB22021BDF81030009738AA0CA881
:1006F40000F01AF806464FF0FF3780E73CB1084B8C
:100704001B68B34218BFDAF80060344659E74FF06B
:100714000108444655E700BF00200020F89000007F
:1007240040230020FC9000002DE9F04198B01746CA
:100734001D469DF87820374B0E4653F8321003EBD4
:10074400C2035B6803918046186804AA01443023FD
:1007540003A806F069FC002848D1DDE903431C44E2
:10076400214608AB05AA03A806F086FC00283DD163
:10077400069A072A3AD12849079807F0B3FC0028BB
:1007840034D1099A082A31D124490A9807F0AAFCDD
:1007940060BB214604AA03A806F05AFC30BBDDE97D
:1007A400033213449C4221D1412A1FD13D443023BA
:1007B400294605AA04A8049706F036FCB0B9DDE979
:1007C400043213449D4211D32A4604A908A806F012
:1007D400EBFA58B92A4604A910A806F0E5FA28B994
:1007E400202E03D1039C2378042B04D04FF0FF3038
:1007F40018B0BDE8F08100F0C1FD324600904146DA
:1008040008AB601C07F0F4F8013818BF4FF0FF3054
:10081400EEE700BFFC9000005B97000052970000D9
:100824002DE9F04F614B89B0044690F8B8000E46AC
:100834001D6806F007FA06A98046C0B201F0BEFAA8
:10084400002871D194F8B8703146384606F0FAF9A8
:100854004FF02C0907A9C0B209FB06F901F0AEFA62
:10086400002848D04FF0580B2C220BFB07F302FB57
:10087400063323441B6913F0100A51D1314694F80E
:10088400B80003F047FE0546012812D14FF48073E7
:100894001BFB07920193CDE903AA454BCDF808A0B1
:1008A40000935046069B94F8B8102244FFF74AFE82
:1008B400054658235F432C2303FB06773D4AE15941
:1008C4000698914204EB07030AD1DA681B899B1846
:1008D40006D28268934203D2374B1B68AB4229D0BD
:1008E40036B38268002107F096FB344A4521344828
:1008F40007F059FB14E0079807F0A8FB0546079892
:1009040007F05EFB582394F8B82002FB03932344BA
:100914005A1E033312F8011FA942A3D19342F9D1FD
:100924000125069807F04CFB284609B0BDE8F08F76
:10093400244ADBE794F8B830002B34D0012B0CBFE9
:100944000822FF229045ECD158225343E218176A3B
:10095400002207922C2202FB063323441989042324
:1009640007AA194407F02DFB0028D9D194F8B83010
:100974000799012B0BBF144AD7E901234FF0827367
:100984009B18914201D39942CBD945210F4807F0D6
:100994000AFB45210E4807F006FB069800218268F1
:1009A40007F039FBBCE70222CCE700BF002000209F
:1009B4006C4E00203DB8F396402300206B97000056
:1009C4007597000063970000008800019D97000060
:1009D400E69700002DE9F84F884691469A4600268E
:1009E400DFF88CB0234D244C0B9B9E4201D3002096
:1009F4000FE00B9B40469F1BB7F5806F28BF4FF459
:100A040080671B4A3B4606EB0A0107F0DAFA10B18D
:100A14000120BDE8F88F0A993B465A4648467118AA
:100A240007F0E4FA0028F3D1144BC5F800463E441D
:100A3400C5F80446C5F80846C5F80C46C5F810467E
:100A4400C5F81446C5F81846C5F81C46C3F8004650
:100A5400C3F80446C3F80846C3F80C46C3F8104666
:100A6400C3F81446C3F81846C3F81C46BCE700BFD5
:100A740044410020008001503546526E00900150E0
:100A84002DE9F04F4FF0000804460F46C1464FF0E1
:100A9400FF357D4BDFF8F4B11E6895B0B8F1010F56
:100AA40084F8B88008D9B9F1000F00F06C810020F7
:100AB4002C254FF05808E2E004EB080393F8B91032
:100AC400002949D14FF4F063582503FB08F305FBD3
:100AD40008426F4818185B4450621365404606F09C
:100AE400B1F894F8B810C0B205FB0141203101F00F
:100AF40065F90121404606F0A5F894F8B810C0B293
:100B040005FB01414C3101F059F90546204606F038
:100B1400B0F9804698B900222046114606F0D7F96C
:100B2400824600B3572194F8B8205A4807F03BFA9C
:100B3400012294F8B830234483F8B0200CE0F0226A
:100B44005721554807F02FFA012294F8B830904500
:100B5400234483F8B020DED194F8B88008F101086A
:100B64005FFA88F89AE7204600F0F2FA0028DFD00E
:100B74000AA806F0DBF906F0E2F98046C8B994F851
:100B8400B8302BB9002120460AAA06F0A0F9CFE715
:100B940094F8B020042A04BF012284F8B020012B69
:100BA400F0D094F8B130042BECD1012384F8B130A7
:100BB400E8E79DF82F30012B47D1582294F8B8303C
:100BC400CDF838A002FB0343344AD96AD86C914269
:100BD40011D094F8B80003F045FD831E022B824621
:100BE40007D801212046FFF71BFE2D4B1B689842B6
:100BF40028D1504608E0998E04230EAA194407F020
:100C0400E0F90028E5D0052094F8B830234483F8AF
:100C1400B00094F8B8306BB1E21892F8B020012A11
:100C24009AD0042A23D094F8B020042A02D10122B5
:100C340084F8B020234493F8B030023B022B98BFD1
:100C4400C14689E70128DED1DEE701212046FFF70E
:100C5400E7FD134B1B68984218BF052294F8B8307F
:100C640008BF9DF82F20234483F8B020D1E7C14664
:100C740072E7231893F8B920A2B10130C0B2012859
:100C840084F8B800F5D97DE000200020442300203A
:100C9400443200204F9800000D9800003DB8F396B0
:100CA4004023002093F8B09009F0FB09B9F1010941
:100CB40018BF4FF00109494605F0C4FF05A9C0B2A9
:100CC40001F07CF8002840F09F80012305FB09F91E
:100CD40094F8B810059A18FB01910093214440231D
:100CE4000EA805F0C7FF8146002840F08F8000233E
:100CF4000DF1120206A90EA806F00AF8002841DB3D
:100D0400059840F09080BDF812300C2B40F089809B
:100D1400069907AA07F055F9002840F08D809DF840
:100D24001C30012B00F28B80E21892F8B02008FBF3
:100D340003F3023A022A8CBF0022012205FB02338C
:100D44002344197D9DF820209142D0D80AD3597D9F
:100D54009DF821209142CAD804D3DA8ABDF8223002
:100D64009A42C4D294F8B8300598234493F8B0203A
:100D7400012A47D0023A012A02D8012283F8B0207E
:100D840007F01EF900254FF000084FF05809B8F19C
:100D9400010F84F8B88055D90023DFF80483012BB0
:100DA40084F8B83040F28681102200210AA807F0A6
:100DB400CBF90023022B40F09B81582684F8B830ED
:100DC40006FB0343186A05F052FF387194F8B82003
:100DD40006FB0242136A5B68BB6094F8B83003FBFD
:100DE40006433B60AE4B1E6800235827012B84F852
:100DF400B83040F28881002D14BF2846304615B023
:100E0400BDE8F08F0422B9E70598B9E7059807F023
:100E1400D7F8B9F1030FB5D140F20113A4F8B030FB
:100E2400B0E74FF00309059807F0CAF8B9F1000FCD
:100E3400EFD194F8B80020E74FF00109F3E74FF041
:100E44000709F0E704EB080292F8B930002B40F0F0
:100E54001F810AA806F06AF892F8B030042B8DF8C6
:100E64002F3008D8012B08D800F0C0804FF0FF3392
:100E740082F8B030BAE0052BF6E709FB08431946BF
:100E84004046DA6C2C3107F060FB0128054640F03F
:100E9400AD80014694F8B80005F0D4FE07A9C0B2AD
:100EA40000F08CFF002800F0AD800025079807F0C3
:100EB40087F849217B4807F076F849217A4807F0FA
:100EC40072F894F8B80007A9002800F0D980012826
:100ED40000F0D280FF2000F071FFFF204FF00008E7
:100EE4004FF0580BC2460EA900F068FF94F8B830D2
:100EF4000BFB03439B6A534519D094F8B820414631
:100F04000BFB0242526A079802EBCA02526803932F
:100F1400029207F080F8029A039B9044A845C0F01F
:100F2400B480D4F8B430B5FBF3F503FB0538D4F83A
:100F3400B40005F067FF582394F8B82003FB02427D
:100F4400536A926A1968013A03EBC20300225D688E
:100F54009C462A449042A3F10803F8D8DCF80030F8
:100F64000798591A07F057F8424649214F4807F0A5
:100F74001AF800232046079A0E99CDF804800093AE
:100F8400FFF728FD054688BB079803F0F5FA0546E8
:100F940060BB4FF0580A94F8B80042460AFB00437D
:100FA400196A07F0E0FA054600BB94F8B830014628
:100FB4000AFB03431B6D0E985A6807F02CF894F84B
:100FC400B8300AFB0343D3E91423013B52F833102E
:100FD40002EBC30013684268C91A0E9807F01BF8A5
:100FE400079806F0EDFF0E9806F0EAFF94F8B83083
:100FF400234493F8B030FF2B4AD145212C4806F006
:10100400D2FFFEE794F8B830079809FB0343B3F81E
:1010140034809B6B0EAA98444146042306F0D1FF0A
:1010240000287FF442AF94F8B830BDF8382009FBAB
:101034000343DD8E46F608139A42079819D1BDF88A
:101044003A309D427FF431AF04230EAA05EB080128
:1010540006F0B7FF00287FF428AF46F60713BDF863
:1010640038209A427FF421AFBDF83A301D444544FC
:101074001CE7002DF1D018E700F0A0FE08202DE7B2
:10108400042000F09BFE022028E70AF1010A32E75F
:1010940094F8B88008F101085FFA88F877E600BF91
:1010A400402300207B980000AD980000CB980000FE
:1010B4000C990000234493F8B910A1B993F8B03007
:1010C400012B07D020460AAA05F001FF0546002897
:1010D4007FF48AAE00212046FFF7A2FBD8F8006017
:1010E400B0420ED1002594F8B8300133DBB256E695
:1010F400E21892F8B920002A3FF45FAE0133DBB264
:1011040058E6064670E6E21892F8B9205AB907FB89
:101114000343D86C06F054FF94F8B83007FB03433C
:10112400186A06F04DFF94F8B8300133DBB25DE67F
:1011340038B5064D0446BC220021284607F004F8C1
:1011440021462846FFF79CFC38BD00BF44450020DB
:101154005822F8B590F8B83002FB0300D0F828C044
:10116400466DBCF1F00F01D8F02E36D957211F4837
:1011740006F019FF0020F8BDA54216D1476A07EB17
:10118400C2077F6801323D44076D07EBC3077F68E0
:1011940001333C449445EFD89E42EDD8944501D1A7
:1011A4009E4220D057211248E2E70CD2476A022916
:1011B40007EBC2077F683D4402D157210D48D7E7AA
:1011C40001210132E6E7076D012907EBC3077F68B8
:1011D4003C44F2D002210133DCE700210B460A46ED
:1011E4000C460D46D6E70120C5E700BF189900005C
:1011F4007E990000479900000822F0B589B006F0F6
:1012040077F8CB6A002703930B6B0C4604934B6B64
:10121400064605938B6BCDE901770693CB6B00975C
:10122400079313466A461146104605F06FFF314690
:101234000546304605F06AFF216B05440391616B56
:1012440010460491A16B0591E16BCDE90617114697
:1012540005F05CFF31460544304605F057FF054470
:10126400206ACDE904770090606A03970190A06A30
:101274000290A06B0690E06B0790304605F046FFA5
:101284000544606AD4F838C00090A06ACDF810C054
:101294000190E06AD4F83CC00290606BCDE905C0CF
:1012A4000390206A0790304605F030FF0544E06A59
:1012B400CDE904770090206B03970190606B029056
:1012C400206A0690A06A0790304606F044F8236B23
:1012D4002D1A0093636B30460193A36B0293E36B67
:1012E4000393636A0693E36A0793082306F033F8CB
:1012F400636B2D1A0093A36B30460193E36B029347
:10130400236A0393636A0493A36ACDE90537236BC5
:101314000793082306F01FF8A36B2D1A0093E36BC1
:101324003046CDE90137636A0393A36A0493E36A01
:101334000593636B0793082306F00DF82D1A10D458
:101344000D4C35B908223146204605F0DDFF012851
:101354000FD0082322463146304605F0FCFF2D1AF3
:10136400EFE7054A08233146304605F0CFFE2D1835
:10137400F8D409B0F0BD00BF0891000000487047E0
:10138400049100002DE9F04F002703689DB00293FB
:101394004368DFF8BCA103938368DDE90246049344
:1013A400C36805930369DDE904BE069343690793A3
:1013B4008369DDE9062C0893C36998460993089B61
:1013C4000093CD590CAB2DBA5AF8049BDD514FEA6A
:1013D400F223A94483EAB213009D83EA72634B4467
:1013E40025EA020502EA0C0985EA09052B4443446F
:1013F40086EA0B054FEA743888EAB408254006EA01
:101404000B0985EA090588EAB4580437A844402F33
:1014140003EB0E054344DE46DDF8008040F088808F
:101424004FF0100A4B490A9151460AF1010A0DF195
:10143400700E0AF00F070EEB870757F8407C01F097
:101444000F094FEAB748019788EAF71801F10E0728
:1014540007F00F070EEB870757F8407C09314FEA76
:10146400F74E8EEA774ECDF82CE001F00F010DF126
:10147400700E0EEB81010EEB890959F840EC51F81E
:10148400401CBAF1400F7144DDF804E088EADE083C
:10149400DDF82CE041448EEA972E714405EA0208F7
:1014A4004FEAF52E2CEA050787EA08078EEAB51EEF
:1014B400DDF828808EEA756E774458F804EF49F811
:1014C400401C77440F4400994FEA733E394484EA40
:1014D4000607CDF828808EEAB30E07EA030704EA6C
:1014E40006088EEAB35E87EA080777440F4401EBE7
:1014F4000B0ECDF800C0B34622D1029939440160E5
:1015040003991944049B416023448360059B33443D
:10151400C360069B73440361079B2B444361089B90
:1015240013448361099B6344C3611DB0BDE8F08F1C
:10153400B346CDF800C0264694461C462A4640E7EA
:10154400944626462A461C4675463B466CE700BF31
:10155400B4910000F091000010B50446C8B17022A7
:10156400002106F02BFC0B4B0B4A0C49C4E9002369
:101574000B4B0C48C4E902130B4BC4E904030120D0
:101584000A4BA36103F17453A3F52303A3F6924317
:10159400E36110BD85AE67BB67E6096A72F36E3C12
:1015A4003AF54FA57F520E518C68059BABD9831F2A
:1015B400BFF36F8F72B600234FF0FF30094A03F177
:1015C40020010133102B42F82100F8D100234FF001
:1015D400FF30044A03F160010133102B42F821006B
:1015E400F8D1704700E100E038B501224FF0FF3434
:1015F40000251A4B29465A60C3F84843C3F80843E8
:1016040003F580535A60C3F84843C3F80843A3F56D
:101614005043C3F800558022C3F80843104806F02D
:1016240093FD802229460F4806F08EFD0E4B802242
:10163400C3F800552946C3F808430C4806F084FD56
:10164400802229460A4806F07FFD0A4BC3F8084564
:101654004FF05023C3F8084338BD00BF0040015089
:101664008080005080810050009000508090005095
:101674008091005000700150014B1B68184700BF57
:1016840004200020014B1860704700BF0420002094
:1016940007B50B46002102460091034800F014F9F7
:1016A40003B05DF804FB00BF7D1600002DE9F04790
:1016B400058B04462807904611D4022905F0070536
:1016C40040F0CD80204606F094FB78B10138218BA0
:1016D400042811D8DFE800F0C3106D8595000129B6
:1016E4000CBF45F0100545F02005258388F31188CB
:1016F400BFF36F8FBDE8F08701F0070AAA4500F039
:10170400A6800027B9463E46A368002B00F0BD80A2
:1017140041F00801218388F31188BFF36F8FA1681A
:10172400002900F0BB800D68002900F0B780334623
:1017340052462046D1F80480C047002D76D02B684D
:1017440029461D46F0E701F007035A1F012A1BD85A
:10175400002221F00701062B276889B2C4E9002280
:1017640009D13B4603E0628B013262831B68002B84
:10177400F9D141F002012046218306F03AFB00280A
:101784007BD041F0200177E0042B0AD121F007013E
:1017940089B22046218306F02CFB10B141F02001D0
:1017A4002183218B01F0070AAA4550D00027B946AE
:1017B400AAE7236921F0070141F00601062DD3F8B9
:1017C400009021832DD1B9F1000F40D041F00801E0
:1017D400218388F31188BFF36F8F20463949C847A6
:1017E40029E021F00701236941F0040189B2042DA5
:1017F400D3F804902183E6D000274FF0040A3E4634
:1018040082E721F00701236941F0050189B2052D22
:10181400D3F808902183D6D000274FF0050A3E461E
:1018240072E700274FF0060A3E466DE72B4687E72E
:10183400B9F1000FD1D14FF02003EFF3118883F3F6
:101844001288BFF36F8F238B23F008032383258B28
:10185400EA062ED525F01003238305F007056669F3
:10186400218B002EBFF66FAF00232768C4E9003335
:1018740021F0070141F001012183218B4FF0000980
:1018840001F0070AAA457FF43FAF002F9BD041F037
:101894000801218388F31188BFF36F8F002FC7D00D
:1018A4003D68394633465246204606F0CEFA2F4666
:1018B400F4E7AB067FF51AAF25F02003238305F088
:1018C4000705FFE67B7E00002DE9F04F82464FF0CE
:1018D40000098DB01D46531E01910393039B587854
:1018E4005C1C252819D100204FF0FF381E464446C1
:1018F40003460236029031780396392955D81F29B8
:1019040014D8002900F0F18101992520D0470199CC
:101914003078D04709F10209E0E7002800F0E581BA
:101924000199D04709F101090394D7E7A1F12002F5
:10193400192AE9D801A757F822F000BFA919000015
:101944000D1900000D190000A91900000D1900005F
:10195400291A00000D1900000D1900000D190000CE
:101964000D190000751A0000A91900000D190000D6
:10197400891A0000351A00000D190000431A0000EE
:10198400631A0000631A0000631A0000631A00005F
:10199400631A0000631A0000631A0000631A00004F
:1019A400631A000008460136A5E7582900F0EE80C6
:1019B400A1F16302D7B2172FA6D8172AA4D801A77A
:1019C40057F822F0371C0000AF1A00000D19000070
:1019D4000D1900000D1900008F1A0000AF1A000045
:1019E4000D1900000D1900008F1A00000D190000D8
:1019F4000D1900000D1900006B1B00000D190000EB
:101A04000D1900000B1C00000D190000AF1A000096
:101A14000D1900000D1900006B1B00000D190000CA
:101A24008F1A000025200199D04709F1010955E7D3
:101A3400029A4FF0000802F0FE020292B3E7002C73
:101A44000DDAB8F1000F0DDA029A002A00F0458190
:101A54000A2224EAE47402FB0414303CA3E7B8F13C
:101A6400000FF5DB0A2202FB0812A2F130089AE704
:101A7400B8F1000F55F8042B80F23181002A80F26E
:101A840030815442022202928DE7682903D1682BE7
:101A940006D1482387E76C2902D16C2B00F02381FF
:101AA400002B7FF431AF0B467DE77A2B06D17529E5
:101AB40055F8046B14D14FF0000B0CE06C2BF6D0EE
:101AC4004C2BF4D1073525F00703752903F10805DC
:101AD400D3E9006B06D120283ED1864F013C09E0B2
:101AE4004FEAE67BBBF1000FF5DA7642824F6BEBEF
:101AF4004B0B013C0DF12D03059300230493304659
:101B040059460A220023FEF723FB049B303203F1DB
:101B1400FF3CCDF810C0DDF814C00CF8012DCDF851
:101B240014C0B4465A46BCF10A0F72F100020646CC
:101B34008B46E4D2C3F1010B30330DEB0306B8F14D
:101B4400000FA6F104066DDA029BD9077CD4A8EB3A
:101B54000B03A4EB0B0413E02B280ABF674F684F59
:101B640004F1FF34C6E770290FD155F8042B002384
:101B7400FAB96FF004034FF0050B624E053C604F59
:101B8400029A92076FD4A04665E078216C2B03D1AA
:101B9400002355F8042B08E04C2BF9D1073525F028
:101BA40007031D465B6855F8082B232825D18806B2
:101BB40021D5554F023C002601F06001A1F1390BFB
:101BC4000DF12D0E02F00F01092988BF594430315F
:101BD4000EF8011D102A4FEA121141EA03714FEA6F
:101BE400131073F1000306F1FF3C08D2C6F1010B98
:101BF40006F13003A1E7454FDCE7414FDBE76646DA
:101C04000A460346DEE755F8046B304606F063FAED
:101C1400B8F1000F834602DB4045A8BFC3464FF02E
:101C24000008374FA8EB0B03002B92DDA4EB08044C
:101C3400A6E755F8043B4FF0010B8DF81830013C32
:101C44004FF0FF3306AE9AE7A046EBE7029320205D
:101C54000199D047029BB8F10108F7D524EAE47250
:101C6400013C9144A41AB84606E0049302920199F7
:101C7400D047029A049B9046424612F8010B002872
:101C8400F3D11A46013A15D5002BACBFC7EB0307B5
:101C94007F425B46013B15D5BBF1000FA8BF5F44F3
:101CA40026464F44013E14D5002CA8BF3F1907EB2C
:101CB400080913E60493029230200199D047049B4B
:101CC400029ADFE70293019916F8010BD047029BB1
:101CD400E0E701992020D047E4E70122D3E69046CB
:101CE40061E614465FE64C235DE648460DB0BDE868
:101CF400F08F00BF439E0000189A00001A9A00005B
:101D0400B5A40000229A00001C9A00001F9A00004B
:101D140008B54FF02002EFF3118382F31288BFF36A
:101D24006F8F00F01FFD034806F04CF800F0A2F995
:101D3400FCE700BF289A0000054B03EB8000D0F8B5
:101D4400003223F0E04343F04053C0F800327047C0
:101D54000025845008B54FF02003EFF3118183F37D
:101D64001288BFF36F8F01220220094BC3F80025AC
:101D740003F54053C3F8D0060020FFF7DDFF1046FB
:101D8400FFF7DAFF81F31188BFF36F8F002008BDDE
:101D94000010005048B1054B054A1B68B3FBF2F331
:101DA4005843044B43F00103184770479020002028
:101DB40040420F00F090000002F008BD70B5114BD6
:101DC4000D461C68DCB1104B196800238B4202DB02
:101DD4006FF0010070BD224612F8106B864202D0EB
:101DE40014460133F2E7E06810B96FF01200F1E72E
:101DF40006F0DEFD0028F8D000202C60EAE76FF042
:101E04000C00E7E708200020B892000070B588B005
:101E140005460C46C0B269461646FFF7CFFF0028B8
:101E24001BDB0098C8B1436822680293836801955C
:101E3400CDE903360023CDE906230593C56806F0F2
:101E4400BFF86DB12846084901AA06F0C7FA0798F9
:101E540008B9059B236008B070BD6FF01500FAE760
:101E64006FF01200F7E700BF5F800000014804F044
:101E74009DBD00BF6C93000038B5044618B90F4BE4
:101E84000F485B6898476168B1F5683F0FD0B1F5BA
:101E9400680F0CD00B4DA94209D011F4686107D02A
:101EA4002146094806F0B7FD00232360656038BD6C
:101EB4001422206806F048F9F8E700BF1C2100202E
:101EC400559A00002C5F5CA9004B002008B560B354
:101ED4004368B3F5683F0ED0B3F5680F18D0144AC1
:101EE400934220D000684FF0FF324FF0FF3303F0ED
:101EF400AFFE58B115E001220368D3E8EF1F0029B3
:101F040003D1C3E8E02F0028F7D10AD1002008BD8F
:101F14000368084A1B7803F5807352F82330002BBA
:101F2400F4D00548F3E70548F1E76FF4E040EEE745
:101F34002C5F5CA900000350E98FFFFFEA8FFFFFCD
:101F440008B520B34368B3F5683F09D0B3F5680F0B
:101F540013D0114A93421DD0006803F0F3FE14E03D
:101F640000220368D3E8EF1F012903D1C3E8E02F5F
:101F74000028F7D109D0094808BD00210368084AA0
:101F84001B7803F5807342F823100020F4E76FF404
:101F9400E040F1E70348EFE72C5F5CA9E98FFFFF1E
:101FA40000000350EA8FFFFF10B5044618B91D4B1B
:101FB4001D485B6898476368B3F5683F2FD0B3F555
:101FC400680F2CD0194A934219D1236803BB4FF0F0
:101FD400FF324FF0FF332146154803F07FFD08B967
:101FE40023681BB90F4B13485B68984714220021E0
:101FF400206806F0A9F84FF46863636008E0B3F55D
:10200400683F0DD83A2B03D040F6BA629342DED132
:10201400206806F045FD636843F03A03636010BD31
:10202400054AF3E71C210020559A00002C5F5CA9A7
:10203400004B00207B9A00003A00003A08B506499C
:1020440040231422054806F0D8FCBDE808400449A2
:10205400044804F01DBD00BF00460020004B0020D2
:102064007493000088930000014910220A607047AD
:1020740010ED00E072B6404080F31188BFF36F8F1B
:10208400BFF34F8F30BF62B6BFF36F8F704700BF8F
:1020940072B6494081F31188BFF34F8F20BF80F39C
:1020A400118862B6704700BF37B505460C46C9B102
:1020B4008B6810480093D1E90023452105F073FF94
:1020C400636945210093D4E903230B4805F06BFFB2
:1020D4004521E269094805F066FF4521A2690848DF
:1020E40005F061FF2146284603B0BDE8304003F007
:1020F400AFBB00BFA89A0000DC9A0000109B000050
:10210400249B000040B2002807DB01234109034A55
:1021140000F01F00834042F82130704700E100E0E6
:1021240040B200280CDB01220649430900F01F00DD
:102134008240203341F82320BFF34F8FBFF36F8FCA
:10214400704700BF00E100E0054B420953F822202C
:10215400012300F01F0003FA00F01040704700BF95
:1021640000E100E040B2002801F10101ACBF00F140
:102174006040064B4FEA4111C9B2ABBF00F5614064
:1021840000F00F0080F800131954704714ED00E0BC
:1021940030BFFFF7FDBF00BF0B4A08B50B4B22F061
:1021A4007F029A60BFF34F8FBFF36F8FD3F88820FD
:1021B40022F47002C3F8882003F0D4FB04F08EF9F3
:1021C40000F094FA03F00EFC0000000000ED00E0C3
:1021D400094A0A49936809685867996708494B6826
:1021E40043F080534B60002383F31188BFF36F8F58
:1021F4009368986F704700BF604C0020649500009E
:1022040000ED00E00F498A684FF030001044EFF30E
:10221400098C80E8F01F202080F31288BFF36F8FB1
:10222400094F4FF000668A698A603E60506F002350
:10223400536780F3118802F1300090E8F01F8CF3AB
:1022440009887047604C002004ED00E01EF0040F84
:102254000CBFEFF30880EFF30980816911F8021CC9
:102264000229FFD001B505F01EFF01BD42F8203C54
:10227400009B0B4942F81C3C019B21F0010142F8F0
:10228400183C029B42F8081C42F8143C4FF080733F
:1022940042F8043C0023203A02654367704700BFBC
:1022A400E37D0000074B9860104681F30988002104
:1022B40063B681F31188BFF36F8F0022002305F00A
:1022C4008EFD00BF604C002001B5EFF30580A0F146
:1022D40010004FEAC0000449014409C99847BDE809
:1022E4000140024908470000208E0000F52200004A
:1022F400044B99689869884203D003494FF080528F
:102304000A607047604C002004ED00E010B5204CDA
:102314004521204805F047FEA36A990103D54521CC
:102324001D4805F040FEA36ADA0103D545211B4888
:1023340005F039FE164CA36ADB0203D54521184883
:1023440005F031FEA36A180303D54521154805F0AD
:102354002AFE0F4CA36A590303D54521124805F000
:1023640022FEA36A9A0303D54521104805F01BFEFB
:10237400074CA36ADB0303D545210D4805F013FE82
:10238400A36A00206FEA03436FEA1343A36210BDFC
:1023940000ED00E0579B0000749B00008C9B000044
:1023A400AB9B0000DA9B0000FD9B0000279C000013
:1023B400469C000070B5234C06460D462248452134
:1023C40005F0F1FDA36AD90403D545211F4805F0A2
:1023D400EAFDA36A1A0503D545211D4805F0E3FD6E
:1023E400184CA36A9B0510D51A48452105F0DBFD5E
:1023F400A26BA36A180408D54521174805F0D3FD3C
:102404001EB1A36A23F40043A3620E4CA36A5905C8
:1024140003D54521114805F0C6FDA36ADA050BD59D
:1024240045210F4805F0BFFD0020064A936A43F496
:102434007F439362287070BDA36A9B04F4D5452141
:102444000848EFE700ED00E0769C0000919C000056
:10245400A79C0000BF9C0000DD9C0000F79C0000CE
:10246400179D0000349D000070B5264C06460D46AD
:102474002548452105F097FDA36AD80603D54521D3
:10248400224805F090FDA36A190703D54521204889
:1024940005F089FD1B4CA36A9A0710D545211D48F8
:1024A40005F081FD626BA36A1B0608D545211A4815
:1024B40005F079FD1EB1A36A23F08003A362114CD9
:1024C400A36ADE0703D54521144805F06CFDA36A11
:1024D400980603D54521124805F065FD0020094BF7
:1024E4009A6AD10658BF9A6A9A6A920642BF5A6A91
:1024F40022F400525A629A6A42F0FF029A622870E9
:1025040070BD00BF00ED00E0689D0000839D0000E9
:10251400A79C0000BB9D0000D89D0000F39D000017
:10252400349D00002DE9F0415C4B05465F680026B0
:102534008AB0C7F3080486F31188BFF36F8F02F0E3
:102544007F43B3F17F4F07D102F00C03082B14D162
:102554004521534805F027FD002635464FF0000875
:10256400E31E8DF80780092B00F28680DFE803F074
:102574000A797D7584848484848110074CBF0D4658
:102584000126EBE745214748444C05F00CFD8DF846
:102594000780E36A9A0705D54521434805F003FD02
:1025A400002432E0E36A002B02DA45213F48F5E7D4
:1025B400E36A5B00F4D545213D4805F0F4FC63690A
:1025C400AA6943F480736361BFF34F8FBFF36F8FC6
:1025D400636932F8022C23F480736361BFF34F8F75
:1025E400BFF36F8F4DF602739A4208D0A36ADBB231
:1025F4002BB301200DF10701FFF736FF2FE0452132
:102604002A682C4805F0CFFC2C689DF807309BB94C
:102614002022294602A805F08CFD099B002E38D003
:10262400C3F3080222B96FEA53236FEA43230993E1
:10263400204602A9FFF738FD0AB0BDE8F081A36A7D
:1026440013F47F4F05D001200DF10701FFF7B2FE0F
:1026540005E0A36AB3F5803FA2D3FFF757FE044613
:10266400D3E700200DF10701C6E700200DF10701B3
:10267400ECE74521104891E7104917F4F87F104A18
:10268400104808BF0A46A4F11003452105F08BFC4D
:1026940086E723F4FF7323F00103C8E700ED00E0AD
:1026A400459E0000759E0000919E0000B79E0000AC
:1026B400CA9E0000EE9E00000F9F0000179E0000BF
:1026C4002C9E0000389F0000024A536943F0100317
:1026D4005361704700ED00E0EFF30880EFF30981E8
:1026E40001B57246FFF71EFF01BD00BF0023202184
:1026F4000348C2180133452B82F80013F9D17047FF
:1027040000E100E0002080F31488BFF36F8F002005
:1027140080F30A8880F30B88FFF74EFB00200E49F4
:102724000860BFF34F8F0D4880F3088800F03EF82F
:10273400202080F311880A484FF40061401880F388
:102744000988EFF314800221084380F31488BFF34F
:102754006F8FFFF721FD000094ED00E0B8800420A6
:10276400784F0420BFF34F8F0549064BCA6802F423
:10277400E0621343CB60BFF34F8F00BFFDE700BFA0
:1027840000ED00E00400FA05002318460649D1F8DC
:102794009020C2F30722934200DB7047C1F89830BF
:1027A400C1F8A0000133F6E700ED00E010B572B601
:1027B400002484F31388FFF7E7FF23464FF0FF302C
:1027C4000C4A03F120010133102B42F82100F8D107
:1027D40000234FF0FF30074A03F160010133102B4F
:1027E40042F82100F8D162B6BFF34F8FBFF36F8F69
:1027F40010BD00BF00E100E0084B9B6883420BD191
:10280400EFF3058343B1064B5A6842F080525A6095
:102814005A6A22F400425A6203F000BE604C00205F
:1028240000ED00E01FB5094C094A2346012109487F
:1028340000F024F900230393074B0121E41A01A8B3
:102844000193029400F024F904B010BD00000720A5
:1028540000200020989300001822002010B50C7A64
:102864000B6804F01F0223F01F031A43CB686409AA
:1028740023F01F03054943EA440343F00103C1F86D
:102884009800C1F89C20C1F8A03010BD00ED00E014
:1028940030B50C684B6885B00A894D890094013BBA
:1028A40024F01F04234402F01F0242EA451223F0DD
:1028B4001F03072804468DF80820039309D902460C
:1028C4004521064805F06FFB6FF01504204605B05E
:1028D40030BD6946FFF7C2FFF8E700BF549F000010
:1028E4002DE9F04F8946144606464FF00008544D32
:1028F40085B0C84527DAD6F804A0BAF1000F44D051
:10290400BAF11F0F18D91AF01F0F15D1D6F800B05D
:102914001BF01F0F10D1584605F0D4FB07460AEBF5
:102924000B00013805F0CEFB874210D06FF015077D
:102934003A464521434802E042464521424805F0D3
:1029440032FB6FF01504204605B0BDE8F08F17F197
:10295400160FEDD0BC42EBDDC5F89870D5F89C108D
:10296400C5F89870D5F8A03021F01F0143F01F0B73
:10297400D6E900321A44994202F1FF3A1DD1D345F7
:1029840007D13146F8B2FFF783FF08F101080C368E
:10299400AFE73146C5F89870D5F89C3022F01F0295
:1029A40003F01F031343C5F89C30E0B2FFF770FF38
:1029B40010F1160FC5D0441CE7E7C5F89870D5F898
:1029C400A020013B23F01F0302F01F021343D34551
:1029D4003146E0B2C5F8A030E8D0FFF759FF10F156
:1029E400160FAED0C5F89870D5F89C209DF8083025
:1029F4000BF1FF3B62F304038DF80830D5F8A030E7
:102A04009DF808205B0863F34712D6E900310B44B4
:102A1400009323F01F0301305B44A3EB0A03C0B20D
:102A240023F01F0307288DF80820039303D90246D7
:102A34004521064883E76946FFF710FFBBE700BF5F
:102A440000ED00E0A79F00007F9F0000549F00005E
:102A54000522044BC3F89420BFF34F8FBFF36F8F4D
:102A6400704700BF00ED00E0BFF35F8F0022024B10
:102A7400C3F89420704700BF00ED00E010B5034C8C
:102A84002278FFF72DFF207010BD00BF6C4F00208F
:102A94002DE9F74F294D8A4606464FF00008AB460C
:102AA400274FD0451BDAD6F80490B9F1000F3FD078
:102AB40031680846019105F005FB0199044609EBCC
:102AC4000100013805F0FEFA84424FF014021D4B58
:102AD40008D002FB08F36FF015024BF8032003B093
:102AE400BDE8F08F14F1160F2C60F8D01978A142CC
:102AF400F5DD02FB08B0C7F89840C7F89840D7F84E
:102B04009C4000F10801007B64F304000871D7F8CD
:102B1400A0000C79400860F347140C71D7F89C109E
:102B240021F01F016960D7F8A01021F01F0129616D
:102B340008F1010814350C36B3E700BF1C4B002024
:102B440000ED00E06C4F002038B50E4D2C68082CC9
:102B540015D80020FFF788FF0B4B0C4AC3F8C020A0
:102B6400844205D10A4B00201C70FFF771FF38BD69
:102B7400696801EB0011FFF771FE0130F0E74FF0D7
:102B8400FF30F4E7A493000000ED00E0AAFF440046
:102B94006C4F0020014B1860704700BF2C200020B0
:102BA400084B70B5C31A0D4607499B100446594398
:102BB4004022064805F0F0FA2B4601462046BDE8BF
:102BC40070401847444B0020B76DDBB6788D000089
:102BD400402373B50B4C0093041B0B460D460A4966
:102BE400A41061430646094A094805F001FB011E89
:102BF40005DA30462B4602B0BDE87040184702B0F3
:102C040070BD00BF444B0020B76DDBB65F8200008F
:102C1400788D00002DE9F8430022012106460520A5
:102C2400FFF7A0FA114801F0BDFE114B984219D1EB
:102C340005F0CDFD00244FF01C090C27DFF834808B
:102C44003569414609FB045005F023F9002807DBE8
:102C5400012307FB04551C44042CAB67F0D100206E
:102C6400BDE8F8836FF00400FAE700BFB12C000060
:102C74000000AD0BCC93000001460C23002270B57C
:102C84004B430848C4187833D4E91C5618442267C7
:102C940005F06FFA2DB132462B46BDE8704002486C
:102CA400184770BD444B0020788D0000052811D8CA
:102CB400DFE800F0030E10100C0A074B986F10F0B9
:102CC400070007D1FFF7D8BF0220FBE70320F9E78D
:102CD4000120F7E7704700BF444B002008B54FF0D0
:102CE4002003EFF3118183F31288BFF36F8F124A2D
:102CF400136843F002001060DA0708D481F31188E6
:102D0400BFF36F8FBDE80840012005F072BD4FF09E
:102D14005023D3F80C24D3F80C34D307EED507484A
:102D240005F027FA81F31188BFF36F8FBDE80840DF
:102D34000020FFF7A1BF00BFE44B0020BC4B0020E4
:102D44001FB500220123CDE902236B46084ACDF8C2
:102D540000D0CDF804D005F079FA002805DB4FF453
:102D640080420023684603F049F805B05DF804FB8F
:102D74009582000010B54FF02003EFF3118483F324
:102D84001288BFF36F8F074A136823F00201DB0731
:102D9400116002D4012005F087FD84F31188BFF38C
:102DA4006F8F10BDE44B0020F8B50122064626497A
:102DB400D1E8EF3FC1E8E02F0028F9D133B9234926
:102DC40023484B60CB608A6005F076F8731E012BB4
:102DD4001FD805F049FE0446E0B91E4B1B78CBB161
:102DE4004FF0502302220546C3F808234FF0502722
:102DF400D7F81834D7F81824D20315D503F00303F1
:102E0400012B01D0012E0FD1C4B185F31188BFF37A
:102E14006F8FF8BD4FF02003EFF3118583F3128811
:102E2400BFF36F8F0124E1E71CB12846FFF730F9A7
:102E3400DEE70021212003F0D1FAD9E74FF0502337
:102E44000222C3F80423E4E7404B0020304B002067
:102E5400604B0020704F042008B5074805F0A8FD1A
:102E640038B10648FFF796FE0448FEF70BFC002035
:102E740008BD6FF01200FBE7C08D0000852E000036
:102E84000A2838B50446074D04D1AB680D212846FD
:102E94005B689847AB6803485B68E1B29847204693
:102EA40038BD00BFC08D000030B5406801F01F047C
:102EB400057BB2F5001F85B044EA451405D12046D0
:102EC40002F014F8002005B030BD0025B2F5800FE3
:102ED400CDE9025514D1B3F1007F0CBF04230523BF
:102EE4008DF8083000232046194602AA01F03CFE62
:102EF4001F4B984238D10121204601F0B1FFE1E790
:102F0400B3F1C06F25D0B3F1007F14BF01230223B6
:102F14008DF808308368CB40D907E3D4B2F1A07FA1
:102F2400E0D1144A14486109012908BF024604F09B
:102F34001F03803352F82330DB07D3D40DF1070588
:102F44002946204601F038FF0C4B984203D00395E4
:102F5400C8E70323DCE7284601F07CFF044B9842D2
:102F6400F5D06FF00B00AEE76FF01500ABE700BFD4
:102F74000000AD0B00258450002884500400AD0BE4
:102F840010B501F057FF044668B901F02BFF084B58
:102F940098420AD12146074801F008FF224605213C
:102FA4000D20FFF7DFF8002010BD6FF00400FBE7F1
:102FB4000000AD0BBD2F00004209034670B502D0DE
:102FC400012A17D070BD0D4E326951680029F9D01D
:102FD400012503F01F030C689D400029F2D08A6884
:102FE4002A4002D030464B6898472CB123682146CA
:102FF4001C46F2E7024EE7E72346F8E7A88D0000F7
:10300400908D00002DE9FF41476801F01F053B7BCF
:10301400144645EA43150E4628460DF1030101F016
:10302400CBFE14F4403F80460BD1284601F086FFC6
:103034003C4B984503D19DF8030001F005FF0020A7
:103044000CE000232846194602AACDE9023301F018
:103054008BFD344B984204D06FF0150004B0BDE8EA
:10306400F081804503D19DF8030001F0EDFEA30338
:1030740049D540F206332340B3F5837F19D00CD8E9
:10308400062B17D004D8ABB1022BE5D1042311E0F1
:10309400B3F5807FE0D101230CE040F20222934299
:1030A40026D0B3F5407F25D0B3F5007FD4D10223D9
:1030B40000E007238DF8043084F48033C3F3004325
:1030C400E0068DF805304CBF0323C4F340132103FD
:1030D4008DF8063010D501237A68B340936000223E
:1030E400284601A901F0EEFD0E4B9842A7D0B3E7A4
:1030F4000523DFE70323DDE7620341BF01237A6889
:10310400B340D360EBE7E3064FF000034CBF032466
:10311400C4F340141A46284601A98DF8044001F06E
:1031240023FDE1E70000AD0B00F1744000F5A600BB
:103134000A289ABF024B33F910006FF00F00704752
:1031440020960000024B0B6001231360704700BF00
:10315400D49400000048704768940000054B9942DD
:1031640006D14FF0FF324FF0FF33203002F046BE5D
:10317400704700BF0000AD0B70B5056904460F4EE3
:10318400284605F0DDF805F1300005F0D1F8337874
:103194008BB92A460A49606802F06AF9FFF7C4FF4E
:1031A400B0FA80F305465B0933702069103005F0EE
:1031B400BFF8284670BD0025F7E700BF6D4F00201B
:1031C40039830000F7B54C6805461746ACB1D4E91D
:1031D4000043886898B1D0E9006088B183B198420F
:1031E40007D10133092B0A780DD95721164804F069
:1031F400DAFE6FF0150003B0F0BD2346E9E706469A
:1032040001330344EEE78DF8013040F20113ADF8C9
:103214000230002328698DF804308DF800208DF8E1
:10322400057005F08DF821463246684602F0FAF939
:1032340004462869103005F07BF8204603B0BDE849
:10324400F040FFF771BF00BF30A0000038B504465E
:10325400006905F075F825690022002305F13000A6
:1032640002F0CCFDAB6B4BB90A4D02F01BFAA8423D
:103274000AD102F039FA0022074B1A702069BDE81E
:103284003840103005F054B8002140F2676003F074
:10329400A5F8EAE70000AD0B6D4F00202DE9F04FD3
:1032A40081460E461C46904685B07AB1002B00F04C
:1032B4009C800029426803DB9269CB1893420BD9A6
:1032C4002346324645214A4804F06DFE6FF0150549
:1032D400284605B0BDE8F08FFFF74EFF05460028ED
:1032E4007FD1754205F00305D9F8100005F028F8E0
:1032F400A54228BF2546D8F1000303F0030308F0D4
:10330400030758BF5F427F4207F00307A74228BF65
:103314002746631BE41B24F0030423F0030AA2459D
:10332400C8BFA24603F0030BC8BFA3EB040BBAF15A
:10333400000F19D008EB0703721951461846019380
:1033440005F02EFB04460146D9F81000FFF706FFEE
:10335400284A94423CD1BD4206D0019B52461946AC
:1033640008EB050004F0CEFEBDB1C5F1040704214D
:10337400F21B02A805F014FB04460146D9F810001C
:10338400FFF7ECFE1B4B9C4222D107F108032A46AF
:1033940040460DEB030104F0CCFEBBF1000F16D048
:1033A4000821721952440DEB010005F0F9FA0446A4
:1033B4000146D9F81000FFF7D1FE0E4B9C4207D10D
:1033C4000AEB05005A4602A9404404F0B2FE094C37
:1033D400D9F81000103004F0ABFF2046FFF7A4FE2C
:1033E40005464846FFF732FF72E71D4670E700BF07
:1033F40058A000000000AD0B4FF0502302222DE92D
:10340400F041C3F8B82543688AB01E6A0546002116
:10341400304607AA05F086F8041E2FDB079B3268A6
:103424001979186800F0D4FE041E27DB002201215C
:103434002B20FEF797FE6E682A6930464A4902F04F
:1034440017F8FFF771FE041E18DBF37A023B012B19
:1034540018D996F80A80A8F10308B8F1010F8CBFB7
:103464004FF000084FF00108284604F08BFF041EBB
:103474000BDA224645213D4804F095FD20460AB06A
:10348400BDE8F0814FF00108EEE7E2B2C4F3801426
:10349400A04504AE05AF28D0002382F04002ADF869
:1034A40010308DF810200122284607A9CDE9062303
:1034B400059609938DF81C200897FFF783FE041ED8
:1034C4000CD0DBDA2A492B4A2346B8F1000F08BF97
:1034D4000A462948452104F066FDCFE7284604F052
:1034E40051FF041EEEDBE307F8D42846FFF7AEFED7
:1034F4004FF003080023CDE9068308939F23284651
:1035040005968DF81C300997FFF736FE024628B160
:103514002846FFF79BFE6FF01204AFE7284607A981
:10352400FFF750FE04462846FFF790FE002CF2D128
:103534006D684246314605F11C0004F0D3FD044693
:1035440000289BD0AB7F452103936B7F9DF810200F
:1035540002932B7F094801939DF8123000939DF844
:10356400113004F020FDD6E739830000B0A000003C
:10357400AAA00000A6A00000C5A00000DBA00000D7
:103584002DE9F84F15460A1E0646D0F8049005DBCF
:10359400D9F8183051199942904609D92B4645213A
:1035A4003B4804F000FD6FF015042046BDE8F88F99
:1035B400C2F30B02002DF6D0C5F30B031343F2D173
:1035C400FFF7DAFD044668BB306904F0C0FE21460B
:1035D400304604F0C2FE044608BB306904F0B0FE75
:1035E400DFF8B0A0D9F81830AB421FD105F0DBF9F1
:1035F400AB46074639463069FFF7B0FD57453BD126
:10360400B5EB0B05D844EDD13069103004F090FED1
:103614000121304604F0A1FE002C08BF04463069A5
:1036240004F086FE3046FFF711FEBEE7B5F5803F95
:103634000AD31FFA88F353B94146012002F0A2F8D5
:103644004FF4803B0746D5E7B5F5805F09D3C8F34F
:103654000B0030B9414602F095F84FF4805B074601
:10366400C8E72B46424645210B4804F09CFC0B4915
:103674003069FFF773FD094F2B460948424645213F
:1036840004F091FC3846FFF74FFD0446BCE700BF49
:1036940012A100000000AD0B61A100000400AD0BFD
:1036A40084A100002DE9FF4705460F461E469046BB
:1036B4009AB193B1042B01D99A070ED1BB070CD14F
:1036C400002F6A6803DB9269BB1993420BD9334616
:1036D4003A4645213B4804F066FC6FF01504204649
:1036E40004B0BDE8F0872846FFF746FD04460028ED
:1036F40060D1286904F02BFE2146284604F02DFEF3
:103704000446286904F01CFE002C40D1032E1CD86A
:103714003A460421684605F043F9044601462869FF
:10372400FFF71CFD284B9C4231D132464146684686
:1037340004F0FFFC3A460421684605F02EF90446DD
:1037440001462869FFF70AFD21E008F06043B3F160
:10375400005F33D0DFF870A0102EB14628BF4FF0C1
:10376400100941464A46684604F0E3FC3A461021F3
:10377400684605F012F9044601462869FFF7EEFC95
:10378400544504D1B6EB0906C8444F44E4D1286932
:10379400103004F0CDFD0121284604F0DEFD06467C
:1037A400286904F0C5FD002C14BF20463046FFF7FD
:1037B400BBFC04462846FFF749FD90E73A463146EC
:1037C4004046BAE7A7A100000000AD0B024B0B6016
:1037D40001231360704700BFDC9400000048704769
:1037E400E49400002DE9F7431C460B44B3F5802F05
:1037F4000D4617462CD800292ADB41EA040616F0A8
:10380400030625D10422FF210DEB020004F09CFCE9
:10381400DFF8448008EB0509A64209D33A4608EBD1
:1038240005033C44A2420CD1002003B0BDE8F08360
:10383400042209EB06010DEB020004F053FC0436EC
:10384400EAE7197812F8010B014003F8011BE9E7D4
:103854006FF01500E9E700BF6E4F0020104608B571
:103864001A460B44B3F5802F07D8002905DB044B17
:10387400194404F05EFC002008BD6FF01500FBE75E
:103884006E4F00208B18B3F5802F70B51BD800291C
:1038940019DB42EA0106C6F30B06A6B90B4C21F468
:1038A4007F6121F00F01150B0C44AE4201D10020C1
:1038B40070BD20464FF48052FF2104F045FC0136D0
:1038C40004F58054F1E76FF01500F1E76E4F002026
:1038D40008B54FF48022FF21024804F035FC002093
:1038E40008BD00BF6E4F00204FF4802301480B60D9
:1038F400704700BF6E4F0020024B0B600123136022
:10390400704700BF004C0020004870471495000029
:1039140070B50D461946284616461C4604F04DFD62
:1039240040B9084823462A46452104F03CFB6FF081
:10393400150070BD24B122462946304604F0F9FB37
:103944000020F6E72AA2000010B50122064811461D
:1039540005F0ADF805F01BF8044C206005F014F8F0
:103964006060002010BD00BF084C0020004C002007
:10397400F8B50E46144605F007F8214605463046CC
:1039840004F01BFD374650B3B6FBF5F305FB136398
:1039940023B9B4FBF5F305FB134343B12346324685
:1039A4004521114804F0FFFA6FF0150002E0A5422A
:1039B40001D90020F8BD4FF0FF324FF0FF330B4820
:1039C40002F01CFA04F0E0FF0546384601F0CCFB97
:1039D400641B2F44F9D1054802F0F0F9E9E72346C6
:1039E400324645210248DDE74CA20000084C002085
:1039F4002AA200002DE9F0410D4619462846164634
:103A04001C4604F0DAFC48B9214823462A464521DD
:103A140004F0C9FA6FF01500BDE8F0810CB900207C
:103A2400FAE74FF0FF324FF0FF331A4802F0E6F99D
:103A340015F003070CD0C7F10407A74228BF274697
:103A4400314628463A4601F0BDFB3D443E44E41B62
:103A5400002724F00308B84507EB050012D16FF0E6
:103A64000302A30802FB03421AB106EB080101F0AA
:103A7400A9FB094AD2F80034DB07FBD5054802F05C
:103A84009DF9CCE7F15901F08DFB0437E3E700BF62
:103A94002AA20000084C002000900350F0B54B7996
:103AA400012B29D0032B24D110278B79032B20D170
:103AB400CE790EB1012E1CD10A79012A1ED0022A18
:103AC40020D0B2B914460B684568B3F5164FD5F843
:103AD40000C06ED033D8B3F5165F6DD01CD8B3F5E3
:103AE400966F6BD010D8B3F5967F6AD0B3F5167F76
:103AF4006AD06FF085005BE00027D6E74FF480744E
:103B04000E22E0E70024FBE7B3F5166F5FD0B3F5B0
:103B1400965FEED1384B3CE0B3F5E14F5AD007D86D
:103B2400B3F5615F58D0B3F5964FE2D1334B30E033
:103B340047F61225AB42DCD14FF4000329E0B3F57C
:103B4400613F4BD013D8B3F5963F4AD009D84DF610
:103B5400C025AB4247D0B3F5614FCAD14FF46B03D4
:103B640017E0B3F5E13FC4D14FF0EB7311E0B3F5C7
:103B7400612F3BD008D8224DAB423AD0B3F5E12FA8
:103B8400B7D14FF0E86304E01E4DAB42B1D14FF022
:103B940080530569CCF8243543683A431B683443A1
:103BA4002243C3F86C252B1D03C983E803000020BE
:103BB400F0BD4FF41D03ECE7134BEAE74FF49E23EB
:103BC400E7E74FF4A033E4E74FF41C33E1E74FF4A5
:103BD4001D23DEE70D4BDCE70D4BDAE74FF06C738A
:103BE400D7E70C4BD5E74FF46503D2E74FF070638A
:103BF400CFE74FF08063CCE700B0130000A04E0085
:103C040090D0030040420F000050270000C0750010
:103C140000F03A0000903A012DE9F7438046002273
:103C240001210820FEF79EFA0820FEF76BFA002116
:103C3400D8F80470D8F810603C6801AAC4F80015DC
:103C4400C6F80080D7F80C90484604F06BFC051EBB
:103C54001EDB019BD9F800201979186800F0B8FA26
:103C6400051E15DB4046311DFFF718FF054678B9E0
:103C74007B6899071DD506F1180000F0EFFE214B73
:103C8400984209D04521204804F08DF96FF00405CD
:103C9400284603B0BDE8F083337E43F00043C4F804
:103CA400A031C4F88C300123327E9340174AC2F805
:103CB40004350823C4F800353B7A53B9C4F81031ED
:103CC400D4F810317369C4F834350123C4F8383595
:103CD40023607B689A075CBF4FF48073C4F8043395
:103CE4007B68DB0644BF4FF48003C4F804333369B4
:103CF400C4F844350023C4F848350123A360E360C5
:103D0400C6E700BF0000AD0B91A200000070015097
:103D1400F8B504460D46076904F0A6FEB0B92E4B6B
:103D24001B789BB16426606804F0A7FB00BB0120EC
:103D340004F088FC013EF6D10021212002F04EFB64
:103D4400F0E786F31188BFF36F8FF5E74FF0200398
:103D5400EFF3118683F31288BFF36F8F60683146E7
:103D640004F08BFB90B986F31188BFF36F8FEDE7F6
:103D74004FF02003EFF3118683F31288BFF36F8FA4
:103D84006068314604F079FB0028DAD03B691D7085
:103D9400626838691368C3F844050120C3F848050C
:103DA4000020C3F82001D3F82051C3F85801526809
:103DB400D3F85801D20608D5082062681268C2F800
:103DC40000054FF48002C3F8042301229A6081F3B2
:103DD4001188BFF36F8FF8BD704F04200123834017
:103DE40070B5DC430B4AD2E8EF1F01EA0405C2E8D0
:103DF400E65F002EF7D14FF4803282400648C0F8C7
:103E04000823BFF35F8FBFF36F8F0B4214BF0120F2
:103E1400002070BD1C4C00200050015070B40E49AD
:103E240022F07F46D1E90034D01AC31844F10004CB
:103E3400C1E90034A6F50013B3F5400F09D2074BCE
:103E44001B681A0A1B069C19054B42F10005C3E9BD
:103E5400004570BC02F028BC28220020204C002021
:103E640030220020D9B101230D4A8340D2E8EFCF9C
:103E74004CEA030CC2E8E1CF0029F7D14FF48033B8
:103E8400084A8340C2F80433074BD3E8AF3FC3402A
:103E9400DB0742BF4FF40012044BC3F80021704704
:103EA4001C4C002000500150184C002000E100E0A0
:103EB4000D4B1868010A0006BFF35F8F0B4BD3F854
:103EC4000435181841F10001B3F5801F0AD2084BDC
:103ED400D3E90023904271EB030303D210F1807005
:103EE40041F10001704700BF204C002000500150F8
:103EF400302200202DE9F74F16461F460446FFF7EF
:103F04006DFF0090FFF7D4FFB04271EB070350D26E
:103F1400384B301A67EB0101984271F1000165D208
:103F2400354B03EB0413D3E902239F4208BF9642A7
:103F340049D04FF48039314909FA04F9204626F072
:103F44007F4BC1F8489304F0E1FA4FF0030A584656
:103F540004F15005AD00ADB205F1502504F5A87388
:103F6400274A05F580350193DDF804C020F07F432E
:103F740041F82C30C1F84493D1F80485A0EB080033
:103F8400033820F07F4090421DD9286860B1D1F8F1
:103F94000485A8EB0B0020F07F40B0F5000F12D988
:103FA400204604F0B3FA164A0AEB08000AF1010AA3
:103FB400DAE70123134AA340D2E8EF0F1843C2E81B
:103FC400E10F0029F8D100250B490C98230101EBDE
:103FD4000412C850C2E902670D9B53602046009941
:103FE400FFF740FF284603B0BDE8F08F6FF01505DA
:103FF400F4E700BF010080001822002000500150A7
:10400400FDFF7F00184C002037B500244FF0FF302F
:104014004FF0FF31164D174BC5F80845C3E90201AF
:104024004FF48033C5F8043302234FF40012C5F86B
:104034000433114B0121C3F8802115202246FEF7D9
:1040440091F81520FEF75EF801230C4AAB602B6053
:1040540013600B4B0B4A0093204600230194FFF797
:1040640049FF2046FEF7A0FE204603B030BD00BF46
:10407400005001501822002000E100E01C4C0020F8
:10408400213E0000FFFF7F002DE9F7432E4BD3F8BC
:10409400042390070BD5D3F8042142B10022C3F8BE
:1040A40004212A4AD3F80431136801331360264AE1
:1040B400D2F80433D90327D5254BD3E8EF1F21F0D9
:1040C4000100C3E8E40F002CF7D1CB0702D4D2F8E7
:1040D4004031CBB100251C4CC4F84051D4F84031D8
:1040E400FFF7E6FE4FF02003EFF3118283F312880B
:1040F400BFF36F8F174BD3E90267B042B94106D2C1
:1041040082F31188BFF36F8F03B0BDE8F0834FF0E3
:10411400FF38D3E900104FF0FF391D60C3E902896D
:104124004FF48033C4F84833C4F84051D4F84031D4
:1041340082F31188BFF36F8F0029E5D000903246D7
:104144003B4628468847DFE700500150204C0020BA
:10415400184C002018220020431C13B521D001283C
:1041640021DD124A124B9042D4BF04461C46FFF78D
:104174009FFE104B0E49D3E90023801AB0F5000FBF
:1041840028BF002404448C4228BF0C4600200A495E
:10419400A2180190009143F10003FFF7ABFE02B0B7
:1041A40010BD034CE3E70124E1E700BFFEFF7F00FD
:1041B400FFFF7F0028220020213E000008B5FFF702
:1041C40077FE024B1B68C01A08BD00BF28220020DE
:1041D4004FF0010C2DE9F0475B4E5C4F00EB810181
:1041E400814202D10020BDE8F087046804F07F0317
:1041F400C4F343257F2B4FEA144408BF4FF0FF3329
:10420400222C00F29D80DFE804F0122328422B3E8A
:10421400429B9B9B9B45729B9B9B9B9B9B9B9B9BC2
:10422400757D80839B9B9B868C8F92959800C2F8AA
:104234000C354FEA5318B8F1010F14BFB646BE4609
:1042440003F01F040CFA04F4CEF80840012402E041
:10425400C2F814350024A64623E0C2F80835E8E77E
:104264000024C2F808354FEA5319B9F1010F14BFFD
:10427400B046B84603F01F0E0CFA0EFEC8F80CE068
:104284004FF0010E0DE0C2F80C350124EBE7C2F843
:104294001035DFE7C2F80835002DDBD100240625F0
:1042A400A64650F804AB03F01F090AF40058B8F10D
:1042B400000F4FEA53131CBF01244FF0000E012BD3
:1042C4000CBFB846B04608EB8908D8F80032CAF3E8
:1042D400C11A03F0E0492B0243EA8A0343EA0E03BE
:1042E40043EA440343EA0903C8F8003278E7C2F812
:1042F4000C35D1E7C2F860350468C4F38034002C6F
:10430400C3D096E7C2F86435F6E7C2F86835F3E738
:10431400C2F86C35F0E7C2F8243501244FF0000EE2
:10432400BFE7C2F8283584E7C2F83035F5E7C2F8AC
:104334003435F2E7C2F83835EFE7C2F83C35ECE73C
:104344006FF085004FE700BF00258450002884509B
:1043540040EA0103C3F30D0330B58BB940F21515E0
:10436400094C890BC0F38730994201D1002030BD3C
:10437400C218D2B202F5C07244F822500133F3E7F6
:104384006FF01500F3E700BF0030005003484521EB
:1043940008B503F008FE0020FEF7E4F9CFA2000000
:1043A4004FF000531868054B984205D0044B9842CF
:1043B4000CBF01200220704700207047B6B3B4B58B
:1043C4005DCE03F108B5FFF7EBFF30B1034804F00D
:1043D4007BFC0022024BC3F8402408BD902100203E
:1043E4000030005038B5144601234FF05022C2F873
:1043F400143608B301B34FF0005399604FF40841E9
:104404001A4DD960C3E90050002349211848C2F865
:10441400143603F0C8FD34B3164D284604F050FC9E
:10442400FFF7BEFF04460028F7D002280ED145212D
:10443400114803F0B8FD07E06FF0150249210F4859
:1044440003F0B1FD6FF01504204638BD4FF0502342
:1044540001224921C3F81426094803F0A4FD0022CF
:10446400084BC3F840240024EEE700BFB6B3B4B54C
:10447400F1A2000040420F0032A300000DA300008F
:1044840052A300000030005010220B4B13B5C3F8A8
:1044940040240022FFF7A6FF044650B94FF400421F
:1044A40000230648CDE9002302F0DEF9044804F0B5
:1044B40007FC204602B010BD0030005090210020BF
:1044C40040420F001022034BC3F840240122FFF79F
:1044D40089BF00BF003000504FF48272014BC3F813
:1044E400002770470030005001280FD179B9084BDC
:1044F400084613604FF4007313814FF45E33C2E92E
:104504000511C2E903315160D16170470120704740
:104514003DB8F396012803D119B9024B18687047C6
:10452400012070474023002013B50446104804F0CE
:104534003FFAB0B1002001A9FFF7D6F90D4B02688C
:104544009A4211D10389C16818444368B3F1807F4A
:104554000AD91CB1FFF7B6FF02B010BDFFF794FFF4
:10456400FAE76FF01200F7E76FF03C00F4E700BFE2
:10457400D88D00003DB8F39630B5816885B0103908
:1045840021F00704054603F061FD10220146684648
:1045940003F0DAFD10226846064903F0CAFD102331
:1045A4006A462146284603F021FD003818BF012041
:1045B40005B030BD3696000030B50D46816887B031
:1045C400102302AA1039044603F0FBFC002802DA87
:1045D400012007B030BD1022204602A903F0E8FFF5
:1045E40000283AD110221E4902A803F07BFD0028BE
:1045F4000CBF012302232B70204603F0C5FF0123C7
:1046040001460DF10702204603F0DBFC0028DFDB46
:104614009DF80730204603F00F021B096A702B71C6
:1046240001220DF1070103F0C3FF10B96B78042BCD
:1046340003D901236B7000232B71A2682046183A1A
:1046440022F00702083AA91C03F0C5FF0028BFD1D5
:104654002046E91C03F0DBFFBBE70323CBE700BFE5
:10466400369600007FB56946044603F070FF0128C2
:104674005ED16946002C55D0012C4ED0FF2003F0AA
:10468400CCFF00285CD1FF2002A903F0C6FF01285B
:1046940054D122464921334803F085FC324B02931E
:1046A40000238DF80C3000229DF800509DF808601E
:1046B4002E4C2946207803F06DFF002847D0314660
:1046C400607803F067FF002841D0A378042B03D05F
:1046D4009DF8031099423AD1E378042B03D09DF856
:1046E4000B10994233D12379042B03D09DF8021087
:1046F40099422CD16379022B25D0032B25D01C4A57
:104704001C49042B08BF0A461B48492103F04BFCF3
:104714006079831E022B14D912E003F07EFF78B96E
:104724000820B1E7042003F078FF48B90220ABE782
:1047340030B9002CFAD0012CA5D1F1E70028B2D071
:10474400FF2004B070BD0D4ADEE70D4ADCE70132FC
:10475400032A04F10604ACD10A48492103F023FCDE
:104764000120EEE796A300000301030309A400005F
:104774007DA300008FA30000E1A3000078A3000044
:1047840073A30000F4A300004FF47F03D3F8302197
:10479400D3F83431072A05D1023B032B02D8024A4D
:1047A400D05C7047002070471FA400004FF05023D6
:1047B400D3F85825034B02F00302D340024A136096
:1047C400704700BF0020A1079020002008B5FFF724
:1047D400DBFF58B14F4BD3F8202A3AB90D21C3F867
:1047E400201A0121C3F81C19C3F81C290022D30084
:1047F40003F57F03D3F80013013107D0D3F8001376
:104804000132D3F80433202A0B60F0D1FFF7BCFF48
:10481400002876D1FFF7B8FF40B13F4B3F4AC3F8B9
:1048240030254FF050230122C3F858254FF47F035D
:10483400D3F83021D3F83431072A09D1023B032BB2
:1048440006D8374AD35C1BB10022364BC3F84C253B
:10485400FFF79AFF50B14FF05023D3F80024D1074B
:1048640042BF0022C3F81421C3F818214FF47F0378
:10487400D3F83021D3F83431072A09D14FF050232B
:10488400D3F80024D20744BF6FF00102C3F8002418
:10489400FFF77AFF18B165221E4BC3F80C274FF4BB
:1048A4007F03D3F83021D3F83431072A16D11D4BB6
:1048B400D3F82034002B11DA4FF050230322C3F82D
:1048C400182501229A60D3F80421002AFBD0002283
:1048D400C3F804210122DA60C3F81825124AD2F879
:1048E4008C3043F44063C2F88C30104A104B11688A
:1048F400C3F84415D269C3F84C25BDE80840FFF756
:1049040055BF2922034BC3F80C270322C3F83C27C5
:1049140080E700BF00400050009003504400EFBE09
:104924001BA400000020035000ED00E00080FF0005
:104934000060005070B501250268B2FA82F3C3F139
:104944001F03DBB205FA03F422EA0404D0E8EF6F94
:10495400964204D1C0E8EC4FBCF1000FF6D1EBD184
:1049640001480B7070BD00BF0000AD0B10B50368AB
:10497400CB40DB0710D401238B40026843EA0201D9
:10498400D0E8EF4F944204D1C0E8EC1FBCF1000F13
:10499400F6D1F2D1014810BD0148FCE70000AD0B8F
:1049A4000400AD0B044B1A7922B9012218601A7164
:1049B4000248704702487047244C00200000AD0BA9
:1049C4000C00AD0B4FF0502310B5D3F8002152B1B9
:1049D4000020C3F80001D3F800210122C3F8082302
:1049E4001D4B1B6898474FF05023D3F804215AB14C
:1049F4000022C3F80421D3F804210222C3F80823B7
:104A0400154B01201B6898474FF05023D3F8202101
:104A140062B10022C3F82021D3F820214FF4807220
:104A2400C3F808230C4B04201B6898474FF050230D
:104A3400D3F8242172B10022C3F82421D3F824210D
:104A44004FF40072C3F80823034B0520BDE810405F
:104A54001B68184710BD00BF244C002001460148C4
:104A6400FFF768BF94200020036803F01F02026070
:104A7400034A04485B09012B18BF1046704700BF66
:104A84000025845000288450034B083033F810006C
:104A9400C0F34010704700BF9820002070B50D4C43
:104AA40000F1080334F813300546DA050E4607D53D
:104AB400C3F3432304EBC302526854F833309847DA
:104AC400A3682BB131462846E268BDE87040184718
:104AD40070BD00BF9820002010B4124A083032F88C
:104AE4001030D9051BD5C3F3432123F4F85322F81E
:104AF4001030002002F10E0434F8023F13F4807FDA
:104B040003D0C3F34323994209D001303028F3D1B1
:104B1400002342F83130044810BCFFF727BF10BC13
:104B2400704700BF982000200C21002038B50246B1
:104B3400FFF7AAFF0B4C02F1080560B1002134F81D
:104B440015305B0B9B0003F1A04303F55043C3F8FE
:104B54001015C3F810151046FFF7BEFF002324F804
:104B6400153038BD982000202DE9FF4104469046B9
:104B74001D4601B34F4E00F1080736F817309B0766
:104B840002D5FFF781FF28BB00232046CDE900337F
:104B94008DF80E308DF80F300DF10F020B460DF12C
:104BA4000E0103F083FE36F8173023F0020343F0BE
:104BB400010326F81730B8F1000F2DD03D4E04F153
:104BC400080736F8171098F800008A07D8F8043058
:104BD40002D5CBB1384821E021F02001C904C90C29
:104BE40026F8171083B10328F4D8D8F8043093F8C2
:104BF40000C06246920002F1A04202F5504280B920
:104C0400C2F81005C2F8100536F8173023F01C035B
:104C140043EA800326F817301DBB284804B0BDE8DA
:104C2400F081D2F8103541EA4C3123F00303C2F885
:104C34001035D2F8103541F0200123F44F3323F41A
:104C44004073C2F810352302D2F810E503F47C5304
:104C540043EA004343EA0E03C2F8103526F817105E
:104C6400D2E72046D5E90067FFF736FF002ED4D0FF
:104C7400104DD5E90023964201D19F4218D0104827
:104C84000DF10F01FFF756FE0C4B9842C6D19DF86B
:104C94000F2005EBC20308345F6035F8143045F883
:104CA400326043EA422343F4807325F81430B4E7B6
:104CB4000022EEE7982000200400AD0B0000AD0BAD
:104CC4000C210020F0B50446154685B019B3344EC6
:104CD40000F1080736F81720930703D4FFF7D4FE32
:104CE40000285AD112F01C0F02D04B78012B54D05B
:104CF40001238DF80F3000234A1CCDE90013204610
:104D04008B1C0DF10F0103F0D1FD36F8173043F081
:104D1400030326F8173015B9224805B0F0BD204E1C
:104D240004F1080736F81700830736D595F800C054
:104D34000023614620F02000890001F1A041C00455
:104D440001F55041C00CC1F8103526F81700C1F820
:104D540010356A78002ADFD0D1F81035AD7823F405
:104D6400991323F4F853C1F81035D1F810E5230250
:104D740003F47C53120402F4403243EA0E03134357
:104D84002A0502F4801240EA4C30134340F020001C
:104D9400C1F8103526F81700BEE70348BDE700BF89
:104DA400982000200000AD0B0400AD0B014BC3E9BB
:104DB400020170479820002008B50246FFF764FE00
:104DC40038B1054B083233F8123004485B0B0B70D2
:104DD40008BD0348FCE700BF982000200000AD0B8D
:104DE4000400AD0B38B50F4C94F87850BDB960226F
:104DF400294604F1100003F0A7F90D20FDF782F90C
:104E0400094B0A48C3F87C51D3F87C214FF0004287
:104E1400C3F80423012384F87830636738BD044859
:104E2400FCE700BF9820002000D000500000AD0B2C
:104E34000500AD0B034B93F87800003818BF012030
:104E4400704700BF9820002001460148FFF78EBD3F
:104E54000821002001460148FFF76CBD082100200D
:104E640037B50446FFF710FE1E4B04F1080233F871
:104E74001230E8B113F002051AD15B0B9A0002F16B
:104E8400A04000F5514002F1A042056002F55042F5
:104E94000068D2F8100540F00100C2F8100529B1ED
:104EA400012202FA03F3104AC2F8043303B030BDFE
:104EB400C3F38203042B11D0052B11D001A8019454
:104EC400FFF7D2FD019B0169D94001F001010231D4
:104ED400204603B0BDE8304003F031BD0321F7E7BD
:104EE4000221F5E79820002000D0005008B50246C2
:104EF400FFF7CAFDC0B10F4B02F1080133F81130BE
:104F0400990711D401225B0B9A400B499B0003F1D2
:104F1400A043C1F8082303F55043D3F8102522F029
:104F24000302C3F8102508BD0021BDE8084010465F
:104F340003F005BD9820002000D0005013B5104B9D
:104F440000F1080233F812300446DB0716D5FFF7E8
:104F5400CDFF2046FFF7EAFD01A80194FFF784FD89
:104F6400019B00EB8300D0F8003203F0E04343F0F0
:104F74000203C0F80032034802B010BD0248FBE748
:104F8400982000200000AD0B0400AD0B2DE9F04F7C
:104F9400002601223446634B6348644987B01D6888
:104FA40035B1D0F8045315421EBF1C601D6816436A
:104FB40004338B424FEA4202F1D1DFF86CA1DAF8F4
:104FC4007C31002B00F09180DFF86481D8F8203028
:104FD4000493C8F82030574B1A6A05921A624FF0AE
:104FE40000090DF1100B4FEA4913009348E094FABD
:104FF400A4F4B4FA84F4009B4F4A1C4404F108035B
:1050040032F813700123E00804F0070203FA02F2F5
:105014001BF80030039423EA02030BF8003003A8C2
:10502400FFF722FD039BB908803350F82330C7F300
:1050340082054A072F46C3F301432BD52046394640
:10504400DDB2FFF72BFD03A80394FFF70DFD039BCF
:10505400803350F82330C3F301439D4207D100212C
:10506400204603F06CFC2946204603F068FC03A8A4
:105074000394FFF7F9FC0122039B02FA03F3036292
:105084005BF82940002CB2D1B9F1000F1DD14FF0CB
:105094000109A8E7022B0CD10321204603F04FFCA1
:1050A40005F00503012BE2D139462046FFF7F6FC53
:1050B400DDE702212046019303F041FC032DF3D0E8
:1050C400019B032BD3D1022DEDE7CAF87C41DAF81A
:1050D4007C31D8F8203017490493C8F820300A6A84
:1050E400134305920A627FF47AAF012416B907B01C
:1050F400BDE8F08F96FAA6F3B3FA83F304FA03F249
:105104009B0003F1A04303F55043D3F81005D3F8F3
:105114001015C0F30520C1F3014126EA0206FFF78A
:10512400BDFCE3E700D1005000D0005020D1005076
:105134000025845000288450982000200022034B2E
:10514400C3F88425C3F80425704700BF00900350BA
:10515400044AD2F80034DB07FBD50160BFF35F8F4C
:10516400704700BF0090035008B5C0F30B0383B928
:105174000222094BC3F88425C3F804254FF0FF32FB
:105184000260D3F80024D207FBD5FFF7D7FF03480A
:1051940008BD0348FCE700BF009003500000AD0BBE
:1051A4000A00AD0B012208B5054BC3F88425C3F8EA
:1051B4000425FFF7CDFFBDE80840FFF7BFBF00BFE0
:1051C400009003502DE9F843154601221D4B044677
:1051D400C3F88425C3F8042510F003030E4610D049
:1051E400C3F10407AF4228BF2F463A46A0EB030899
:1051F40003F0B4FB01464046FFF7AAFFED1B3C4415
:105204003E44374625F00308B044A4EB0609B845EC
:1052140011D115F003020AD025F003052C447119AD
:10522400204603F09BFB01462046FFF791FFBDE8B3
:10523400F843FFF783BF09EB070057F8041BFFF798
:1052440087FFE4E70090035070B500F06044B4F1C8
:10525400005F68D1840766D1354D95F83040012C44
:1052640001D09C4261D12C6804BB022B314B0BBF93
:10527400C3F81025C3F80425C3F81405C3F80805BA
:105284000BBFC3F81815C3F80C150822042200211B
:10529400C3F8001102F1A043012203F52C331A6074
:1052A400244AD2F80031002BFBD00DE0AE68214C2B
:1052B40066B1022BE8606961EA612DD1C4F810255A
:1052C400C4F81405C4F818151B4870BD022B85F8E2
:1052D40030302961AA61A8600CBFC4F81025C4F855
:1052E40004254FF000020BBFC4F81405C4F80805E8
:1052F400C4F81815C4F80C1508BF08230D4918BFC5
:105304000423C1F80021012203F1A04303F52C3347
:10531400C1F804231A60D7E7C4F80425C4F80805C3
:10532400C4F80C15D0E70548CFE70548CDE700BF22
:105334002C4C002000B002500000AD0B0A00AD0B55
:105344000B00AD0B38B56424064DD5F8003133B9E4
:105354000A2003F077F9013CF7D1034838BD03482C
:10536400FCE700BF00B002500700AD0B0000AD0B1E
:10537400084B9A685A621A699A629A69DA62DA6818
:105384009A6032B15A691A61DA699A610022DA6064
:10539400704770472C4C002010B50A4A0A4C00F0A4
:1053A4001F034009012818BF224602EB8302D2F8EA
:1053B400003203F0E04343EA012343F00203C2F85E
:1053C400003210BD002884500025845010B50E4BC7
:1053D4000238D3F83C26D3F83836072813D8DFE848
:1053E40000F0110F0D0B0A080604100EC871100C02
:1053F4008871100A48710A711A0ECA701A0C8A70E0
:105404001A0A4A700B7010BD00B002500238072807
:105414001FD8DFE800F02927251123211F04CB79A9
:105424001B068A7943EA02434A7943EA02230A794A
:1054340013430E4AC2F83C36CB781B068A7843EAFB
:1054440002434A7843EA02230A781343074AC2F81C
:10545400383670470023E4E70023E5E70023E6E756
:105464000023EBE70023ECE70023EDE700B0025054
:10547400F8B5674F044697F830300D461646002BB2
:1054840040F0C280C27C12B1037D002B6CD1207924
:10549400FF2800F0BB806379FF2B00F0B780A3796D
:1054A400FF2B00F0B380E179FF2900F0AF8063683F
:1054B400DFF860C123F07F43634540F0A7800E29E5
:1054C40040F0A480237AFF2B02D00F2B40F09E8063
:1054D400637AFF2B02D0102B40F09880B2B90321DD
:1054E400FFF75AFF6079FFF757FFA079FFF754FFE2
:1054F400E079FFF751FF207AFF2801D0FFF74CFF36
:10550400607AFF2802D00321FFF746FF237D5BBBAF
:105514002379FF2B14BF1A464FF0FF323E4BC3F8DA
:1055240024256279FF2A08BF4FF0FF32C3F82825EB
:10553400A279FF2A08BF4FF0FF32C3F83025E27981
:10554400FF2A08BF4FF0FF32C3F83425227AFF2A1E
:1055540008BF4FF0FF32C3F83825627AFF2A08BF2C
:105564004FF0FF32C3F83C2523682B4AC2F840357C
:10557400237BE07AA17A9B0143EAC0030B43617B5E
:1055840043EAC113C2F84435617CD2F84435B1BB57
:1055940043F44033C2F844354FF4C063C2F8403694
:1055A400D2F80016A37B21F07F4121F0FF010B43C9
:1055B400E17B43EA0163217C43EA4163617C43EA82
:1055C4000173C2F80036E37CC7E9005687F831302E
:1055D4000123C2F8083315B12B20FCF793FD0021F9
:1055E4000122C7E902110C4B87F83020C3F80025CB
:1055F400C3F800111A60BDE8F840FFF7A3BE23F416
:10560400003343F48033C5E70448F8BD0448FCE79D
:105614002C4C002011120D0000B002500500AD0BFF
:105624000400AD0B70B51446194A054692F83020B3
:10563400012A2BD10022174EC6F8002111B140785F
:10564400FFF7E4FE0123C6F80833AB786A781B033E
:1056540043EA02232A781343EA7843EA42332A7955
:1056640043EA82336A7943EAC233C6F83436FFF731
:1056740069FE094B984208D00023C6F800311CB1DA
:1056840021466878FFF7A2FE044870BD0448FCE791
:105694002C4C002000B002500700AD0B0000AD0BF5
:1056A4000B00AD0B1FB500230C4A02A802920DF1AA
:1056B400070211468DF80730ADF80C30FFF7B2FF42
:1056C400074B984206D19DF8073013F0010F054BA4
:1056D40018BF184605B05DF804FB00BF05020001C1
:1056E4000000AD0B0B00AD0B2DE9F8432B20FCF7AC
:1056F40017FD214B214ED3F8342602F44032B2F583
:10570400803F04BF1E4AC3F834260122C3F808238D
:105714001A610022C3F80025C3F8002196F831204D
:1057240022BBD3F82405D3F82895C0B2D3F830852A
:10573400D3F83475D3F83855D3F83C4503F02AF937
:105744005FFA89F003F026F95FFA88F003F022F992
:10575400F8B203F01FF9E8B2FF28E4B201D003F075
:1057640019F9FF2C02D0204603F014F9002386F81F
:105774003030BDE8F88300BF00B002502C4C00204C
:10578400000103008B0721D1124A13681BB192F860
:105794003030012B1CD1042382F830300E4BC3F877
:1057A4001C150021C3F82005C3F800110121D9609C
:1057B400106840B9D3F800110029FBD0012382F806
:1057C400303006487047C3F80413FAE704487047BA
:1057D400044870472C4C002000B002500000AD0B70
:1057E4000A00AD0B0B00AD0B10B5174BD3F800211D
:1057F400E2B10022154CC3F8002194F83020032AAA
:1058040015D0042A15D0022A04D1012384F82030AB
:10581400FFF7AEFDA36813B9012384F83030D4E94F
:10582400003100209847002384F8203010BD022363
:10583400ECE7032284F82020D3F81C256262D3F815
:10584400203584F82830E5E700B002502C4C0020C5
:10585400F7B505460E464FF02003EFF3118783F3A7
:105864001288BFF36F8F00F0D3FD0022042D98BF80
:10587400184B044694BF53F82530174B009245212A
:105884002A46164802F08FFB3EB1F369C3F30803BE
:105894001BB14521124802F086FB34B1204603F0C7
:1058A400E9F8034608B1027802B90E4B22464521B5
:1058B4000D4802F078FB31462846FEF767FD87F372
:1058C4001188BFF36F8F204603B0BDE8F040FCF7AA
:1058D40093BF00BF689500004DA4000063A40000BE
:1058E40090A400005BA40000B6A400000F4B70B5A8
:1058F40053F82040013053F82060A64200D870BD10
:10590400D4E90035284698476DB138B10028B8BFAE
:105914004042FF28A8BFFF20EB681870EA6853785C
:1059240043F0010353700834E7E700BF7C9500009F
:10593400012208B5094B03201A70FFF7D7FF00F0C6
:10594400DFFF0420FFF7D2FF00F026F9FAF768FD25
:10595400034A137B23F00103137308BD704F042023
:10596400B822002008B50348034A0021121A03F0A4
:105974002AF808BD18220020744F042000230122B5
:1059840070B586B0CDE904230F220193CDE902322C
:1059940018234FF4A0720E4D0E4E03FB00550E4912
:1059A40006EBC016044602FB00110C4B3046009572
:1059B40000F0C2F8737B2C7523F004037373084B57
:1059C400013403EBC423EE606B6006B070BD00BF0E
:1059D400604C002038220020785704207D8A000083
:1059E400784F042080B50020A6B0FFF77FFF2B4B33
:1059F40083F308880024E023294D2A4E85F82230B9
:105A0400EC772C766C76AC7685F820406B6A264F62
:105A140043F4E0236B6285F82340FCF755FEFCF762
:105A240023FB4FF0FF33AB62EB62FDF78DF8FCF71D
:105A3400F9FE40F20113ADF8243006ABB360CDE9B2
:105A44001F44229402F0B3FF0120FFF74FFF02200E
:105A5400164DFFF74BFF00F033FC154BB561059372
:105A6400012314494FF42052CDE9034328463B4611
:105A7400CDE90144009400F05FF806466A7B2846AD
:105A840022F004026A7303F07AF82046FFF776FFE7
:105A94003A4631462846FCF705FC00BF78570420F7
:105AA40000ED00E0604C002035590000B8220020D1
:105AB4001DA50000B8580420002038B5054C064D3B
:105AC400AC4200D338BD204602F081FF0028F9DB48
:105AD4001C34F5E7C8210020C821002073B50C460A
