:020000040100F9
:1000000048C900216D660001876702014166000151
:1000100041660001416600014166000100000000E8
:100020000000000000000000000000006D5F000103
:100030004166000100000000155F000141660001FB
:10004000ED5F0001ED5F0001ED5F0001ED5F00017C
:10005000ED5F0001ED5F0001ED5F0001ED5F00016C
:100060005DB00101ED5F0001ED5F0001ED5F00019A
:10007000ED5F0001ED5F0001ED5F0001ED5F00014C
:10008000ED5F0001ED5F0001ED5F0001ED5F00013C
:10009000ED5F0001ED5F0001ED5F0001ED5F00012C
:1000A000ED5F0001ED5F0001ED5F0001ED5F00011C
:0800B000ED5F0001ED5F0001AE
:1000B80053B94AB9002908BF00281CBF4FF0FF31C7
:1000C8004FF0FF3000F00CB8ADF1080C6DE904CE2C
:1000D80000F008F8DDF804E0DDE9022304B0704719
:1000E800704700BF2DE9F04786468C460846089EB3
:1000F800154674461946002B40F0C1808542B2FA75
:1001080082F245D94AB1C2F1200300FA02FC9540B7
:1001180094402EFA03F343EA0C0C4FEA154EA8B2AA
:10012800230CBCFBFEF80EFB18CC08FB00F943EAD5
:100138000C43994528D9EB1808F1FF3704D29945A3
:1001480002D9A8F102072B44A3EB0903A4B2B3FB1D
:10015800FEFC0EFB1C330CFB00F044EA0344A042F7
:1001680014D92C190CF1FF3304D2A04202D9ACF1F6
:1001780002032C44241A43EA07401EB1D44000234A
:1001880034607360BDE8F0874746DDE76346F1E712
:1001980092BB431B01214FEA154EAFB2200CB3FBB3
:1001A800FEFC0EFB1C330CFB07F840EA03439845A2
:1001B80061D9EB180CF1FF3004D2984502D9ACF1A3
:1001C80002002B44A3EB0803A4B2B3FBFEFC0EFB16
:1001D8001C330CFB07F744EA0344A7424DD92C19FA
:1001E8000CF1FF3304D2A74202D9ACF102032C442C
:1001F800E41B43EA0040C0E7C2F120039540944065
:1002080020FA03F12EFA03F34FEA154E9040AFB2ED
:100218000343B1FBFEFC0EFB1C10190C0CFB07F88A
:1002280041EA0041884522D969180CF1FF3004D20F
:10023800884502D9ACF102002944A1EB08019BB220
:10024800B1FBFEFC0EFB1C110CFB07F743EA014354
:100258009F420ED9EB180CF1FF3104D29F4202D90C
:10026800ACF102012B44DB1B41EA004193E76046F5
:10027800E3E76146F7E76046A4E76346B8E78342E9
:1002880006D916B9002108467CE7C6E900E0F9E777
:10029800B3FA83F78FB9834201D3724508D8BEEB0E
:1002A800020460EB030301209C461EB9002169E7A4
:1002B8003846FAE7C6E9004CF8E7C7F1200CBB401E
:1002C8000EFA07F522FA0CF42EFA0CF1BA401C4388
:1002D80020FA0CF3B8404FEA144901431FFA84FE90
:1002E800B3FBF9F809FB18300B0C08FB0EFA43EACC
:1002F80000439A4540D9E31808F1FF3004D29A45E3
:1003080002D9A8F102002344A3EB0A0389B2B3FB84
:10031800F9F809FB183308FB0EFE41EA03418E4544
:100328002CD9611808F1FF3304D28E4502D9A8F1FF
:100338000203214443EA0040A1EB0E01A0FB02980E
:100348004145CE46434602D306D14D4504D2013835
:10035800B9EB020E68EB0403002EA7D0B5EB0E0232
:1003680061EB030101FA0CFC22FA07F3F9404CEAAD
:100378000303C6E9003199E74046C5E74346D9E794
:1003880070B5C24D88B0D5F85831996811F001019F
:1003980019D140F6034002AA07F0CAFD0446002816
:1003A80067D10298C3681B785BB905F1CC03D3E821
:1003B800AF2F02F00902D3E8EF1FC3E8E42F002CA7
:1003C800F9D11DF009FE002141F2030002AA07F04D
:1003D800AFFD044600284CD1029E0822F168AC48C3
:1003E800013126F0C3FA30461DF0F6FD214641F2F0
:1003F800010002AA07F09CFD0446002839D10298A2
:10040800C3685A7885F868205A88A5F86A201A7946
:1004180085F86920B3F80720A5F86C20B3F80530F3
:10042800A5F86E301DF0D8FD214641F2020002AA5F
:1004380007F07EFD0446E0B9029E4022F168954827
:10044800013126F093FA934826F0FEFA30461DF063
:10045800C3FD95F874305A060ED48F4B6FF0120412
:10046800079302234FF482518C4806AA069326F07C
:10047800B3FB204608B070BD214642F2030002AA31
:1004880007F056FD04460028F3D1029E0822F168C1
:100498008348013126F06AFA30461DF09DFD214659
:1004A80042F2020002AA07F043FD04460028E0D108
:1004B800029CE368B3F8012091B2A5F8FC2021B1B1
:1004C800DA787848114628F022FF20461DF084FD8E
:1004D80095F8746016F0200618D1022140F66D4098
:1004E80007F0D0FB0446002800F0CC8002210C3035
:1004F8001DF0CEFE0123214603704670324640F6B9
:100508006D4007F015FD04460028B2D195F89430E7
:100518001B0712D5002142F21C0002AA07F008FDB1
:1005280004460028A5D10298C368D3F80120D3F85F
:100538000530C5E936231DF04FFD95F8D0309E06ED
:1005480024D501A90DF1020007F06EFD044600282C
:100558008FD1042142F2240007F094FB06460028BC
:1005680000F0908004210C301DF092FEBDF802309E
:1005780022460380BDF804303146438042F224000D
:1005880007F0D6FC044600287FF473AF95F8D03006
:100598005C0610D5002142F22A0002AA07F0C8FC26
:1005A800044600287FF465AF0298C3685B7885F835
:1005B80018311DF011FD082142F2010007F062FB1D
:1005C800044600285ED008210C301DF061FE95F825
:1005D800D01040F2022311F0400F08BF0323024657
:1005E80088074CBF43F02C0043F00C008B0695F8AD
:1005F800D13048BF40F0400013F0090F95F89A3009
:1006080018BF40F4006003F00603CE0748BF40F06F
:100618001000062B08BF40F4C070002126F0E7FA4E
:100628002146002242F2010007F082FC044600281D
:100638007FF41FAF95F87430B5F8FC10980633D4E2
:10064800C9B941F2050002AA07F072FC0446002865
:100658007FF40FAFB5F8FC30029C4BB9E368B3F8F0
:100668000120A5F8FC209A880E48114628F04FFE74
:1006780020461DF0B1FC082140F6014007F002FBBE
:10068800044600BB6FF06804F3E600BF00000021D9
:10069800700000217800002168D30201A4990201AA
:1006A800D0000021000100210029E4D1404B4FF483
:1006B8008251079302233F4806AA06936FF0040469
:1006C80026F08AFAD5E608210C301DF0E1FD95F8F0
:1006D800D0300246D90731D44FF00051364826F0C1
:1006E80086FA2146002240F6014007F021FC044624
:1006F80000287FF4BEAE014601AA4FF6014007F07C
:1007080017FC0446F0B12D4B079302234FF4845194
:10071800284806AA069326F05FFA26F029FC044624
:1007280000287FF4A6AE0AF0D7F9044600287FF423
:10073800A0AE08B0BDE8704008F076B81AA1D1E9BB
:100748000001CCE701981DF047FC21464FF6024016
:1007580001AA07F0EDFB044608B1194BD4E7019E46
:100768000222F1681748013126F000F930461DF0E1
:1007780033FC95F8B9305B07CFD521464FF60340D7
:1007880001AA07F0D5FB08B10F4BBDE70122019C78
:100798000E48E168114426F0E9F820461DF01CFCDB
:1007A800BBE700BFAFF30080908800020080002004
:1007B8008CD30201A499020110880002AFD3020170
:1007C800D3D30201B9000021FCD30201B8000021F3
:1007D8002DE9F8430E46D0E90C17D0F82C80CC1937
:1007E8003034A045154619D81BA3D3E900231C4F64
:1007F800A1FB0701FFF75CFC0346A4EB0800A0FB84
:10080800070123F07F4414A3D3E90023FFF750FC2A
:1008180020F07F4034602860BDE8F883DFF840901E
:100828000DA3D3E90023A8FB0901FFF741FC0AA3A4
:10083800D3E90023044607F13000A0FB0901FFF7C4
:1008480037FC24F07F4420F07F4034602860BDE806
:10085800F88300BFAFF300808D49FD1A0700000040
:1008680000CA9A3B00000000002800F063812DE9CF
:10087800F04FB74C8FB094F86A30DA0700F1AA81CC
:1008880094F8292094F8353004EB8202D66A04EBF8
:100898008303D3F8388076B3374617F8020BC0F3D2
:1008A800801011F013FD05460622294604F16B005D
:1008B80026F05CF829460622384626F057F83378A1
:1008C8005B0606D50621384610F0F6FA002800F037
:1008D8008381474617F8020BC0F3801011F0F6FC2D
:1008E8000546062229469B4826F040F82946384600
:1008F800062226F03BF8337813F00E0F40F0B28052
:10090800236A1BB10C200FB0BDE8F08F13F0C0FCB8
:100918008146002800F06E8113F0C6FC824600284C
:1009280000F0658115F0EEF80546002800F06481B6
:100938004FF6FF730385D0F8880005F11C030B936D
:10094800002800F04F8105F17C0205F1780110F0D4
:10095800BFFA4FF4C023DFF800B200275946C5F8A4
:100968008031B5F8763095F88E2023F4EF6323F0C4
:10097800070343F4887343F00103A5F8763095F82C
:10098800393022F0070285F88E2003F03F0395F8EE
:100998003C2063F07F0385F8393022F0070211F814
:1009A800013B85F83C2095F8922103F0010363F39D
:1009B800000285F89221C5E912770622C5F88870E9
:1009C800A5F88C706F86C5F82E7085F83B702F657A
:1009D800A5F88671A5F87C7105F293100B9325F0A4
:1009E800C5FF0B9B95F892210BF1010163F34102BE
:1009F80085F8922105F29910062225F0B7FF2846BE
:100A080017F044FB85F84871C5F84C9115F040FB88
:100A180095F88C3160F3020385F88C3115F03EFBB4
:100A280095F88C31012160F3C50385F88C3195F870
:100A38007831284667F3410385F8783116F0D8F8FD
:100A480005F1D40017F00CF905F11C03C4E9189A54
:100A58002362C5E905772F70ED611BF065F8002862
:100A680040F0BC8094F824300121C3F342030DF117
:100A780033008DF8333010F0B5FB024600285BD008
:100A880098F80110304614F049FB0025312333490A
:100A9800A360A0FB01012CA3D3E90023C4E90555F9
:100AA80025706560E560FFF703FB2061B4F86870A6
:100AB80011F0EAFB00F109083FB9357805F00F0598
:100AC800A5F10105B5FA85F56D0994F824002369A7
:100AD80065F3000010F0010584F8240046D00020DA
:100AE80002251F4A1F4F0DAE03210493019305925F
:100AF80043462A46CDE902000896069407970090D7
:100B08000D9511F0C7FA314613F08AFCA0B90D957E
:100B18004AF2D835144A4346059203210122CDE909
:100B28000300CDE90100079708960694009511F097
:100B3800B1FA44E014F04EBA236A002B3FF4E2AE57
:100B480014F006FADEE600BF8D49FD1A0700000022
:100B5800806C0021EB6C002172CB020100CA9A3B29
:100B68009D510101E1390101F14C01014FF6FF727C
:100B780091214FF0020903922548264A049303F273
:100B88004713069402951360A7FB000301FB073186
:100B9800214B09920793214B0DAE05931AA3D3E974
:100BA8000023CDF834900896FFF782FA01464346B1
:100BB80001914A4628460321009511F01DFA314655
:100BC80013F02EFC0028B7D194F86A3043F00103E3
:100BD80084F86A30002096E6122094E614F0B8F9FA
:100BE800032090E605F18000C5F88800ABE648468A
:100BF80013F054FB072086E6504613F05BFB48468B
:100C080013F04CFBF6E700BF8D49FD1A0700000002
:100C1800002AE784746C0021E13901019D5101012A
:100C280070B5044694F824308AB0C3F342030D46E5
:100C38000DF12300012116468DF8233010F0D2FA69
:100C480071780246284614F069FA1FA3D3E90023F5
:100C58001949A0FB0101FFF72BFA236905469842C1
:100C680021D20022191A0192144A154B029102212D
:100C7800A21AA3FB0232002392090A4409911149DE
:100C880009AE059118460321CDE903330696D2B281
:100C9800009311F06FFA314613F0C2FB38B92561A1
:100CA80000200AB070BDFBD90021EA1ADBE70C204E
:100CB8000AB070BDAFF3008000CA9A3B806C002177
:100CC80009CB3D8DE13901018D49FD1A070000006E
:100CD8002DE9F04705468AB08A4601200221994647
:100CE80014461CF07FFE002202218046012010F0ED
:100CF80041F94FF4D0723849284610F0C9F8064631
:100D08000336F6B2354B012100203246009511F02A
:100D18004DFA30F002030CD041F61A73304A3149CB
:100D2800314823F054FF404080F311884FF003000E
:100D380002DF27A3D3E900232C4FA4FB0747204653
:100D48003946FFF7B5F9089506952B6907220493EC
:100D58004FF6FE7326490393264B20F07F450791F3
:100D6800A5FB033102FB0511E01A234B67EB0101D8
:100D78004FF47A7205930023FFF79AF94B460290D5
:100D8800324601210020CDE900A511F083F930F0A9
:100D980002030CD041F62F73114A1249124823F06E
:100DA80016FF404080F311884FF0030002DFB8F1CE
:100DB800000F02D10AB0BDE8F087012202211046D7
:100DC8000AB0BDE8F04710F0D5B800BFAFF3008017
:100DD8008D49FD1A07000000F0360021B55A0101BF
:100DE800DCA80201A0A9020178A2020100CA9A3B6C
:100DF8005D5A01018D49FD1A6DAD01010000000029
:100E08002DE9F04FB0F81091468EB0F82EB087B0AB
:100E18004E44BDF84440BDF84C505E44CDE904232F
:100E2800B6B283680294721BBDF8484092B2002B98
:100E38000394BDF840800446D0F80C7101910092EB
:100E480009DAC168426823F0004391422CBF7F1839
:100E5800BF188360FF1A009A638D02FB03F39BB2ED
:100E6800B3FBF8F202FB08F080B283421FFA82FA61
:100E78005AD2C01A40F2E24303FB00F058A3D3E968
:100E880000235949A0FB0101FFF712F920F07F4028
:100E98000744D9444D44AD1B40F2E24694F839303A
:100EA8005544DB09E58506FB08F54ED141F6A573E7
:100EB8004E4A4F494F4823F08AFE404080F311883C
:100EC8004FF0030002DF0026AB46029B2946A385AC
:100ED800039B2046A4F88431A4F82A8017F04CF923
:100EE800454BA18D2B44B3FBF5F3881D9AB2904274
:100EF800A4F87E2102D2521A063A92B2019BA4F8B3
:100F08007A2113B10023A4F886313B465A4631466C
:100F18002046FFF7DDFE94F8783143F0010384F8AA
:100F2800783107B0BDE8F08F08FB123140F2E24398
:100F380089B203FB01F12AA3D3E900232A48A1FBC4
:100F48000001FFF7B5F83F1AA3E7226C0099A36CDC
:100F5800DFF8949002FB1133A3641AF02DFE834648
:100F680094F86C01C0F342001AF028FE049B8344F5
:100F780006FB03F305FB0BFB23650BF5742B1F4BDB
:100F88000BF23F2BA3FB0B3B4FEA9B4303FB0AF0FF
:100F98002364A5EB030BA36C6A080344963A9342B7
:100FA80028BF1346C4E911230023A0FB0901C4F894
:100FB80074310BA3D3E90023FFF77AF8104B059A95
:100FC8003F1AA3FB023006A3D3E90023800A06FBDD
:100FD80000F0A0FB0901FFF76BF8064675E700BFB4
:100FE8008D49FD1A0700000000CA9A3BDCA80201DF
:100FF80000A3020178A202017FC3C90183DE1B435B
:101008005917B7D1000000002DE9F04F04461546E6
:101018000B6893B0D3F80090237F0622C3F3801B9C
:10102800884610A804F11E012E68CDF82CB025F0D2
:101038009DFC062210A90EA825F098FC277FD4F85D
:1010480000C0FF0909F16B0A5A46514638460EABF3
:10105800CDF828C015F028F800284BD196F8922131
:101068000C906BF3410286F892210EA9062206F233
:10107800991025F07BFC96F89221514667F30002FF
:1010880086F8922106F29310062225F06FFC2F1D98
:10109800032204F12E0105F1080025F067FC05F193
:1010A800180A042204F12A01384625F05FFC0522BB
:1010B80004F13A01504625F059FC0521504610F03C
:1010C80091F86A7F00F03F0060F305026A7794F8B0
:1010D8003F200128C2F30401A977A18E02F01F0264
:1010E800E98189B206D91B3202F01F020B2A01D806
:1010F8000C9BB9B900220126C9F8142095F82030B4
:10110800214662F3000385F82030E5680A982671C5
:1011180013F0D6F8294628682E7113F0DBF813B0BF
:10112800BDE8F08F40F2E24BD8F800201946536032
:10113800E38E30462B82628EEB890C920BFB03FA0E
:1011480017F02EF894F83F3096F86C215B0963F39A
:10115800430286F86C211AF02FFD034696F86C01BD
:101168000D93C0F342001AF029FD0D9BAC4A0344CD
:101178000AFB03F303F5742303F23F23A2FB0323C3
:101188009B0C6B624FEA5A03963BAB6294F8313082
:1011980051460BFB03F3AB63238F3046A6F884312B
:1011A80016F0EAFF9F4BA04A5344B3FBFAF3C6F884
:1011B80088219AB2A6F87E21298A881D824204DDF8
:1011C800C1F57F41FA310A4492B2A6F87A2139462C
:1011D800042206F5B87025F0C9FB234613F81C2F26
:1011E800C2F3401BDA0700F1DF809DF82C3006229D
:1011F800A3774FF480730EA9A38304F11F0025F091
:10120800B5FBEB893046E3842B8A2385B6F8843115
:10121800638596F86C31C3F3420384F82C3014F0DC
:101228007DFC03462146AB810A98E380D8F8044048
:1012380013F046F81C23AA892371E2802368BBF1C6
:10124800000F40F0C7801846214684F81CB013F000
:1012580041F895F85B00B5F85070B5F85240012197
:1012680000F007001AF0C4FA3C44312304F2A91133
:1012780000246E4F01448346B360A1FB070166A3B7
:10128800D3E900237460F460FEF712FF034640F2CE
:10129800E24C23F07F433361DDF830E0D8F80C30BE
:1012A8006D6A224602210120AAEB05050CFB0E3AC5
:1012B8000FF060FE484614F01FF902460AF2B24ADF
:1012C800AAEB0B0AAAFB0701174653A3D3E900238D
:1012D800FEF7EEFE8246CDF80490D8F80830544A5E
:1012E8003A3B00922AF07F4ABA1C20460121D2B22A
:1012F800534410F091FF012879D099F82430DB0786
:1013080060D4304614F00AFC484B0446A5FB035948
:1013180041A3D3E9002328464946FEF7C9FE0696AD
:10132800D8F808300722A3F13A084FF4EE734FF0CB
:10133800000B08933F49404B20F07F470791A7FBDC
:101348000331E81A3D4B02FB07110593336969EB3A
:1013580001014FF47A72CDE903B30023FEF7A8FE2A
:1013680001460334E4B2434602912246584601211D
:10137800CDE900A710F08EFE30F002030CD040F249
:10138800DD132F4A2F49304823F021FC404080F3D9
:1013980011884FF0030002DF0122022110460FF0EE
:1013A800E9FD13B0BDE8F08F4FF48173244A274953
:1013B800254823F00CFC404080F311884FF00300CF
:1013C80002DF12E70023012218461146009310F0AD
:1013D800EDFE96E76A7F384642F040026A770A9344
:1013E80019F0C4FD4FF0010B0A9BE8832BE713F0BB
:1013F80057F8814581D040F2A623114A1449124872
:1014080023F0E5FB404080F311884FF0030002DF32
:1014180073E700BFAFF300808D49FD1A0700000095
:1014280083DE1B437FC3C901404B4C0000CA9A3B73
:1014380031AD010101AD01018D49FD1A6DAD01010B
:10144800E4AD0201A0A9020178A2020170A4020180
:1014580040AE02010000000010B5144610F014FF61
:10146800214610F013FF034610F4000003D1DC1CE2
:10147800092C02D810BD002010BD40F2D913104A23
:101488001049114823F0A3FB07211048A4FB0003CF
:1014980001FB043108A3D3E90023FEF709FE0C4938
:1014A80002460C4823F093FB404080F311884FF02C
:1014B800030002DF012010BD00CA9A3B00000000B3
:1014C80070AE020100A3020178A202018D49FD1A43
:1014D80070B0020110B002012DE9F04F8FB00DF18C
:1014E80037010B900DF1360012F072FF9DF836A00F
:1014F8009DF837B010F0C8FE35A3D3E90023DFF814
:10150800D880364FD8F800400026A4FB07540A902C
:1015180021462846FEF7CCFD0B9BCDE907660693CE
:101528002F4B81460593D8F8040029A3D3E900235B
:10153800A0FB0701FEF7BCFD07222A4B29F07F47D5
:10154800A7FB033102FB071120F07F40CDE90360C0
:10155800E81A64EB01014FF47A720023FEF7A8FD44
:101568005A46CDE90170032150460A9B009610F0B7
:1015780091FD30F0020426D100231B4A1B4820F0BD
:10158800CFF8C0B1234603219DF837209DF83600D7
:10159800009410F00BFE30F0020311D01449E4233C
:1015A800144A154823F013FB144823F010FBE421D8
:1015B800104823F005FBD8F80C000FB0BDE8F08FF9
:1015C8006FF07300F9E76FF08B00F6E7AFF3008078
:1015D8008D49FD1A07000000A07F002100CA9A3B30
:1015E800D5EF01018D49FD1A92BD0500887F0021C4
:1015F800C1F102015BF1020195B6020106F2020196
:1016080038B50F4D044610F03FFEA96810F03EFEB5
:1016180009A3D3E90023B0FBF4F46968044409483A
:10162800A1FB0001FEF744FD20F07F40844294BFF7
:101638000020012038BD00BF8D49FD1A07000000B9
:10164800A07F002100CA9A3B70B503788AB004468F
:101658000E4607AD032B20D8DFE803F002191B1D47
:101668001149284625F039F9059563781E21049318
:10167800A37830460393E3780C4A029323790193C5
:1016880063790093A37923F0A7F80AB070BD0849DD
:10169800E7E70849E5E70849E3E70A212846074A52
:1016A80023F09AF8E0E700BF04B4020126B402016F
:1016B8000BB4020112B402011CB40201F6EA0201E1
:1016C800F0B5144689B000AF0D4625F0FDFD39464A
:1016D800FFF7BAFF6E46ACB98AB06A46124BD561BD
:1016E800C2E905374FF400731384104B4FF41351BC
:1016F80042F8103F23460E4822F022FFB546243711
:10170800BD46F0BD8AB06A460A4BC2E90754C2E931
:1017180005374FF400739384074B4FF4325142F866
:10172800103F0023E7E700BF49B4020104000001AD
:101738003C9A020167B402010500000190B589B026
:1017480000AF0C4625F0C0FD3946FFF77DFF8AB093
:101758006A46094BD461C2E905374FF40073138414
:10176800064B4FF4135142F8103F0548002322F06E
:10177800E7FE2437BD4690BD8BB40201040000018A
:101788003C9A020190B589B000AF0C4625F09CFD4B
:101798003946FFF759FF8AB06A46094BD461C2E956
:1017A80005374FF400731384064B4FF4135142F876
:1017B800103F0548002322F0C3FE2437BD4690BDE4
:1017C800AEB40201040000013C9A020180B588B061
:1017D80000AF25F079FD3946FFF736FF88B06A4635
:1017E800084B4FF4E651C2E905374FF40073938371
:1017F800054B064842F8103F002322F0A1FE20378F
:10180800BD4680BDD0B40201030000013C9A02012C
:10181800B0B588B000AF0C4625F056FD3946FFF745
:1018280013FF6D468AB06A46174BD461C2E9053783
:101838004FF400731384154B154C164842F8103FAB
:101848004FF41351002322F07BFE2068AD4618B1F7
:1018580008F020FC00232360002022F086FE78B1E7
:101868006C4688B06A460C4B4FF4C251C2E9053049
:101878000323084842F8103F002322F061FEA546E2
:101888002037BD46B0BD00BFE6B402010400000128
:10189800C84500213C9A020103B502012DE9F04137
:1018A8008EB005460C4600AF99B16D4688B06A46C1
:1018B8002D4B2E48C2E9053103234FF4C25142F89B
:1018C800103F002322F03CFEAD463837BD46BDE848
:1018D800F08107F1180625F0F7FC3146FFF7B4FE52
:1018E800E84688B06A46224B4FF4E651C2E905360D
:1018F8004FF4007393831F4B1C4842F8103F234654
:1019080022F01EFE2846C54608F09CFB1A4B1860BC
:101918001A481FF0C1FE0221284625F087FC58B15D
:10192800174B4FF486517B61022310483B6107F146
:101938001002234622F004FE012022F016FE10F0C9
:10194800FF00C2D06C4688B06A460E4B4FF4C251B5
:10195800C2E905300323054842F8103F002322F06E
:10196800EFFDA546B1E700BF1CB502013C9A020194
:1019780037B5020103000001C8450021980C002179
:1019880044B502015BB502012DE9F04F002504467C
:101998008BB000AF8846914629461A2207F10C0001
:1019A800BD6024F0EEFF204625F08EFC07F108010B
:1019B800FFF74AFE6E4688B06C464FF4007B22461D
:1019C8001F4BDFF880A0636107F10803A361A4F847
:1019D8001CB02B4642F810AF4FF4E6511A487A6013
:1019E80022F0AEFDB546A546184BC9F30B0163615D
:1019F800174BC9041448A36141F4E65143467A6879
:101A0800A4F81CB0C4F810A022F09AFD4946B546C7
:101A1800404622F097FD70B1A5466A460D4B4FF43B
:101A2800C251C2E905300323074842F8103F2B464C
:101A380022F086FDB5462C37BD46BDE8F08F00BFC5
:101A480071B50201030000013C9A0201E3B40201EE
:101A580088B502018EB502012DE9F04700AF4FF0BD
:101A6800FF334FF0FF321B481FF05AFE00231A4C79
:101A7800DFF868801A4EDFF86C9023704FF0000A88
:101A88004FF0FF324FF0FF3340461FF049FE2378F6
:101A98000C215A1C227012484A4605F097F80C226D
:101AA80050460F4986F80BA003F0C8FF0028E5D080
:101AB8006D4688B06A460C4B4FF4C451C2E90530F4
:101AC80003230A4842F8103F534622F039FDAD4639
:101AD800D4E700BF980C0021EE810021100D0021F1
:101AE800DA810021BAB50201C5B502013C9A0201AA
:101AF8007FB5084B4FF4865105930223064804939B
:101B080004AA002322F01CFD044807B05DF804EB8A
:101B18001FF0C2BDD8B502013C9A0201100D002188
:101B280038B531481EF0F2FD304C206020B9BDE8D0
:101B380038402F4822F043BE436881681B68026919
:101B48009D050ED42B4940F2D2232B4A2B4823F073
:101B58003EF82B4823F03BF840F2D221264823F0E8
:101B68002FF8136823F4007313600B68254A0921C2
:101B78009847014620B12448BDE8384022F01FBEEE
:101B88002068D0E90123126892050CD419494FF452
:101B98001D73194A194823F01AF8194823F017F841
:101BA8004FF41D71DAE709219D694FF0A0724FF0DB
:101BB8000073A847014610B1144822F000FE1449EA
:101BC800144B20684B604FF400738B608368DB69AB
:101BD8002BB101229847014620B10F48CCE76FF09E
:101BE8008501FAE738BD00BF06B60201C4450021E9
:101BF80014B6020157B6020126B6020195B60201D3
:101C0800B2B6020110000100C4B60201DCB602013E
:101C1800B8450021F91A0001FDB602012DE9F0438B
:101C28008FB0E84602AF8AB002AB07F1180006464B
:101C3800654903F110025961644903F1230499616C
:101C48006349B9616349D96103F11F0110F8015B68
:101C580001F8015FA142F9D15F4960481961002389
:101C68004FF4235122F06CFCC546FFF759FF5C483E
:101C780008F004FF30B15B4822F0A1FD3437BD46BF
:101C8800BDE8F083584808F013FF044608B15748E8
:101C9800F2E706F0F5FD054678B188B002AA544B84
:101CA8004FF4C651C2E90530032342F8103F2346DA
:101CB8004A4822F045FCC546E0E700F099FA4FF0A3
:101CC80002094C4B4FF4865107F128024348FB6246
:101CD800C7F828902B4622F033FC23F044FB4648F3
:101CE80003F0A0FE044658B188B002AA434B4FF453
:101CF800C251C2E90530032342F8103F2B46D7E70B
:101D0800DFF8FCC03D1DBCE80F000FC5DCF8003053
:101D18004A462B603B4923460094381D07F08AFC4D
:101D280070B188B002AA384B4FF4C251C2E90530ED
:101D380003232A4842F8103F234622F001FCC546F7
:101D4800324BDFF8CC90FB620223244C314DBB624E
:101D58004FF486510023214807F1280222F0F0FBB6
:101D680000214FF4203021F03DFBE84602234FF4D8
:101D780086512046BB6207F128020023C7F82C9041
:101D880022F0DEFB01233B762B7810215A1C2A70A7
:101D980007F11900204A04F019FF1021304622F0FB
:101DA80004FC0028DCD088B002AA1C4B4FF4C251B6
:101DB800C2E905300323204642F8103F002322F0F1
:101DC800BFFBC546CCE700BF1BB7020142B7020103
:101DD800000201034BB70201040000023C9A020111
:101DE8008001002157B702017001002184B7020168
:101DF800B6B70201C9B7020198010021DFB7020195
:101E0800009B0201989B02010BB8020130B8020145
:101E18004FB80201EF8100215CB802016DB80201E0
:101E2800024B9980186002481FF036BCCC4500214F
:101E3800F80C00210123B0B594B006AF3946381D1F
:101E48003B6007F03BF83B7907F10C04032B46D8BD
:101E5800DFE803F0023F41432449204624F03DFDDA
:101E6800BB7A05947A791E210492BA7907F1180091
:101E78000392FA7902923A7A01927A7A00921C4A8B
:101E880022F0AAFC1B4807F1180122F098FC022353
:101E980007223B73391D07F10D0024F067FD20462A
:101EA800082100F0FBF8044678B16D4688B006AA10
:101EB800114BC2E90530032342F8103F00234FF4C9
:101EC800C2510E4802F01CFCAD4620463837BD46CC
:101ED800B0BD0B49C1E70B49BFE70B49BDE70A2174
:101EE80020460A4A22F078FCBAE700BF04B402018F
:101EF80026B40201A5B80201BEB80201149A020173
:101F08000BB4020112B402011CB40201F6EA020188
:101F180007B5084B186826F039FB06230338ADF8D7
:101F28000500032101A88DF8043000F0B7F803B0CC
:101F38005DF804FBC84500212DE9F04186B000AFEB
:101F48002C4B7B6102233B6100234FF4865107F140
:101F58001002294802F0D4FB284800F0DFF80021DD
:101F68004FF4C03021F03EFAFFF764FF244D254CB2
:101F7800254E4FF0FF324FF0FF3328461FF0D0FBBD
:101F88002368A0881A78822A1CD0832A1DD0812A27
:101F980022D1E84688B06A461C4951611C499161C2
:101FA8004FF4007191831B4942F8101F411EC1F381
:101FB8000B01C90441F4E6510F48013302F0A0FBBC
:101FC800C546D6E7FFF7A4FFD3E7421E92B23068B2
:101FD800591C00F0F5F8CCE70F4B7B6102233B61FD
:101FE80000234FF48251044807F1100202F088FBE5
:101FF800BFE700BFD6B80201149A0201291E0001EA
:10200800F80C0021CC450021C8450021E3B40201A9
:10201800FEB802010300000108B9020110B5164B11
:10202800164C1B6886B05A68A24207D100225A6033
:10203800134806B0BDE810401FF02EBB1968114ABE
:1020480091420DD1104A126812B11989D868904787
:1020580001220E4B1B685C600D4B5A6006B010BD28
:102068000C4B05930223049300234FF484510A4830
:1020780004AA02F045FBF1E7A4010021160622207C
:10208800E00C002108042220D4450021A8010021E9
:102098000020014134B902011C9A020130B5B1F5A2
:1020A800FE6F0A4687B029D8164C174923681D6861
:1020B8008D420ED1154B05930223049300234FF450
:1020C8008251134804AA02F01BFB6FF00F0007B0FF
:1020D80030BD1960236801469A60D86824F046FC30
:1020E80001220C4B5A6040F6CD4200230A481FF0EB
:1020F80017FB0028E9D123681860E8E76FF015009E
:10210800E5E700BFA80100210804222045B9020123
:102118001C9A020100200141E00C0021002298B520
:102128001F49044600AF10461EF072F91D4B984235
:1021380013D06C4688B06A461B4BC2E905300323AE
:1021480042F8103F194800234FF4C25102F0D8FA60
:102158006FF00400A546BD4698BD154B002204212A
:1021680012201C6003F06CFE12490A6802F1100389
:10217800D360114B186800F11004C460002010608F
:102188000A6850601A68106002221B6858600B4B7E
:10219800C3F814250122C3F89025C3F80423DAE70D
:1021A800DF4502010000AD0B51B902011C9A020182
:1021B800D4450021A8010021A401002100200141EB
:1021C80070B504460E46154686B0182200216846AA
:1021D80024F0D7FB054B69462046CDE90136ADF81A
:1021E8000C500CF083FA06B070BD00BFE00100216E
:1021F80008B5044822F0E3FABDE8084002480BF0AD
:1022080085BD00BF69B90201AC0100212DE9F04F7D
:1022180091B0009302F004030193C2F3C2030133A7
:102228000493830705460E46DDF86890029240F055
:10223800FE81041D30B1072909D86FF01B0011B0C9
:10224800BDE8F08F01F00706341DC6F108064FF00F
:1022580000084FF0040B009B4746591E4FF0FF3211
:102268004346DA46CDF80C800DB1009820600498FA
:10227800002800F3E1809C48DDF800C0844503D3C2
:102288009A488445C0F0D880DDF808C0A4EB050E54
:102298001CF0020F4FEA9E0000F0E9804FF0000C9E
:1022A800D3E07A2864D84B280FD8472860D8292843
:1022B8002FD825285BD05BD820287FD0A0F1230910
:1022C800D9F1000343EB090378E0A0F14C0EBEF10D
:1022D8002E0F4DD8DFE80EF0724C4C4C4C4C4C4C49
:1022E8004C4C4C4C4E4C4C4C4C4C4C4C4C5C4C4E12
:1022F8004E5C5C5C724E6F4C724C184E184C4C81A4
:102308007E4E4C4C4E4C7E00002000234FF0040BB8
:102318003CE0A0F12A0E01205FFA8EFE00FA0EFEC4
:102328004FF6DA701EEA000F48D11EF062502FD126
:102338001EF0010342D0013C5C44CBF1000E04EADC
:102348000E04002D5ED0AAEB050EA644B6453FF656
:1023580074AF002868D1BAF1040F43D1E14659F8A7
:10236800040B2060CC464FF0040A043426E0013AFE
:10237800002323E011F8013C6C2B30D1002011F828
:10238800023C6C2B0346C1D14FF0080BDA46D2E76A
:102398000CF1070929F0070C073424F00704FCE8BE
:1023A80002AB35B105982044B0423FF646AFC4E9C8
:1023B80000AB002308344FF0080BDA4611F8010F80
:1023C800002800F0BC80002B7FF46BAF2528F5D1E6
:1023D800012301324FF0040BEFE7184695E7002080
:1023E8000346A8E7BAF1080F40F09B800CF10709F3
:1023F80029F0070CFCE8029AC4E9009A4FF0080A91
:102408000834DBE780B9BAF1040F02D10CF10409F2
:10241800A8E7BAF1080F40F084800CF1070929F009
:10242800070909F1080CE9E7E14604980138049026
:1024380059F8040B009017E70298800748D54FF029
:10244800010CA4EB050E4FEA9E00BEF5007F1DD3DC
:10245800274940F27B23274A274822F0B8FB274820
:1024680022F0B5FB40F27B21224822F0A9FB0F2F76
:102478000ED8002D46D007F1400CEC440CF8200C87
:102488000CF8102C03980130039020E00F2F0CD982
:1024980017494FF42073174A174822F098FB184839
:1024A80022F095FB4FF42071DEE7BDB107F1400E35
:1024B800EE44C0B20EF8200C0EF8102CBCF1000F40
:1024C800E0D060F07F000EF8200C08F10108013719
:1024D800C5F10800CC46043405906FE7BCF1000F45
:1024E80010D00136F3E700BF60960201DCFF02015D
:1024F8006EFF020185B9020195B60201B3B9020166
:10250800D4B90201019802360028E0D10098CDE93B
:102518000631059224F0EBF9DDE90631059A064407
:10252800D5E740F2C523434A4349444822F04FFBCC
:102538005146434822F04BFB40F2C52194E7631B08
:10254800B3F5806F0CD33C4940F2D123394A3B485C
:1025580022F03DFB3B4822F03AFB40F2D12183E7D1
:102568001DB9A6F10804E01869E6019A9B082860DD
:102578002B709DF80C30C2B1EB7085F80280B8F171
:10258800000F05D0002208A8C5F1010C97420ED112
:102598004FF0000AC5F101030DF1200902930DF176
:1025A800300B574512D1601B49E66B70E5E710F810
:1025B800013B190608D504EB0C0EB64503F07F0362
:1025C8003FF63BAE04F8013B0132DFE7B8F1000FFC
:1025D80003D099F90020002A17DB019BD3B11AF820
:1025E8000B2004F8012B0022029B98182044B042CB
:1025F8003FF623AE99F80000009904F8010B204635
:10260800039224F0B3F9039A14440AF1010A09F178
:102618000109C6E799F8002055F822300093019B7C
:10262800009845F8223024F062F9421CDCE76FF08C
:102638000D0004E685B902016EFF020195B602019C
:10264800EEB9020103BA02012DE9F04F95B000AFCF
:102658000446C7E90812D7F878B0BB6158B9AA4947
:102668004FF46573A94AAA4822F0B1FA4FF465718C
:10267800A64822F0A5FACBF3C0033B613B6A53B9E5
:102688000378467880783D6A00EB83002044AE42A8
:102698001AD8031B3B6294F80290E3784E467B619C
:1026A800B9F1000F02D01BF0010F16D17B6953BBA3
:1026B8007B6A1BB12046BA69396A98473D6A284641
:1026C8005437BD46BDE8F08F00F10108404624F0BC
:1026D8000EF9013040440135D9E7636894F800A049
:1026E800FB617B6A4FEA8A02FA6004EB8A0A002BD4
:1026F80040F00581D04600263D6A09EB0A0398455B
:102708004ED1CA4413E01BF0020FD1D094F800A0B8
:102718004FEA8A03FB60636804EB8A0AFB617B6A01
:10272800002B78D13D6AB9F1000F4ED14E461BF00F
:10273800050F0CBF022301237B627B690AEB430967
:102748000BF002033B62CA45B9D01AF8021B1AF80B
:10275800013C54F823806F4B984502D36E4B984543
:1027680039D33B69002B43D0F86921F073FF002867
:102778003ED0E8468AB06A46684B5361FB69C2E9B5
:1027880006314FF400731384654B42F8103F002361
:102798004FF41251634801F0B3FF023DC546D2E73A
:1027A80018F8012B7B6254F8220024F0A0F8FA6F85
:1027B8007B6A01303AB1D7F8802096423EBFFA6F63
:1027C80022F816000136054499E71BF004061CBFE1
:1027D8007E6ACA44ABE73B6923B1F86921F03AFF46
:1027E8000028C6D11BF0010F05D17B6AED1AAAE7B4
:1027F8003B6A002BA7D0404624F079F8FB6F43B121
:10280800D7F880309E423FBFFA6F431C22F816303B
:102818000136054497E7B9F1000F00F085801BF0F9
:10282800040600F08480C846002607F140004A46A6
:10283800514624F09BF87B69CA445B00BB607B6906
:102848000AEB43037B610BF002037B607B699A45CB
:102858006FD123781BF0020F7B61637818BF0021CA
:1028680006EB030208BF4FEA58011BF0010FD2B272
:1028780040F0E4801BF0040F14BF404600203B6189
:10288800A37894F803B0FB616270A070E1702046F1
:10289800BA69F9687B6A9847051EFFF610AF7B692D
:1028A800414623703B69BA696370FB6984F803B0D9
:1028B800A37007F140007B6A9847B0F10008C0F2A6
:1028C800EA803B6A5046A3EB0901FB68BA69C91A5A
:1028D800BB68C91A7B6A98470028C0F2DE804FF0AF
:1028E800000BA84408EB000507F1300AB345C0F215
:1028F800A7800021BA6908467B6A9847DFE64FF04F
:10290800000807F1300092E71ABA020185B90201FE
:1029180095B6020160960201DCFF020135BA020198
:1029280004000001EC9902014E46C84683E7B04610
:1029380081E71AF8021B5A4B1AF8015C54F8252053
:102948009A4202D3574B9A4216D33B692BB1F86986
:1029580021F080FE00287FF479AF7B68002B4AD0F5
:102968000F2E3ED950494FF48963504A504822F0FF
:102978002EF94FF489617BE63B692BB1F86921F0A8
:1029880069FE00287FF462AF1BF0010F0BD00F2EF9
:1029980027D9454940F23E43444A454822F017F9B1
:1029A80040F23E4164E61BF0040F3FF44FAFB8F12C
:1029B8000F0F09D93F4940F241433C4A3C4822F0B5
:1029C80006F940F2414153E608F1280307F12801CE
:1029D80008F1010203EB010808F8105C5FFA82F8BD
:1029E80034E706F1280307F12801721C5E1806F87F
:1029F800205CD6B22AE7B8F10F0F09D92D4940F269
:102A08004B432A4A2A4822F0E2F840F24B412FE68B
:102A180008F1010208F12803D2B207F128001818BA
:102A280002F1280307F1280208F102089A1800F8B1
:102A3800101C5FFA88F802F8105C07E700201EE710
:102A48001BF80A3054F8239087F82F30FB6FFBB13E
:102A580033F81B800121BA697B6A07F12F00984778
:102A680000281ADB0544B8F1000F06D1484623F0C8
:102A78003EFF00F101081FFA88F841464846BA6946
:102A88007B6A9847002808DB05440BF1010B2DE70A
:102A9800D7F87C80DEE7454611E605460FE600BF1D
:102AA80060960201DCFF0201D8BA020185B9020171
:102AB80095B60201F7BA0201014B1860704700BFD2
:102AC8007002002130B5002587B0CDE90301044626
:102AD800009503A90548059500F0A6FCDDE904303A
:102AE8009842B8BF255407B030BD00BF9D470201CA
:102AF80070B50C46002934D002680B1F9B1AD90800
:102B080023F0070313445D88E8070DD4AF23154A63
:102B18001549164822F05BF82146154822F057F867
:102B2800AF21104822F04CF8104621F06CFE084402
:102B380032F83060801B81420BD0B723094A0D4917
:102B48000A4822F044F821460B4822F040F8B72101
:102B5800E7E725F001055D801046BDE8704021F0EB
:102B68000FBF70BD28BB020149BB020195B6020127
:102B78005ABB020192BB0201B8BB02012DE9F8431E
:102B88004B1E0B400F461446066810D0C1F10009D1
:102B980009EA01094A46591E042A28BF0422194293
:102BA8000CD11F46E4B900252846BDE8F88304295E
:102BB80013D8BDE8F843114621F013BF2C494FF450
:102BC800A2732C4A2C4822F002F82C4821F0FFFF6F
:102BD8004FF4A271274821F0F3FF99460422E1E758
:102BE800B368B3EBD40FDED904F10B013944891A69
:102BF8003046C90821F05DFE80460028D3D009F18F
:102C0800040505EBC0057B1E35441D447F423D404D
:102C1800A5EB09052C442B1F07349B1B24F0070444
:102C2800A41BB0EBD30F4FEAD3074FEAE40408D252
:102C380001463A46304621F089FE4146304621F0A9
:102C4800E7FD3946304621F0DEFD3844844207D29C
:102C58003046224621F07AFE2146304621F0D8FD42
:102C680006EBC706738843F0010373809CE700BF37
:102C7800F4BB020128BB020195B602010FBC020198
:102C8800B2F5802FF8B504460ED33A4940F2EB135B
:102C9800394A3A4821F09BFF394821F098FF40F221
:102CA800EB11354821F08CFF042A0CD835494FF434
:102CB800F973314A314821F08AFF334821F087FF00
:102CC8004FF4F971EDE7043AC81D0A4420F00700F3
:102CD80022F00702121A172A4FEAD2030CD82B49FE
:102CE80040F2FB13244A254821F071FF264821F0C1
:102CF8006EFF40F2FB11D4E7B3FA83F120600024A1
:102D0800C1F12006C1F1240189000731C9084D1C11
:102D18009D428360C4600CD91D494FF40373164A61
:102D2800164821F054FF184821F051FF4FF4037161
:102D3800B7E700F10C0505EB860645F8044FB542E8
:102D4800FBD14D0045F0010545805D1A00EBC10639
:102D58006F0004807780861820F8311000EBC303D9
:102D6800748085525A8842F001025A80BDE8F840C2
:102D780021F04EBD2CBC020128BB020195B6020110
:102D880042BC020159BC02017ABC020193BC020197
:102D9800BCBC02012DE9F84F0446A38B084619076D
:102DA800154612D4022803F0070164D1204621F009
:102DB80041FE88B10138042800F23481DFE810F0C0
:102DC8005B0032018100D100010101280CBF43F0F2
:102DD800100143F02001A183143420461EF082F92B
:102DE800002840F09B819849C223984A984821F0CE
:102DF800EEFE2146B0E003F00702501F01281ED85E
:102E08000020062A2768C4E9000014D13A4603E0E6
:102E1800E08B0130E0831268002AF9D123F0070320
:102E280043F002022046A28321F004FE90B342F050
:102E38002002A2832EE023F007039AB2F2E7042AC5
:102E480033D123F007039AB22046A28321F0F2FD82
:102E580010B142F02002A283A38B03F00709894531
:102E680040F0EA80A18BCA0640F14F8121F010039F
:102E7800A38301F00701D4F81880A38BB8F1000FE1
:102E8800B9DA0022276823F00703C4E9002243F0D7
:102E98000103A383A38B03F00709894540F0CD8084
:102EA800002FDFD00026B24644E06A4940F21B13E7
:102EB800694A674821F08BFE40F21B11664821F0F1
:102EC8007FFE49B165494FF4AB73634A604821F00E
:102ED8007EFE4FF4AB71F1E723684BB9604940F2CD
:102EE80057135D4A5A4821F072FE40F25711E5E740
:102EF80023691E684EB95B494FF4AD73564A54486E
:102F080021F065FE4FF4AD71D8E70F4688464FF0C3
:102F18000609A38B23F0070343F006039BB2A383A0
:102F2800A268002A40F08B80002F40F08B80002E92
:102F380098D0BA4643F0080304F1140B5846A3830B
:102F48001EF0D0F8002840F097803F49C2233F4A3E
:102F58003F4821F03CFE5946434821F038FEC22143
:102F6800AEE0022909D0414940F25D133A4A384897
:102F780021F02DFE40F25D11A0E7E78B4FB13C49EF
:102F88004FF4AF73344A324821F021FE4FF4AF7149
:102F980094E723695E684EB9324940F261132E4ABC
:102FA8002B4821F014FE40F2611187E7A38BB84645
:102FB80023F0070343F004039BB24FF00409A383F3
:102FC800AEE7012909D02B494FF4B273224A2048B1
:102FD80021F0FDFD4FF4B27170E723684BB9204929
:102FE80040F265131C4A1A4821F0F1FD40F26511C0
:102FF80064E723699E684EB91A494FF4B473164AB8
:10300800134821F0E4FD4FF4B47157E70027A38B70
:10301800B84623F0070343F005039BB24FF00509B8
:10302800A3837DE70B4940F26B130B4A084821F054
:10303800CEFD40F26B1141E70027002670E74FF004
:10304800010A77E7924675E7B7BD02018ABD02011A
:1030580095B602016EFF0201E7BC020109BD02013B
:1030680015BD020138BD0201CEBD02014FBD0201EE
:1030780065BD020174BD020185F31188BFF36F8F2E
:10308800BAF1000F1ED1002F2FD116B120462649C4
:10309800B0474FF02003EFF3118583F31288BFF395
:1030A8006F8F58461EF010F838BB94231F4A2049EA
:1030B800204821F08CFD59461F4821F088FD9421B5
:1030C8001A48FCE6A1680029DDD00D680029DAD08D
:1030D80043464A462046D1F804A0D0471DB12B6884
:1030E80029461D46F2E72B46FAE7394643464A4643
:1030F80020463F6821F0CAFCC5E758461EF000F894
:10310800A38B23F00803A383ACE68B067FF564AE9C
:1031180021F02003A38301F0070147E685F3118816
:10312800BFF36F8FBDE8F88F453100018ABD0201FA
:10313800E3BD020195B60201F8BD0201F8B50446E7
:103148000D4600F114064FF02003EFF3118783F3C7
:103158001288BFF36F8F30461DF0B6FF68B994230D
:103168000B4A0C490C4821F032FD31460B4821F03E
:103178002EFD9421064821F023FD30461DF0C0FFA6
:10318800A5613A462046BDE8F8400121FFF702BE96
:103198008ABD0201E3BD020195B60201F8BD020134
:1031A8002DE9F04704460F4621F060FC051E67DB59
:1031B80004F114094FF02003EFF3118A83F3128806
:1031C800BFF36F8F48461DF07FFF804660B9942398
:1031D800374A3849384821F0FAFC4946374821F03F
:1031E800F6FC9421324840E048461DF089FF4FF62E
:1031F800FF72E38BA68B934206F0070643D0022E9C
:1032080013D135460133E38348461DF06BFF002890
:103218003FD1C223264A2A49274821F0D8FC4946EB
:10322800284821F0D4FCC221DCE7062E13D8DFE8B9
:1032380006F0092D1212090409006FF085054FF0F8
:103248000008E1E700233B60636883B9C4E90077BD
:1032580086B13546F3E71C4917484FF4E4731B4A17
:1032680021F0B5FC4FF4E471184821F0A9FC1F6067
:103278006760EDE7524602212046FFF78BFD354691
:103288002846BDE8F0876FF00A05D8E76FF0040517
:10329800D5E78AF31188BFF36F8FB8F1000FEFD02D
:1032A800002332463946204621F0F0FBE8E700BF0C
:1032B8008ABD0201E3BD020195B60201F8BD020113
:1032C800B7BD0201CEBD020174BD0201E7BC020117
:1032D800F8B5054600F114064FF02003EFF3118707
:1032E80083F31288BFF36F8F30461DF0EDFE60B98F
:1032F8009423244A2449254821F069FC314624486E
:1033080021F065FC94211F4829E030461DF0F8FEA5
:10331800AC8B04F00704022C15D0012C0CBF6FF005
:1033280004046FF0850430461DF0DCFE28BBC22380
:10333800144A1849154821F04AFC3146164821F02C
:1033480046FCC221DFE7EB8B5BB914490F4840F21A
:10335800EF13134A21F03BFC40F2EF11104821F023
:103368002FFC013B9BB2EB83002BDCD13A46214674
:103378002846FFF70FFD2046F8BD87F31188BFF3F5
:103388006F8FF8E78ABD0201E3BD020195B602011D
:10339800F8BD0201B7BD0201CEBD020110BE020197
:1033A800E7BC020108B54268034602F00302022A9C
:1033B80081600AD0032A4FF0000103D0012A0AD104
:1033C800596006E01868596008BD186800225A60FC
:1033D80058B90020F8E7064906484523064A21F06F
:1033E800F6FB4521044821F0EBFB21F00FF8F0E74C
:1033F8006EFF020195B602011EBE020110B5094C0E
:103408000A44914200D110BD11F8013B584003090C
:10341800E35C0001C0B243401809205C1B01DBB229
:103428005840EEE741BE02012DE9F04F81468B4638
:1034380017461C46002595B0387808B9284657E342
:103448007B1C2528039306D05946C8470028C0F29C
:103458004F830135FBE1182200210EA823F091FAD1
:103468007B78252B7DD0002398469E469C461E4699
:10347800781C014610F8012B2B2A00F0A18000F2DD
:103488009880202A00F09F80232A00F09F802BB18B
:103498009DF8403043F040038DF84030B8F1000FFC
:1034A80005D09DF8403043F020038DF84030BEF140
:1034B800000F05D09DF8403043F010038DF84030E0
:1034C800BCF1000F05D09DF8403043F008038DF89B
:1034D80040302EB19DF8403043F004038DF8403061
:1034E8009DF8403003F04400442803D16FF386135D
:1034F8008DF840309DF840302A2A43F080038DF83B
:1035080040307FD19DF841204B1C42F001028DF8DC
:1035180041201A782E2A0CBF012100219DF8412054
:1035280061F341028DF8412078D15A782A2A6ED069
:1035380000224FF00A0C0133194611F8010BA0F1D3
:103548003006092E40F295809DF840101292C1F382
:10355800400040EAD2700A4660F341028DF84020EC
:103568005CE0BA1C03928DF843309DF84130DA07CD
:1035780040F12E8154F8048BB8F1000F07DA9DF85A
:103588004020C8F1000842F004028DF840205E0790
:1035980040F1278154F804ABBAF1000F80F226817C
:1035A8009DF841306FF341038DF841304FF0FF3AF9
:1035B8001CE12D2A0DD0302A7FF469AF012358E78A
:1035C8004FF0010C55E74FF0010E52E74FF001089C
:1035D8004FE701264DE703460EFB0262303A1846D4
:1035E80010F8016BA6F1300CBCF1090FF3D9994220
:1035F8008FD09DF840101192D20F62F341018DF8DF
:10360800401086E70B4600224FF00A0EE7E79DF8C8
:103618004120023342F004028DF841201A786C2AC6
:1036280047D02BD8682A31D06A2A4BD04C2A51D09F
:103638001A4612F8013B782B03928DF843309DF817
:10364800412000F2BE806D2B51D8692B00F2B98061
:10365800572B67D8412B03D0453B022B00F2B18092
:1036680004229DF8423062F302038DF842300123B0
:1036780073E00CFB02020B46303A5DE7742A25D052
:103688007A2AD5D106219DF841200CE05A78682A7B
:103698009DF8412006D1012161F3C6028DF8412031
:1036A8000233C5E7022161F3C6028DF841200133D8
:1036B800BEE75A786C2A9DF8412001D10421EBE736
:1036C8000321F0E705219DF84120ECE707219DF84B
:1036D8004120E8E7BDF8402022F4F04222F002023F
:1036E80042F4804242F00202ADF84020DFE76E3B30
:1036F800D9B201238B4040F282410B4237D113F0FB
:10370800240F51D1D8075CD503219DF8423061F3CD
:1037180002038DF8423002F07803A3F140014B42D6
:103728004B411AE00120A3F15801C9B200FA01F196
:1037380011F4624F94D140F6010631421DD111F4C3
:10374800043F3ED09DF8423060F3020302F0780255
:10375800402A8DF8423034D000239DF84020C2F32F
:1037680040010B4363F341028DF84020FDE602213E
:103778009DF8423061F30203E8E702209DF8421009
:1037880002F0780260F30201402A8DF8421002BF6D
:103798009DF8401041F001018DF84010632BDBD1FA
:1037A800131E18BF0123D8E703219DF8423012F0F9
:1037B800780F61F302038DF8423014BF0123002310
:1037C800CBE79DF8403043F001038DF84030C3E764
:1037D8009DF94020002AACBF4FF0FF38DDF8448047
:1037E800D5E698077FF5E2AEDDF848A00023CDE9DD
:1037F80011339DF842309DF8411003F00703012B67
:10380800C1F3C30133D1CB1E042B04D8DFE803F086
:10381800214646212100236801294FEAE372CDE9B8
:103828000E321CD19DF93830DA17CDE90E32043446
:103838009DF8403013F0030650D03A4659464846A2
:10384800039B21F0A6F90028C0F252810544039F8A
:10385800F2E554F8043BDA17CDE90E32E8E702291D
:10386800E5D11AB243F3C033CDE90E23DFE7022BCB
:1038780024D1CB1E042B04D8DFE803F0181010184D
:10388800180001294FF0000254F8043B14D0022913
:10389800CDE90E32CCD19BB20E93C9E7073424F0A0
:1038A8000704F4E80223CDE90E23C1E754F8043BEA
:1038B8000E9300230F93BBE7DBB2CDE7042B08D1AF
:1038C800073424F00704D4E900230834CDE90E2393
:1038D800AEE7032BACD154F8043BDDE79DF8430079
:1038E8007828B4D862281CD825283FF4ADAD5828CC
:1038F800ADD1DDE90E010DF13603009310AA08AB36
:1039080021F001F9BAF1000F074680F29980002FE3
:103918009DD00DF13603D81B002E00F0C080013079
:10392800BDE06338152892D801A252F820F000BFF4
:103938000D3A00011F3A00015738000157380001BD
:1039480057380001573800011F3A00015738000165
:10395800573800015738000157380001AB3A0001C9
:10396800433A0001693A000157380001573800010D
:103978009139000157380001433A000157380001D6
:1039880057380001433A0001BAF1000F0E9F35DBAA
:103998005146384622F0B2FF07EB000A002F3FF4E9
:1039A80056AF00269DF8423013F01002059200F041
:1039B800928002305B06119A48BF129B104448BFA0
:1039C800C018B8F1000F049240F39F809DF8402082
:1039D800A8EB0008C2F380035007069300F1958016
:1039E800510640F188803EB159463046C847002804
:1039F8007EDB069B01351E4630227DE0384622F0EC
:103A080076FFC9E70E9B002601208DF8203008AF0D
:103A18000DF1210AC6E719075ABFC3F300135E0167
:103A28002B26DDE90E23002BBFF663AF524263EB72
:103A380043032D26CDE90E235BE7002659E7002630
:103A48009DF840200DF13603DB1B6FF386129A4573
:103A58008DF840207FF65BAFAAEB0303119356E77E
:103A68000E9890B30DF136030093002108AB10AA0D
:103A780021F049F8BDF84230BAF1000F03F0EF0326
:103A880043F4F04343F010030746ADF84230D6DA6A
:103A980000283FF4DCAE00260DF13603181A9A46CA
:103AA80080E70E9B07293FF6D2AEDFE801F00C0451
:103AB800060C08080C0C1D70C9E61D80C7E6EA173D
:103AC800C3E90052C3E61D60C1E62F4F064607F161
:103AD800050A052066E71A0748BF01306AE710465D
:103AE800079306925946C847DDE90623002804DAF9
:103AF80015B0BDE8F08F202243461946002903F18E
:103B0800FF33ECDC454498466D1A2EB159463046D1
:103B1800C8470028ECDB01359DF84230DA0601D4AD
:103B28001B0705D559463020C8470028E0DB01357A
:103B3800059B33B159469DF84300C8470028D7DB99
:103B48000135049E2E4405E059463020C847002818
:103B5800CEDB0135731B002BF6DC53463A4659463B
:103B6800484621F016F80028C2DB0544A844A8EB13
:103B78000503002B7FF76BAE59462020C847002865
:103B8800B6DB0135F3E700BF51BE020138B50D467B
:103B980004462022002122F0F4FE0022EB68E361B3
:103BA800AB68A3612B6823626B68A26263622A69AF
:103BB80023B1591E194208BF42F0010222610122B5
:103BC800002104F12C0025F0A2FB48B10549064864
:103BD8002E23064A20F0FBFF2E21044820F0F0FF98
:103BE80038BD00BF7DBE020195B6020157BE020175
:103BF8002DE9F04F87B0CDE90123436A0446013B24
:103C08008B420F46C0F0A0800026B24600F1140592
:103C18004FF02003EFF3118B83F31288BFF36F8FFC
:103C28002846D9461DF050FA58B99423494A4A49BA
:103C38004A4820F0CCFF2946494820F0C8FF942183
:103C480050E028461DF05CFA05A9204620F0CCFF7C
:103C580005998046B94228D32268236A204613F87A
:103C6800221003EB820A21F0030103F822102168D5
:103C78003A4620F0DBFF4FF00008206028461DF090
:103C880031FA20B389F31188BFF36F8FB8F1000FB1
:103C98005CD046B19DF81330002BB9D0A36913B19D
:103CA8003146204698470026B2E718B1204620F052
:103CB800CBFFE3E7DDE90132134336D0039125F06A
:103CC800DCFA039988BB28461DF00CFA68B9C223B0
:103CD800204A2449214820F07AFF2946224820F02A
:103CE80076FFC2211B4820F06BFF8BF31188BFF3CE
:103CF8006F8F04F12C00DDE901231DF011FD8046D2
:103D08004FF02003EFF3118983F31288BFF36F8F0D
:103D180028461DF0D9F9002887D0B8FA88F828462F
:103D28001DF0EEF94FEA5818A8E7226920460DF170
:103D38001303C2F3400220F0AAFFB0F100080646C0
:103D480018BF4FF0010899E74FF0000A504607B036
:103D5800BDE8F08F8ABD0201E3BD020195B60201FC
:103D6800F8BD0201B7BD0201CEBD02012DE9F04147
:103D78000446C36908460E46984704F114050746E9
:103D88004FF02003EFF3118883F31288BFF36F8F8E
:103D980028461DF099F968B99423194A19491A480F
:103DA80020F015FF2946194820F011FF94211448E6
:103DB80020F006FF28461DF0A3F933783A4643F071
:103DC800010333706168204620F030FF60602046B0
:103DD80020F050FF28461DF085F958B9C223084A3B
:103DE8000B49094820F0F3FE29460A4820F0EFFE67
:103DF800C221DCE788F31188BFF36F8FBDE8F0813B
:103E08008ABD0201E3BD020195B60201F8BD0201B7
:103E1800B7BD0201CEBD02012DE9F843044600F109
:103E280014074FF02003EFF3118883F31288BFF3D0
:103E38006F8F38461DF048F9054668B99423334A10
:103E48003349344820F0C3FE3946334820F0BFFEDA
:103E580094212E4820F0B4FE38461DF051F9D4E9DB
:103E680001329A4288BF636A9B1A002B3FD0216AAD
:103E780011F8223001EB820913F003003AD002282E
:103E880003D151F82260B60805D1D8071FD4484697
:103E9800E36998470646A1683246204620F0C6FEE8
:103EA800E168A0603246204620F0C0FEE060384657
:103EB8001DF018F900BBC223144A1849154820F010
:103EC80086FE3946164820F082FEC221C1E743F03B
:103ED800020301F82230E3694846A5689847294655
:103EE8000246204620F0A2FE0025A060DFE71D461E
:103EF800A946DCE70546FBE788F31188BFF36F8F17
:103F0800002D8ED14846BDE8F88300BF8ABD020166
:103F1800E3BD020195B60201F8BD0201B7BD020179
:103F2800CEBD02012DE9F0410446C36908460D469D
:103F3800984704F1140607464FF02003EFF3118861
:103F480083F31288BFF36F8F30461DF0BDF868B950
:103F58009423234A2349244820F039FE3146234834
:103F680020F035FE94211E4820F02AFE30461DF030
:103F7800C7F82B786FF300032B7023699B0705D5CF
:103F8800E268236A03EB82039D4219D12B783A46F3
:103F98006FF341032B70E168204620F047FEE06094
:103FA80030461DF09FF880B9C2230D4A10490E48CB
:103FB80020F00DFE31460F4820F009FEC221D2E75D
:103FC8002B6867F39F032B60EAE788F31188BFF338
:103FD8006F8F04F12C00BDE8F0411DF05DBB00BF00
:103FE8008ABD0201E3BD020195B60201F8BD0201D6
:103FF800B7BD0201CEBD02014FF02002EFF31183DD
:1040080082F31288BFF36F8F0121044AC2F840156A
:1040180083F31188BFF36F8F0020704700000841B9
:1040280020B1034B800143F001031847704700BFDC
:10403800909B02011BF002BC30B5002289B00F49E9
:104048000F4825F035FA002200230024CDE9062385
:104058000E230C4DCDE903344FF400622846CDE918
:104068000144094B094900941CF064FF084928469B
:1040780025F009F9204609B030BD00BFE141000133
:1040880070140021E80F0021B1440001708F002155
:104098008ABE02012DE9F047044607464FF00109A0
:1040A800DFF8508014B93846BDE8F08794FAA4F5D3
:1040B800B5FA85F509FA05F32E0108EB05156FEA3F
:1040C800030A24EA03042B7B002BEBD058F80630B4
:1040D8001B694BB94644736804222846196807EAE5
:1040E8000A0700F0E7FADDE7284698470028D9D103
:1040F800F0E700BF6C9A02012DE9F047DFF8B890AD
:104108002E4C8046A9EB04039F2B0F460BD92C4954
:1041180040F215132B4A2C4820F059FD40F2151196
:10412800284820F04DFD294820F02BFE064660B3B4
:1041380000252846BDE8F087237B73B12368DB6838
:104148000BB12046984723681B69B3B963680422FA
:104158002046196800F0AEFA013610344C4518D9DB
:104168001B494FF49173174A174820F030FD19483E
:1041780020F02DFD4FF49171D2E720469847002892
:10418800E4D00AFA06F31D43E6E705464FF0010AB4
:10419800E4E7D1D3B8F1000FCBD0002DC8D0284622
:1041A800FFF778FF0546002FF7D000214FF4A470E1
:1041B8001FF018F9F1E700BF7C9A02016C9A02011E
:1041C800BFBE020192BE020195B60201EC45002174
:1041D800E3BE020104BF020101481DF05DBA00BF41
:1041E800B00C0021014B53F820007047BC9B020122
:1041F80008B5034608462BB1044A136000F060FD79
:10420800002008BD6FF01500FBE700BF7402002115
:1042180010B5044C237813B903481DF03DFA012367
:10422800237010BDF0810021B00C002110B50446A8
:10423800064820F0A6FD3CB1054BD3E8EF1F013935
:10424800C3E8E21F002AF8D110BD00BFE4450021F1
:10425800E845002100200146034BD3E8EF0FC3E8EF
:10426800E21F002AF9D17047E445002170B5FFF735
:10427800F1FF05460F4C104EB44219D90F4940F2D0
:10428800CD130F4A0F4820F0A2FC0F4820F09FFCE6
:1042980040F2CD110A4820F093FC63685B792BB19A
:1042A80023685B6813B12946204698471034E3E732
:1042B800F3D370BD6C9A02017C9A0201E3BE02013D
:1042C80092BE020195B6020104BF020110B5044C6A
:1042D80004492046FFF75AFC034B1C6010BD00BF81
:1042E800C80B0021A89B0201DC45002108B500236A
:1042F800064A4FF400411370054A06481360FFF759
:1043080077FFBDE80840FFF7E1BF00BFF18100215A
:10431800E4450021874D020101460022002301489F
:10432800FFF766BCC80B00210148FFF775BD00BF49
:10433800C80B0021024B01461868FFF7F3BD00BF08
:10434800DC450021014820F0FCBC00BFC80B00215F
:1043580070B52E4B1878002857D0FFF7E5FF0546B3
:1043680040B32B4BD3E8EF1F0139C3E8E21F002A03
:10437800F8D1284C284EB44218D9284940F2C11324
:10438800274A284820F023FC274820F020FC40F248
:10439800C111234820F014FC63685B7923B12368BA
:1043A800294620461B6898471034E4E7F4D328468A
:1043B800FFF7C0FF1D4B1E4C1B68002B19DD25F0B5
:1043C8004FF84FF47A72A0FB020302FB0131C30BD2
:1043D80043EA4143D4E900209B1A40F2E9324FEA0C
:1043E800D13161EB0001934271F1000101D3FFF774
:1043F8003DFFD4E9003213F57A7342F10002C4E9B3
:104408000032BDE87040FFF79DBF70BDF08100210C
:10441800E84500216C9A02017C9A0201E3BE020180
:1044280092BE020195B6020104BF0201E4450021D3
:104438006814002170B5154D297829BB0120FFF7B4
:104448005BFE134C134EB44217D913494FF4C27391
:10445800124A134820F0BBFB124820F0B8FB4FF477
:10446800C2710E4820F0ACFB63685B791BB123680E
:1044780020469B6898471034E5E7F5D3FFF768FFB7
:104488000028FBD101232B7070BD00BFF1810021F2
:104498006C9A02017C9A0201E3BE020192BE0201FB
:1044A80095B6020104BF02012DE9F0472F4B304FAA
:1044B800FB1A1B090BD12F4940F247332E4A2F48CC
:1044C80020F085FB40F247312B4820F079FB002192
:1044D8000846FFF711FE044640B340F267684FF004
:1044E80000091EF0B3FF264B186030B1254B1B683E
:1044F800092B02DD24481DF0CFF80025DFF888A03D
:1045080044B12046FFF7C6FD044618B94FF0FF38FE
:104518004FF0FF39FFF71CFF064628B95DB9424640
:104528004B4650461DF0FCF83546E9E74FF0FF389A
:104538004FF0FF39D5E70D4D08E0F0D22B689B69A5
:104548001BB100222846114698471035BD42F4D9C0
:104558000E4940F23B33084A084820F038FB0C4823
:1045680020F035FB40F23B31AEE700BF6C9A020108
:104578007C9A020123BF020192BE020195B6020194
:10458800E0450021E8450021B00C0021E3BE02010E
:1045980004BF020113B52B4820F0F3FB2A4B1B780C
:1045A800002B34D04FF02003EFF3118483F31288EB
:1045B800BFF36F8F25481CF087FD68B99423244A00
:1045C8002449254820F003FB2049244820F0FFFA1D
:1045D80094211F4820F0F4FA1C481CF091FDFFF7C5
:1045E800B7FE1A481CF07EFD58B9C223184A1C4968
:1045F800194820F0ECFA15491A4820F0E8FAC221C7
:10460800E7E784F31188BFF36F8F02B010BD164B34
:104618001B68002BF9D050B9002200231348CDE9BC
:1046280000234FF4004200231FF0B4FBEDE70A28F3
:10463800EBD10E4824F048FF0D4802B0BDE8104009
:104648001DF02AB8E8450021F1810021D845002154
:104658008ABD0201E3BD020195B60201F8BD02015F
:10466800B7BD0201CEBD0201E04500217014002152
:10467800B00C002110B5064B04461B68984721462C
:10468800A0600448FFF772FBBDE81040FFF782BF47
:1046980074020021C80B0021044A054B9B1AB1EB98
:1046A800D30F34BF52F831000020704744990201FB
:1046B8006C9A02010E4B10B5C31A1B110133DBB201
:1046C80048B90C490C48DE230C4A20F080FADE2158
:1046D8000A4820F075FA4468237143689A710122E8
:1046E8004368196043685A71BDE81040FFF790BDF0
:1046F8006C9A0201C3BF020195B602018BBF020189
:104708002DE9F04FC1F3CB448FB0C1F349260D46D4
:104718009046994605901734002E3DD04FF0040B73
:104728004FF00A0A002209AF31460BAB4046CDF8DC
:1047380008B00197CDF800A0CDE90B220D9207969D
:10474800FDF782FFC0F30903181920F0070080085D
:104758001E4663F352250693FFF7DEFD044608B3B1
:104768000022069B10300B900C930D924046CDE929
:10477800017B124A0799CDF800A00BABFDF764FF47
:1047880000280FDA0E490F4849230F4A20F01FFA74
:1047980049210D4820F014FA24F007008008FFF79B
:1047A800BBFD044666F352254B462A46204605992A
:1047B8000FB0BDE8F04F20F016BB00BFC34D02019B
:1047C80010C0020195B60201E3BF02012DE9F04FC6
:1047D80087B00446DDE9105ADDE912690F469346B1
:1047E8009846AEB11021334652460020CDF80090CD
:1047F800CDF81490FDF70AFD011E0ADA2049682356
:10480800204A214820F0E3F968211E4820F0D8F911
:1048180031461E4B04F007040BF0070BE40003EAD3
:10482800412305F1170044EA8B141C430844184B34
:1048380020F0070003EAC54380081C430391FFF7F3
:104848006BFD054690B18EB1334652460399CDF8BB
:1048580000901030FDF7DAFC002807DA08498223B7
:10486800084A094820F0B3F98221CEE74346224698
:104878003946284607B0BDE8F04F20F0B4BA00BF6B
:104888000FC00201E3BF020195B6020100FE070056
:104898000000F87F0EB403B503AB53F8042B0146B0
:1048A8000448019320F0C6FA02B05DF804EB03B0A7
:1048B800704700BFDD480001CA0605D48B064CBF0F
:1048C80002490349FFF7E6BF704700BF85EE0201C2
:1048D80019C0020138B54B6805461A68CB680C4602
:1048E8009A4202D1084620F0ACFA6368D3E8EF2F69
:1048F800511CC3E8E01F0028F8D1A3689D546368E1
:104908001A68E3689A4209D9054906487923064A8C
:1049180020F05DF97921044820F052F9002038BDD3
:104928004BC0020195B602011CC002012DE9F04FEF
:1049380089B09B46DDE915769DF848300446049316
:10494800DDE913930593049B0D460692002B00F0B6
:10495800878006F00803079320F02DFA06F0020A74
:10496800024600284BD020468D49FFF793FF80462A
:10497800BAF1000F08D016F0440F42D12A4620465B
:104988008849FFF787FF804406F001035BB1864B37
:10499800049A204653F82220844B8549002A08BFF0
:1049A8001A46FFF777FF06F00803002B55D0814B16
:1049B800049A204653F822207F49FFF76BFF0546EB
:1049C800069B2BB11A4620467C49FFF763FF054436
:1049D800BBF1000F05D05A4620467949FFF75AFF28
:1049E80005444544B9F1000F4AD1002F61D1F307BE
:1049F80000F1CF8031462046FFF75EFFC3E08046D6
:104A0800B6E7704B18680028BDD06F4B4FF47A7E1C
:104A18001B684FF46162B5FBF3F5B5FBF0F300FBDF
:104A280013550EFB05F5B3FBF2FAB5FBF0FC3C2180
:104A380002FB1A3200FB1C55B2FBF1F30EFB05F525
:104A4800B5FBF0F501FB132220460092CDE901C524
:104A580052465E49FFF71EFF95E706F00805AFE7E7
:104A6800BBF1010F07D1B9F1000F1DD1002F00F0E4
:104A78008A8000251DE0B9F1000FF7D0544814E0F2
:104A880054484B46224654491FF0B3FD00280EDA1D
:104A9800524953484FF40073524A20F098F84FF4A3
:104AA8000071504820F08CF84A48049DE9E7002F2F
:104AB80065D0DFF83491DFF834A1102F3146204655
:104AC800B8464FF0000B28BF4FF01008FFF7F4FE70
:104AD8005D4542DC059B514620461A78FFF7DAFE11
:104AE8004FF0010B1BF0070F03D149462046FFF793
:104AF800D1FED84538D9059B5146204613F80B20DE
:104B0800FFF7C8FE0BF1010BBBF1100FEAD14FF014
:104B1800000B20463649FFF7BDFE5A46059B204646
:104B28009A5CA2F120015F2928BF2E223149FFF7A4
:104B3800B1FE0BF1010BBBF1100F1AD01BF0070FE0
:104B480003D149462046FFF7A5FED8455A46E5D881
:104B580049462046FFF79EFEEBE749462046FFF709
:104B680099FE0BF1010BB3E720462349FFF792FEAC
:104B7800C8E7059BB7EB0807434405939DD1049B01
:104B8800002B7FF434AF204609B0BDE8F04F20F089
:104B980058B92046054A0649FFF77CFE2AE700BFB8
:104BA80080C0020184C00201CC9B02017BC00201CB
:104BB800E3B40201E09B0201A9C00201AFC00201F7
:104BC800B3C00201F4450021F04500218DC0020167
:104BD800654E0201DD4800013D4E0201B8C00201E8
:104BE80095B602011CC00201C9C00201C1C0020180
:104BF800CBC002016AB80201C7C002012DE9F04129
:104C08000F884B6805460C4690468E6886B0C7F3F9
:104C180082175BB1134A9B1A43F3CF0100291FDBAC
:104C28002078C0F3C200FFF737FD0346214651F84C
:104C3800102B6088C2F34922002A01EB020408BF46
:104C48000021C0F3CB00CDE90308CDE9011400220F
:104C5800314628460097FFF769FE06B0BDE8F081A7
:104C68000023E3E74499020142F20F7373B58B42C4
:104C780028BF0B4605680446052168460D4A1FF003
:104C8800ABFD0646636828460B225B680A4920F09C
:104C9800C4F863683246694628465B6820F0BDF868
:104CA80063681B2228465B68044920F0B6F802B006
:104CB80070BD00BFCDB40201E9C00201CDC0020140
:104CC80000210123064A904206D8064A01B9012369
:104CD8001360054B18607047012140085B00F2E73C
:104CE80040420F00F0450021F44500210122014B0C
:104CF8001A707047F2810021014B0020196070473B
:104D08000C4600210122024B02481A7020F099B883
:104D1800F3810021109C02010148FFF7A5BF00BFE5
:104D2800109C020110B5064B0C461868FFF75AFA9A
:104D38002146BDE8104003460F220248184700BF2D
:104D48000C460021109C020110B9074B18707047DF
:104D5800064B1B781BB141F2883024F083BBA4209A
:104D680000211EF03FBB00BFF2810021F38100212A
:104D78002DE9F84380460E460424DFF870901C4F56
:104D880099F8005095B91BF0B1FC284632464146C7
:104D98001BF02EFC05461BF0B3FCE5B101233B706C
:104DA80099F8003073B93046BDE8F8833246414679
:104DB80000201BF01DFC0546EFE72046651EFFF7A7
:104DC800C3FF2C4600201BF087FC0028EBD03B7863
:104DD800002BF2D1E7E73B78002BE4D0013C2046DA
:104DE800FFF7B2FF3B78002BCAD1DCE7F381002143
:104DF800F28100212DE9F7430F4606460821C06AD3
:104E080020F0CAF880463C68DFF84890241A3C60D5
:104E180004EA0905AC4203D8002003B0BDE8F083DA
:104E280008236A462146304620F026F80028F4D1A7
:104E38006946304620F0BAF840B1BDF80230BDF8F6
:104E4800042005EA090513441D443C60A4EB08044A
:104E5800E0E700BF0000FFFF2DE9F04F8FB00446E8
:104E680000AF00F11408404624F01CFAA06A8368D9
:104E7800DB689847E06288B98D4B7B6302236FF04B
:104E880015054FF482518B483B6307F1300220F03F
:104E980080F828463C37BD46BDE8F08FA06A836895
:104EA800DB6898470368013B1F2B01D9824BE4E775
:104EB800A06A216807F1140224F081F808B17F4B39
:104EC800DBE7A5892DB1BB69B5FBF3F203FB1255EE
:104ED8000DB17B4BD1E7E389012B01D8794BCCE7A6
:104EE800E36A3D6093F804A04FF0FF334FF0FF32C0
:104EF80040461CF031F90821E06A20F04DF8A94637
:104F08000646E3891FFA85FB5B4508D8E3894B45CC
:104F180023D140461CF0F0F96FF02C05B9E7A189C0
:104F28000823891B89B201EB0541524620463960A6
:104F38001FF0E7FF78B1394620461FF0ABFF09F1B3
:104F4800010908235246204639681FFA89F91FF0DB
:104F5800D8FF0028DAD00135D3E75B450BD1396893
:104F6800082352462046891B1FF0CBFF18B9394643
:104F780020461FF08FFF39462046FFF73BFF0546C6
:104F880018B140461CF0B8F983E73B684FEA13496B
:104F98004FEA09496360C4F80890D4E901139942BB
:104FA8000FD3082320463A1D1FF066FF0546002848
:104FB800E7D13B1D13F8012B924544D10135082D4B
:104FC800F8D1636839461B0C1B0420463B601FF070
:104FD80061FF52462046A38939681FF092FF051EDB
:104FE800CFDB636800F082804FF6FF7A06EB030997
:104FF800A3891FFA89F29B1B9A42C7F800903CD3F9
:10500800314B4FF486517B6302232A483B6307F1F7
:1050180030021FF0BEFF204661681FF097FF05466B
:105028000028AED16368294AA18913400B44A3EB39
:105038004603636013402046A36020F099F80546B4
:10504800002D6FD09DE72046391D1FF0AFFF626825
:1050580010B9921B6260A0E73D89F988E06AC4F83C
:10506800089029441FF098FF48449042A060F0D16E
:10507800002DEED06FF01C059CE008234946204621
:1050880007F10C021FF0F8FE054600287FF479AFFF
:10509800204607F10C011FF089FF30B1BB89534549
:1050A80003D13B8A002B00F08B80B144A0E700BFFE
:1050B80039C102010C9A02015BC1020178C10201E7
:1050C80090C10201A4C1020101C202010000FFFF58
:1050D800524620465B1A1FF014FF051EFFF651AF1B
:1050E80008D0E26AA36812681344A360D4E90131C6
:1050F8008B42EDD86168A38901EB46029A429FD1A1
:10510800DFF8EC90A36801EA0902934298D02046A0
:105118001FF01CFF054600287FF433AF636803EADD
:105128000903A360A389A288A3EB46039A423DD052
:1051380040461CF0E1F80123E84688B023746D4628
:10514800E289A3894FF004092E462A49EB61C5E993
:10515800051246F8109F32464FF4035126481FF0B7
:1051680018FFC5466368AD46244A4FF403516A6187
:105178001A0C9BB2AA61EB6132461F48C5F8109021
:105188001FF007FFC546A368AD461D4AC5F8109035
:105198006A611A0C9BB2AA61EB6132464FF4035163
:1051A80015481FF0F6FE0025C54672E620461FF09A
:1051B800CAFF054640461CF09FF8002DBBD068E6A4
:1051C800104B07F130027B6302234FF486513B6397
:1051D80009481FF0DEFE636839461B0C20461B0495
:1051E8003B601FF057FE204639681FF0AFFE26E7E8
:1051F8000000FFFFC7C102010C9A0201DEC10201D3
:10520800F0C1020128C202012DE9F04F1D46037CBE
:105218000446894690468DB07BB9664B6FF00C0604
:105228000B9302234FF4825163480AAA0A931FF092
:10523800B0FE30460DB0BDE8F08FC26A08211046B6
:105248001FF0AAFE8246294610461FF0A5FEA38934
:105258000746A3EB8A03AB42C0F0A9801DB1B8F1A1
:10526800000F00F0A48063680393204604AA03A9F2
:10527800DDF80CB01FF0D2FE06460028D9D1BDF8E3
:1052880010304B4505D06268039B9A42EDD1E5B9D1
:10529800CFE7204604A91FF089FE0028F3D0BDF807
:1052A8001200BDF8143075B1AB420ED14FEA1B4164
:1052B800090401442B46424620461FF0F8FD002809
:1052C80003DC0646B5E7002BB3D0002F3ED104F12E
:1052D800140301934FF0FF324FF0FF3304F1140031
:1052E8001BF03AFFDFF8D4B0E3899E425CD0D4E9E2
:1052F8000123F9188A422CD3ADF81A30FF2306A8E7
:105308008DF81E30ADF81890ADF81C501FF038FE1F
:105318002B464246A16820461FF0CAFE294682460F
:10532800E06A1FF039FEA2680244A260BAF1000FD9
:1053380007D1204606A91FF0F5FE002814BF8246B3
:10534800AA4601981BF0D8FF564672E75744BFB2E9
:10535800BDE70821E06A1FF01FFE4FF6FF73ADF8A6
:1053680018300023ADF81C301318ADF81A30A38993
:1053780002EA0B021A44101A606006A81FF000FE29
:1053880006A920461FF0CEFE2046211D1FF082FDF3
:105398006368204603EA0B03A3601FF0E9FE824618
:1053A8000028CED101369FE76FF01B0AC9E76FF0DE
:1053B80015063EE725C102010C9A02010000FFFF15
:1053C8002DE9F0471E46037C88B004460F469046F8
:1053D800BDF8409073B92F4B2F48079302234FF421
:1053E800825106AA06931FF0D4FD6FF00C0008B096
:1053F800BDE8F0870821C06A1FF0CEFDA389A3EBA2
:105408004003B34243D30025D4F804A0CDF804A048
:105418004D455146DDF804A009D9636853451ED1AE
:10542800BDF80830BB421AD06FF00100DFE7204614
:1054380002AA01A91FF0F2FD0028D8D1BDF8083052
:10544800BB4206D1204602A91FF0B0FD08B10135C4
:10545800ADB26268019B9A42DAD15146E0E7BDF8E5
:105468000C30002BE0D0A945DED8BDF80A00090CA5
:10547800B3424FEA014128BF334601444246204621
:105488001FF0FAFC0028B2D1BDF80C00AFE76FF0AE
:105498001500ACE725C102010C9A020170B5114B49
:1054A8000D461C68DCB1104B196800238B4202DBE7
:1054B8006FF0010070BD224612F8106B864202D0D0
:1054C80014460133F2E7E06810B96FF01200F1E713
:1054D80023F0A6FE0028F8D000202C60EAE76FF041
:1054E8000C00E7E778020021209C020170B588B023
:1054F80005460C46C0B269461646FFF7CFFF00289E
:105508001BDB0098C8B14368226802938368019541
:10551800CDE903360023CDE906230593C5681FF0BE
:10552800FFFE6DB12846084901AA23F04CFD0798F3
:1055380008B9059B236008B070BD6FF01500FAE745
:105548006FF01200F7E700BF2B5302012DE9F0417D
:105558000F4B05461C680E461746ACB14FF0FF329C
:105568004FF0FF330B481BF0F7FD63683246D3F862
:10557800088029463B462046C047044605481BF09C
:10558800BBFE2046BDE8F0816FF00104F9E700BFDB
:1055980010460021840C002100230360044B5A6844
:1055A80012B9C3E90000704710605860704700BF27
:1055B80014460021014B1860704700BF10460021B7
:1055C800002330B585B00546CDE9023301904FF090
:1055D800FF334FF0FF320B481BF0BEFD0A4B1C682F
:1055E8004CB9284600F0F6F8044606481BF084FE3D
:1055F800204605B030BD636820461B6801A998475E
:105608002468EDE7840C0021144600211FB5CDE97C
:10561800010103924FF0FF334FF0FF3209481BF0AE
:105628009BFD094B1C682CB906481BF065FE2046FB
:1056380004B010BD636820461B6801A99847246818
:10564800F1E700BF840C0021144600210022024B20
:10565800C3E90022704700BF144600210022024B14
:10566800C3E90022FFF7F2BF1C4600212DE9F743EA
:1056780007460C4609B100230B600026254DDFF8CC
:1056880098904D4524D925499423254A25481FF04B
:105698009EFA25481FF09BFA942121481FF090FAA2
:1056A800D5F800803846414601AA1FF063FE50B184
:1056B80016B954B92E4606E00022404631681FF05C
:1056C80059FE0028F5D11435DBE7019B2360F1E78B
:1056D800E6D3164B1D68C5B155F8148C38464146BB
:1056E80001AA143D1FF046FE50B116B954B92E4612
:1056F80006E00022404631681FF03CFE0028F5D144
:105708006D69E8E7019B2360F1E7304603B0BDE827
:10571800F08300BF7C9A0201F49A020176C202016A
:1057280044C2020195B6020104BF02011C460021D1
:105738002DE9F04784B002AFD7F8289004460D460B
:10574800164698467860B9F1000F07D0D9F80010CE
:1057580031BBD9F804A0BAF1000F28D12046391D71
:10576800FFF784FF08B3D0F808904346324629462D
:105778007868C847C8B16D468AB002AA124BD06192
:10578800C2E905344FF400731384104B42F8103FFC
:1057980000234FF411510E48FEF7B2FFAD4604E066
:1057A8003A1D1FF0E7FD0028D3D1002007E0D9F803
:1057B800083032460093294643467868D047083770
:1057C800BD46BDE8F08700BF9EC20201040000018B
:1057D8005C9A0201F8B5064600251E4C1E4FBC42D5
:1057E8001FD91E49F4231E4A1E481FF0F0F91E480F
:1057F8001FF0EDF9F4211A481FF0E2F92EB9E36819
:105808005BB9284605461434E9E70022314620688A
:105818001FF0B0FD0028F2D1F3E79847002DF0D132
:10582800F0E7EBD3114B1C6894B1143C1EB9E36844
:105838004BB96469F8E70022314620681FF09AFDE9
:105848000028F4D1F5E79847002D08BF0546F0E792
:105858002846F8BD7C9A0201F49A020176C2020138
:1058680044C2020195B6020104BF02011C46002190
:1058780010B5074C23780BB1002010BDFFF7EEFEE2
:1058880000F066F80028F8D101232370F4E700BF80
:10589800048200212DE9F04780468946048FDFF80D
:1058A800ACA0013498B0A4B200F10806651EADB2F0
:1058B800B5F5004F47D04A23294605AA30461FF0C0
:1058C80028FD04F57F543F34A4B20746214601233E
:1058D80030460DF10B021FF01CFD002F014603DCC2
:1058E800002803DC2C46E1E7002816DCB8F838303D
:1058F800AB4209D142466B1E22F8383F4FF40041B3
:1059080002233046FFF780FC294630461FF0FDFC95
:10591800214630461FF0F9FCE4E707F160030DEB80
:1059280003070023524607F84C3C05A8CDF8009021
:1059380003AB0396ADF81040FFF7FAFE0028D1D06C
:1059480018B0BDE8F0870020FAE700BFED53020168
:105958007FB50123694604200193FFF79FFD0446A4
:10596800002834D1042002AA01A9FFF7BFFD10F1D5
:10597800130F04462BD038B10C3405D0404080F3C7
:1059880011884FF0040002DF0399B1F5803F23D25C
:1059980000231846009A9468084484421AD30133B5
:1059A800082BF9D10E4DA982EB8253682846AB60CB
:1059B800D368EB631FF0B0FD044640B9094E284692
:1059C8006E60FFF7E9FD28466E60FFF7F3FD20469D
:1059D80004B070BD9BB2E5E76FF02004F7E700BFA5
:1059E800244600217C020021034B9B681BB1481E02
:1059F80018BF0120184770476446002110B51C469F
:105A0800034B11461B680BB122469847204610BD30
:105A180064460021024B5B6803B11847704700BF1A
:105A28006446002130B1044B02681A6042685A602B
:105A380082689A60002070476446002170B50E465F
:105A48001546044686B000211822684620F099FFC2
:105A58000B490C4BCDE90116ADF80C5004932CB949
:105A68006946204608F042FE06B070BD0122204675
:105A780008F002FB0028F3D16FF01500F4E700BF2F
:105A88009C9C02011D5A0001014B1868704700BF19
:105A9800000300210822F0B589B01FF012FFCB6A7D
:105AA800002703930B6B0C4604934B6B0646059338
:105AB8008B6BCDE901770693CB6B00970793134661
:105AC8006A46114610461FF00CFE31460546304620
