:100000004022002021320000D77B0000F5310000A3
:10001000F5310000F5310000F5310000F531000048
:100020000000000000000000000000006D2B000038
:10003000F531000000000000152B0000F531000034
:10004000ED2B0000ED2B0000ED2B0000ED2B000050
:10005000ED2B0000ED2B0000ED2B0000ED2B000040
:10006000ED2B0000ED2B0000ED2B0000ED2B000030
:10007000ED2B0000ED2B0000ED2B0000ED2B000020
:10008000ED2B0000ED2B0000ED2B0000ED2B000010
:10009000ED2B0000ED2B0000ED2B0000ED2B000000
:1000A000ED2B0000ED2B0000ED2B0000ED2B0000F0
:1000B000ED2B0000ED2B0000ED2B0000ED2B0000E0
:1000C000ED2B0000ED2B0000ED2B0000ED2B0000D0
:1000D000ED2B0000ED2B0000ED2B0000ED2B0000C0
:1000E000ED2B0000ED2B0000ED2B0000ED2B0000B0
:1000F000ED2B0000ED2B0000ED2B0000ED2B0000A0
:10010000ED2B0000ED2B0000ED2B0000ED2B00008F
:10011000ED2B0000ED2B0000ED2B0000ED2B00007F
:10012000ED2B0000ED2B0000ED2B0000ED2B00006F
:10013000ED2B0000ED2B0000ED2B0000ED2B00005F
:10014000ED2B0000ED2B0000ED2B0000ED2B00004F
:04015000ED2B000093
:1001540053B94AB9002908BF00281CBF4FF0FF312A
:100164004FF0FF3000F00CB8ADF1080C6DE904CE8F
:1001740000F008F8DDF804E0DDE9022304B070477C
:10018400704700BF2DE9F04786468C460846089E16
:10019400154674461946002B40F0C1808542B2FAD8
:1001A40082F245D94AB1C2F1200300FA02FC95401B
:1001B40094402EFA03F343EA0C0C4FEA154EA8B20E
:1001C400230CBCFBFEF80EFB18CC08FB00F943EA39
:1001D4000C43994528D9EB1808F1FF3704D2994507
:1001E40002D9A8F102072B44A3EB0903A4B2B3FB81
:1001F400FEFC0EFB1C330CFB00F044EA0344A0425B
:1002040014D92C190CF1FF3304D2A04202D9ACF159
:1002140002032C44241A43EA07401EB1D4400023AD
:1002240034607360BDE8F0874746DDE76346F1E775
:1002340092BB431B01214FEA154EAFB2200CB3FB16
:10024400FEFC0EFB1C330CFB07F840EA0343984505
:1002540061D9EB180CF1FF3004D2984502D9ACF106
:1002640002002B44A3EB0803A4B2B3FBFEFC0EFB79
:100274001C330CFB07F744EA0344A7424DD92C195D
:100284000CF1FF3304D2A74202D9ACF102032C448F
:10029400E41B43EA0040C0E7C2F1200395409440C8
:1002A40020FA03F12EFA03F34FEA154E9040AFB251
:1002B4000343B1FBFEFC0EFB1C10190C0CFB07F8EE
:1002C40041EA0041884522D969180CF1FF3004D273
:1002D400884502D9ACF102002944A1EB08019BB284
:1002E400B1FBFEFC0EFB1C110CFB07F743EA0143B8
:1002F4009F420ED9EB180CF1FF3104D29F4202D970
:10030400ACF102012B44DB1B41EA004193E7604658
:10031400E3E76146F7E76046A4E76346B8E783424C
:1003240006D916B9002108467CE7C6E900E0F9E7DA
:10033400B3FA83F78FB9834201D3724508D8BEEB71
:10034400020460EB030301209C461EB9002169E707
:100354003846FAE7C6E9004CF8E7C7F1200CBB4081
:100364000EFA07F522FA0CF42EFA0CF1BA401C43EB
:1003740020FA0CF3B8404FEA144901431FFA84FEF3
:10038400B3FBF9F809FB18300B0C08FB0EFA43EA2F
:1003940000439A4540D9E31808F1FF3004D29A4546
:1003A40002D9A8F102002344A3EB0A0389B2B3FBE8
:1003B400F9F809FB183308FB0EFE41EA03418E45A8
:1003C4002CD9611808F1FF3304D28E4502D9A8F163
:1003D4000203214443EA0040A1EB0E01A0FB029872
:1003E4004145CE46434602D306D14D4504D2013899
:1003F400B9EB020E68EB0403002EA7D0B5EB0E0296
:1004040061EB030101FA0CFC22FA07F3F9404CEA10
:100414000303C6E9003199E74046C5E74346D9E7F7
:1004240030B4134604460448826815680A46AC464C
:10043400214630BC604700BFE08900007FB5084B0F
:1004440005930223049300234FF48251054804AA20
:1004540001F06CFD6FF00F0007B05DF804FB00BF06
:10046400E08F00007C8C0000F8B56C4600AF88B0CB
:1004740005466A460326214BC2E9053042F8106F4F
:1004840000234FF4C6511E4801F050FD012DA5462E
:1004940013D11C4D1C4A2B681B6893420FD088B0A3
:1004A4006A461A49C2E9051342F8106F00234FF453
:1004B400C451134801F03AFDA546BD46F8BD88B0C5
:1004C4006A46134B13495361134B93614FF4007302
:1004D4009383124B42F8103F2B689868DB6801EA5B
:1004E400C04141F4E651064801F020FD00232A688A
:1004F400A54613602A685360DFE700BFEC8F000055
:100504007C8C00000000002008042220FA8F0000E8
:10051400509800000000F87F0E90000003000001D6
:10052400B1F5FE6F0A4638B519DC0E490E4C0B685E
:100534001D68A54206D15D68012D03D1BDE8384090
:10054400FFF77CBF1C6001240B680146C3E901422C
:10055400D86807F085FB0020044B1C6038BD6FF0A1
:100564001500FBE7040000200804222000A002502C
:10057400B0B50024164B00AF012120461C70FFF7D4
:10058400CFFF88B16D4688B06A46124BC2E9053088
:10059400032342F8103F4FF4C25123460E4801F0A2
:1005A400C5FCAD46BD46B0BD6C4688B06A460B4B33
:1005B40053614FF0FF339361032342F8103F4FF42C
:1005C400C6510346044801F0B1FCA546EAE700BF62
:1005D400D0110020199000007C8C000030900000A5
:1005E400F0B58DB000AF6E4807F0FDFE10B96D4850
:1005F40006F0D1FE6C4A6D4C07CA87E807004FF439
:1006040083726B490025C7E90312AE2210212270C0
:10061400E171D5222021627021728022A121A27071
:10062400A172A822C821E270E1723F22DA2122716C
:100634002173D32212216271617340228121A2713C
:10064400A173E2749F21A422E1732275D921A62209
:100654002174627522212E226174A275DB21AF22DE
:10066400544E7F616572A174E275304614F8011B23
:10067400013506F090FE182DF7D100224E4907F1FE
:100684000C00FFF7CDFE04464C4A4B4907F10C0021
:10069400FFF7C6FE1CB12146494806F07CFE6C46B5
:1006A4008AB06B46474903F110025961464907F184
:1006B40018009961454903F12305B9614449D96199
:1006C40003F11F0110F8016B01F8016FA942F9D180
:1006D4004049196100234FF423513F4801F026FC9F
:1006E4000022A54610463D4904F072FF0022042171
:1006F4002A2002F0BDF93A483A4A016801F1100390
:10070400CB60136803F11004DC6000230B60016804
:100714004B6011680B601268334953600122C1F8C1
:1007240010250222C1F89425C1F804232F49C7E9F2
:100734000A212F4C284D4FF48651274807F12802EF
:1007440001F0F4FB0223FC62BB6200234FF48651E8
:10075400284607F1280201F0E9FBFFF709FF1649D3
:10076400002207F10C00FFF75BFE014610B11448AC
:1007740006F011FE0021114A07F10C00FFF750FEAC
:10078400014610B10E4806F006FE1A4B1A481978B5
:1007940006F001FE00214FF4004005F0E5FFD1E72B
:1007A400E089000045900000F08C0000D111002089
:1007B40000093D006390000018000020080000209C
:1007C400739000008D900000B590000000020103BA
:1007D400BE900000040000027C8C00006D04000048
:1007E400040000200000002000A00250CA90000075
:1007F400D8900000D0110020EF9000002DE9F04FB8
:1008040091B0009302F004030293C2F3C2030133D4
:10081400840705460E46DDF868800392059340F090
:10082400BD81041D30B1072909D86FF01B0011B038
:10083400BDE8F08F01F00706341DC6F10806009BE1
:100844004FF000094FF0040A591E4FF0FF334F4692
:100854000193CB465346CDF810900DB1009A226017
:100864000598002800F3EB809948009A824203D34C
:1008740098488242C0F0E380039AA4EB050E9207E5
:100884004FEA9E0000F106810F2F00F2B480002D84
:1008940000F0088107F140020DEB020C019A0CF8FC
:1008A400200C0CF8102C049801300490EAE07A280B
:1008B40060D84B280ED847285CD829282FD825285B
:1008C40055D057D820287DD02338D0F1000B4BEBDE
:1008D400000B77E0A0F14C0CBCF12E0F4AD8DFE8F6
:1008E4000CF07149494949494949494949494C49DF
:1008F400494949494949495A494C4C5A5A5A714CEF
:100904006E497149184C18494983804C49494C49EE
:10091400800000204FF0000B4FF0040A39E0012260
:10092400A0F12A0C5FFA8CFC02FA0CFC1CEA0E0FF4
:1009340048D11CF062502ED11CEA020B42D0013C7B
:100944005444CAF1000C04EA0C04002D61D0A3EB5A
:10095400050CA444B4453FF668AF002868D1042BC5
:1009640047D158F8043B2360042304342AE0019A55
:10097400013A01924FF0000B24E011F8010C6C28AD
:1009840034D1002011F8023C83466C2BC4D14FF0C3
:10099400080A5346D3E708F1070828F00708073484
:1009A40024F00704F8E802AB35B106982044B042BD
:1009B4003FF63BAFC4E900AB4FF0000B08344FF0F7
:1009C400080A534611F8010F002878D0BBF1000F34
:1009D4007FF46DAF2528F5D14FF0010B019B013356
:1009E40001934FF0040AECE7584693E7002083464E
:1009F400A5E7082B02D06FF0150018E708F10708E7
:100A040028F00708F8E80223C4E90023082308347F
:100A1400D8E768B9042B02D108F10408A4E7082B2D
:100A2400E9D108F1070828F0070808F10808EDE7FC
:100A3400059A013A059258F8042B00920DE7039A9F
:100A4400900720D54FF0010CA4EB050E4FEA9E0051
:100A5400BEF5007FCFD20F2FCDD8F5B107F14002FC
:100A64000DEB020E019AC0B20EF8200C0EF8102CF9
:100A7400BCF1000F3FF417AF60F07F000EF8200CBC
:100A840009F101090137C5F108024FF6DA7E043491
:100A9400069297E74FF0000CDAE7BCF1000F01D0A3
:100AA4000136EFE7029802360028EBD10098CDE931
:100AB400063107F0C5F8DDE906310644E2E7631BB9
:100AC400B3F5806F97D23DB9A6F10804E018AEE6FD
:100AD40010890000F09A0000029A9B0828602B708D
:100AE4009DF81030C2B1EB7085F80290B9F1000F97
:100AF40005D0002208A8C5F1010C97420ED14FF091
:100B0400000AC5F101030DF1200801930DF1300B2A
:100B1400574512D1601B8AE66B70E5E710F8013B7C
:100B2400190608D504EB0C0EB64503F07F033FF617
:100B34007CAE04F8013B0132DFE7B9F1000F03D0CA
:100B440098F90020002A17DB029BD3B11AF80B2076
:100B540004F8012B0022019B98182044B0423FF670
:100B640064AE98F80000009904F8010B2046039243
:100B740007F076F8039A14440AF1010A08F101080F
:100B8400C6E798F8002055F822300093029B00989D
:100B940045F8223007F054F8421CDCE76FF00D00F2
:100BA40045E600BF2DE9F04F95B000AFD7F878B017
:100BB400BB61CBF3C00304467A623B61396251B92D
:100BC4000D4603784678807800EB83002044AE42DB
:100BD4001AD8031B3B6294F80290E3784E467B617B
:100BE400B9F1000F02D01BF0010F16D17B6953BB82
:100BF4007B6A1BB12046BA69396A98473D6A284620
:100C04005437BD46BDE8F08F00F10108404607F0B7
:100C140017F8013040440135D9E7636894F800A01F
:100C2400FB617B6A4FEA8A02FA6004EB8A0A002BB2
:100C340040F00281D04600263D6A09EB0A03434591
:100C44004ED1CA4413E01BF0020FD1D094F800A097
:100C54004FEA8A03FB60636804EB8A0AFB617B6AE0
:100C6400002B78D13D6AB9F1000F4ED14E461BF0EE
:100C7400050F0CBF022301237B627B690AEB430946
:100C84000BF002033B62CA45B9D01AF8021B1AF8EA
:100C9400013C54F82380AD4B984502D3AC4B9845A6
:100CA40039D33B69002B43D0F86906F03AFB00289E
:100CB4003ED0E8468AB06A46A64B5361FB69C2E956
:100CC40006314FF400731384A34B42F8103F002302
:100CD4004FF41251A14801F029F9023DC546D2E76B
:100CE40018F8012B7B6254F8220006F0A9FFFA6F72
:100CF4007B6A01303AB1D7F8802096423EBFFA6F42
:100D040022F816000136054499E71BF004061CBFBF
:100D14007E6ACA44ABE73B6923B1F86906F001FB7C
:100D24000028C6D11BF0010F05D17B6AED1AAAE792
:100D34003B6A002BA7D0404606F082FFFB6F43B10D
:100D4400D7F880309E423FBFFA6F431C22F816301A
:100D54000136054497E7B9F1000F72D01BF0040681
:100D640072D0C846002607F140004A46514606F0B4
:100D740077FF7B69CA445B00BB607B690AEB430372
:100D84007B610BF002037B607B699A455ED123781B
:100D94001BF0020FFB61637818BF002106EB03020E
:100DA40008BF4FEA58011BF0010FD2B240F09D80FA
:100DB4001BF0040F14BF4046002094F802B094F8CE
:100DC40003A03B616270A070E1702046BA69F968C3
:100DD4007B6A9847051EFFF612AFFB6941462370F4
:100DE4003B69BA69637084F802B07B6A84F803A033
:100DF40007F140009847B0F10008C0F2A3803B6AB5
:100E0400BA69A3EB0901FB687869C91ABB68C91AF6
:100E14007B6A98470028C0F297804FF0000BA844E3
:100E240008EB000507F1300AB34560DB0021BA691D
:100E340008467B6A9847E2E64FF0000807F1300065
:100E440093E74E46C84694E7B04692E71AF8021B69
:100E54003E4A1AF8015C54F82530934202D33C4AC6
:100E640093421CD33B6923B1F86906F05AFA00286F
:100E74008AD17B68F3B908F1280207F128000244FB
:100E840008F1010302F8101C07F1500208F10208EE
:100E940052FA83F35FFA88F803F8105C74E73B694D
:100EA4002BB1F86906F03DFA00287FF46DAF1BF012
:100EB400010F09D006F1280207F12801731C561806
:100EC40006F8205CDEB25FE71BF0040F3FF45CAF72
:100ED40008F1280207F1280108F1010302EB0108D7
:100EE40008F8105C5FFA83F84EE7002065E71BF80A
:100EF4000A3054F8239087F82F30FB6FFBB133F896
:100F04001B800121BA697B6A07F12F0098470028EA
:100F14001ADB0544B8F1000F06D1484606F090FEEE
:100F240000F101081FFA88F841464846BA697B6A0D
:100F34009847002808DB05440BF1010B74E7D7F848
:100F44007C80DEE745465AE6054658E610890000EF
:100F5400F09A00000391000004000001648C00007A
:100F6400014B1860704700BF2800002030B50025F1
:100F740087B0CDE903010446009503A9054805950A
:100F840000F018F9DDE904309842B8BF255407B0E1
:100F940030BD00BF757300002DE9F047058B044692
:100FA4002807904611D4022905F0070540F0CD80AA
:100FB400204606F014FA78B10138218B042811D8A0
:100FC400DFE800F0C3106D85950001290CBF45F0E2
:100FD400100545F02005258388F31188BFF36F8F32
:100FE400BDE8F08701F0070AAA4500F0A6800027B3
:100FF400B9463E46A368002B00F0BD8041F00801CD
:10100400218388F31188BFF36F8FA168002900F052
:10101400BB800D68002900F0B78033465246204655
:10102400D1F80480C047002D76D02B6829461D4690
:10103400F0E701F007035A1F012A1BD8002221F010
:101044000701062B276889B2C4E9002209D13B466F
:1010540003E0628B013262831B68002BF9D141F0FB
:1010640002012046218306F0BAF900287BD041F022
:10107400200177E0042B0AD121F0070189B2204630
:10108400218306F0ACF910B141F020012183218BBA
:1010940001F0070AAA4550D00027B946AAE72369F8
:1010A40021F0070141F00601062DD3F800902183B9
:1010B4002DD1B9F1000F40D041F00801218388F30C
:1010C4001188BFF36F8F20463949C84729E021F0C2
:1010D4000701236941F0040189B2042DD3F8049077
:1010E4002183E6D000274FF0040A3E4682E721F030
:1010F4000701236941F0050189B2052DD3F8089051
:101104002183D6D000274FF0050A3E4672E7002718
:101114004FF0060A3E466DE72B4687E7B9F1000F0C
:10112400D1D14FF02003EFF3118883F31288BFF37A
:101134006F8F238B23F008032383258BEA062ED598
:1011440025F01003238305F007056669218B002E23
:10115400BFF66FAF00232768C4E9003321F007010D
:1011640041F001012183218B4FF0000901F0070AAE
:10117400AA457FF43FAF002F9BD041F008012183A3
:1011840088F31188BFF36F8F002FC7D03D683946AD
:1011940033465246204606F04EF92F46F4E7AB0696
:1011A4007FF51AAF25F02003238305F00705FFE63A
:1011B400677400002DE9F04F81468B4617461C46A4
:1011C400002595B0387808B9284657E37B1C2528B4
:1011D400039306D05946C8470028C0F24F8301350F
:1011E400FBE1182200210EA806F045FD7B78252B93
:1011F4007DD0002398469E469C461E46781C014698
:1012040010F8012B2B2A00F0A18000F29880202AEC
:1012140000F09F80232A00F09F802BB19DF840307E
:1012240043F040038DF84030B8F1000F05D09DF82D
:10123400403043F020038DF84030BEF1000F05D05C
:101244009DF8403043F010038DF84030BCF1000F9E
:1012540005D09DF8403043F008038DF840302EB19E
:101264009DF8403043F004038DF840309DF8403041
:1012740003F04400442803D16FF386138DF8403003
:101284009DF840302A2A43F080038DF840307FD106
:101294009DF841204B1C42F001028DF841201A7840
:1012A4002E2A0CBF012100219DF8412061F3410247
:1012B4008DF8412078D15A782A2A6ED000224FF036
:1012C4000A0C0133194611F8010BA0F13006092E5E
:1012D40040F295809DF840101292C1F3400040EA1C
:1012E400D2700A4660F341028DF840205CE0BA1CDB
:1012F40003928DF843309DF84130DA0740F12E8196
:1013040054F8048BB8F1000F07DA9DF84020C8F1B7
:10131400000842F004028DF840205E0740F1278166
:1013240054F804ABBAF1000F80F226819DF84130E5
:101334006FF341038DF841304FF0FF3A1CE12D2A41
:101344000DD0302A7FF469AF012358E74FF0010C28
:1013540055E74FF0010E52E74FF001084FE7012621
:101364004DE703460EFB0262303A184610F8016B53
:10137400A6F1300CBCF1090FF3D999428FD09DF836
:1013840040101192D20F62F341018DF8401086E7AC
:101394000B4600224FF00A0EE7E79DF84120023386
:1013A40042F004028DF841201A786C2A47D02BD8D9
:1013B400682A31D06A2A4BD04C2A51D01A4612F8E6
:1013C400013B782B03928DF843309DF8412000F2C5
:1013D400BE806D2B51D8692B00F2B980572B67D88A
:1013E400412B03D0453B022B00F2B18004229DF82F
:1013F400423062F302038DF84230012373E00CFBA8
:1014040002020B46303A5DE7742A25D07A2AD5D1F8
:1014140006219DF841200CE05A78682A9DF8412065
:1014240006D1012161F3C6028DF841200233C5E7DC
:10143400022161F3C6028DF841200133BEE75A78D8
:101444006C2A9DF8412001D10421EBE70321F0E748
:1014540005219DF84120ECE707219DF84120E8E7AC
:10146400BDF8402022F4F04222F0020242F480420D
:1014740042F00202ADF84020DFE76E3BD9B201230F
:101484008B4040F282410B4237D113F0240F51D1EB
:10149400D8075CD503219DF8423061F302038DF82F
:1014A400423002F07803A3F140014B424B411AE071
:1014B4000120A3F15801C9B200FA01F111F4624FFD
:1014C40094D140F6010631421DD111F4043F3ED0BF
:1014D4009DF8423060F3020302F07802402A8DF84E
:1014E400423034D000239DF84020C2F340010B4326
:1014F40063F341028DF84020FDE602219DF842305D
:1015040061F30203E8E702209DF8421002F078023A
:1015140060F30201402A8DF8421002BF9DF840108A
:1015240041F001018DF84010632BDBD1131E18BF6D
:101534000123D8E703219DF8423012F0780F61F3BC
:1015440002038DF8423014BF01230023CBE79DF83A
:10155400403043F001038DF84030C3E79DF940204B
:10156400002AACBF4FF0FF38DDF84480D5E6980779
:101574007FF5E2AEDDF848A00023CDE911339DF8F4
:1015840042309DF8411003F00703012BC1F3C3015E
:1015940033D1CB1E042B04D8DFE803F021464621C7
:1015A4002100236801294FEAE372CDE90E321CD1F0
:1015B4009DF93830DA17CDE90E3204349DF8403005
:1015C40013F0030650D03A4659464846039B06F0AA
:1015D40034F80028C0F252810544039FF2E554F820
:1015E400043BDA17CDE90E32E8E70229E5D11AB255
:1015F40043F3C033CDE90E23DFE7022B24D1CB1E06
:10160400042B04D8DFE803F018101018180001297F
:101614004FF0000254F8043B14D00229CDE90E32F5
:10162400CCD19BB20E93C9E7073424F00704F4E845
:101634000223CDE90E23C1E754F8043B0E930023A3
:101644000F93BBE7DBB2CDE7042B08D1073424F0BA
:101654000704D4E900230834CDE90E23AEE7032BB5
:10166400ACD154F8043BDDE79DF843007828B4D8A6
:1016740062281CD825283FF4ADAD5828ADD1DDE94A
:101684000E010DF13603009310AA08AB05F08FFF8D
:10169400BAF1000F074680F29980002F9DD00DF11A
:1016A4003603D81B002E00F0C0800130BDE0633843
:1016B400152892D801A252F820F000BF9517000017
:1016C400A7170000DF150000DF150000DF1500007C
:1016D400DF150000A7170000DF150000DF1500006C
:1016E400DF150000DF15000033180000CB170000E1
:1016F400F1170000DF150000DF15000019170000C6
:10170400DF150000CB170000DF150000DF15000017
:10171400CB170000BAF1000F0E9F35DB5146384657
:1017240006F095FA07EB000A002F3FF456AF0026A7
:101734009DF8423013F01002059200F092800230BE
:101744005B06119A48BF129B104448BFC018B8F1F9
:10175400000F049240F39F809DF84020A8EB0008FE
:10176400C2F380035007069300F19580510640F1BF
:1017740088803EB159463046C84700287EDB069B28
:1017840001351E4630227DE0384606F059FAC9E795
:101794000E9B002601208DF8203008AF0DF1210AA0
:1017A400C6E719075ABFC3F300135E012B26DDE910
:1017B4000E23002BBFF663AF524263EB43032D2687
:1017C400CDE90E235BE7002659E700269DF840206B
:1017D4000DF13603DB1B6FF386129A458DF840201A
:1017E4007FF65BAFAAEB0303119356E70E9890B311
:1017F4000DF136030093002108AB10AA05F0D7FEC3
:10180400BDF84230BAF1000F03F0EF0343F4F043A4
:1018140043F010030746ADF84230D6DA00283FF40F
:10182400DCAE00260DF13603181A9A4680E70E9BAB
:1018340007293FF6D2AEDFE801F00C04060C0808D5
:101844000C0C1D70C9E61D80C7E6EA17C3E90052F7
:10185400C3E61D60C1E62F4F064607F1050A0520C1
:1018640066E71A0748BF01306AE7104607930692F5
:101874005946C847DDE90623002804DA15B0BDE857
:10188400F08F202243461946002903F1FF33ECDC94
:10189400454498466D1A2EB159463046C84700282B
:1018A400ECDB01359DF84230DA0601D41B0705D57F
:1018B40059463020C8470028E0DB0135059B33B189
:1018C40059469DF84300C8470028D7DB0135049EDC
:1018D4002E4405E059463020C8470028CEDB0135A8
:1018E400731B002BF6DC53463A465946484605F02E
:1018F400A4FE0028C2DB0544A844A8EB0503002B82
:101904007FF76BAE59462020C8470028B6DB013567
:10191400F3E700BFB791000008B54FF02002EFF3E2
:10192400118382F31288BFF36F8F01F0A7FC034881
:1019340005F031FD00F0EEFFFCE700BFBD910000B3
:1019440010B5094B094C00F01F024009012818BFCB
:10195400234603EB8203D3F8002222F0E04242EA5A
:101964000172C3F8002210BD002884500025845061
:1019740070B54FF02003EFF3118683F31288BFF3A1
:101984006F8F0124134B144DC3F800450223032128
:10199400C5F8D0360020FFF7D3FF2046FFF7D0FF6D
:1019A4002146C5F804472120C5F80449C5F8004B71
:1019B400FFF7C6FF2020FFF7C3FF0B20FFF7C0FF90
:1019C4000A20FFF7BDFF86F31188BFF36F8F002055
:1019D40070BD00BF001000500040005048B1054BDE
:1019E400054A1B68B3FBF2F35843044B43F001036D
:1019F40018477047F400002040420F00008D00009B
:101A0400062807D10122044BC3F80025BFF34F8FEA
:101A140020BFFDE7704700BF0040005003F014B939
:101A24002DE9F047044607464FF00109DFF85080DE
:101A340014B93846BDE8F08794FAA4F5B5FA85F5EB
:101A440009FA05F32E0108EB05156FEA030A24EAE7
:101A540003042B7B002BEBD058F806301B694BB9E1
:101A64004644736804222846196807EA0A0700F006
:101A740049FADDE7284698470028D9D1F0E700BFA6
:101A8400D48C000030B5002289B00F490F4806F00D
:101A940081FE002200230024CDE906230E230C4DF1
:101AA400CDE903344FF440722846CDE90144094B93
:101AB4000949009404F0E8F90849284606F0F5FCC1
:101AC400204609B030BD00BFE51A00002007002001
:101AD40098020020B51D000000120020EA910000C9
:101AE400014804F02BBB00BF800200202DE9F04721
:101AF40080461F480F4605F0CDFF0646002830D02B
:101B040000252846BDE8F087237B73B12368DB6892
:101B14000BB12046984723681B69D3B96368042234
:101B24002046196800F0EEF9013610344C45EBD329
:101B3400B8F1000FE5D0002DE2D02846FFF770FF82
:101B44000546002FF7D000214FF4A47004F00CFEDA
:101B5400F1E7204698470028E0D00AFA06F31D432F
:101B6400E2E705464FF0010A024CDFF80C90DDE78E
:101B740030090020D48C0000E48C0000014B53F8A1
:101B8400200070471C8D000008B5034608462BB1A1
:101B9400044A136000F03CFC002008BD6FF01500FF
:101BA400FBE700BF2C00002010B5044C237813B9C8
:101BB400034804F0C3FA0123237010BDE911002087
:101BC4008002002010B50446064805F063FF3CB1CE
:101BD400054BD3E8EF1F0139C3E8E21F002AF8D10F
:101BE40010BD00BF280900202C0900200020014658
:101BF400034BD3E8EF0FC3E8E21F002AF9D1704783
:101C04002809002070B5FFF7F1FF0546074C084E80
:101C1400B44200D370BD63685B792BB123685B6801
:101C240013B12946204698471034F1E7D48C0000BC
:101C3400E48C000010B5044C0449204605F0C1FDB5
:101C4400034B1C6010BD00BFEC010020088D000098
:101C54002009002008B50023064A4FF40041137000
:101C6400054A06481360FFF78FFFBDE80840FFF7F9
:101C7400E1BF00BFEA11002028090020957A000086
:101C8400014600220023014805F0BCBDEC01002000
:101C9400014805F055BE00BFEC010020024B01468F
:101CA400186805F09DBE00BF20090020014805F01A
:101CB400CBBE00BFEC01002070B5264B187800287D
:101CC40047D0FFF7E5FF054670B1234BD3E8EF1F7C
:101CD4000139C3E8E21F002AF8D1204C204EB44257
:101CE4002DD32846FFF7DAFF1E4B1F4C1B68002B31
:101CF40019DD06F049FD4FF47A72A0FB020302FBE2
:101D04000131C30B43EA4143D4E900209B1A40F25A
:101D1400E9324FEAD13161EB0001934271F10001E4
:101D240001D3FFF76FFFD4E9003213F57A7342F160
:101D34000002C4E90032BDE87040FFF7B7BF636832
:101D44005B7923B12368294620461B6898471034E1
:101D5400C5E770BDE91100202C090020D48C0000D7
:101D6400E48C0000280900201807002070B50D4DF0
:101D7400297861B90120FFF7B9FE0B4C0B4EB44230
:101D840006D3FFF799FF0028FBD101232B7070BD08
:101D940063685B791BB1236820469B6898471034BD
:101DA400EDE700BFEA110020D48C0000E48C0000B1
:101DB40000212DE9F0470846FFF798FE044648B392
:101DC40040F267684FF0000904F0E8FC1A4B186011
:101DD40030B11A4B1B68092B02DD194804F0AEF927
:101DE4000025184FDFF858A044B12046FFF718FE2D
:101DF400044618B94FF0FF384FF0FF39FFF75CFF86
:101E0400064628B9B5B942464B46504604F0BCF9DB
:101E14003546E9E74FF0FF384FF0FF39D4E72B6838
:101E24009B691BB100222846114698471035BD42D4
:101E3400F5D3E8E7044DFAE7240900202C09002033
:101E440080020020E48C0000D48C000013B51848F4
:101E540005F020FE174B1B787BB14FF02003EFF306
:101E6400118483F31288BFF36F8FFFF725FF84F388
:101E74001188BFF36F8F02B010BD0F4B1B68002B8E
:101E8400F9D050B9002200230C48CDE900234FF4C7
:101E94000042002304F0C0FEEDE70A28EBD1074816
:101EA40006F084FC064802B0BDE8104004F046B9D0
:101EB4002C090020EA11002024090020200700201A
:101EC4008002002010B5064B04461B689847214643
:101ED400A060044805F014FDBDE81040FFF7B6BF4C
:101EE4002C000020EC010020044A054B9B1AB1EBA6
:101EF400D30F34BF52F8310000207047448C0000E7
:101F0400D48C0000084B10B4C31A44681B1101336D
:101F1400237143689A7101224368196043685A71B6
:101F240010BCFFF741BE00BFD48C00002DE9F04F78
:101F3400C1F3CB448FB0C1F349260D469046994670
:101F440005901734002E3CD04FF0040B4FF00A0AD2
:101F5400002209AF31460BAB4046CDF808B00197DB
:101F6400CDF800A0CDE90B220D920796FEF71AFEDC
:101F7400C0F30903181920F0070080081E4663F314
:101F840052250693FFF77CFE044678B10022069B97
:101F940010300B900C930D924046CDE9017B0C4A16
:101FA4000799CDF800A00BABFEF7FCFD66F35225B4
:101FB4004B462A46204605990FB0BDE8F04F05F080
:101FC4009BBD24F007008008FFF75AFE0446EDE7A6
:101FD400D17A00002DE9F04F87B00446DDE9105AAC
:101FE400DDE912690F4693469846B6B3102133468D
:101FF40052460020CDF80090CDF81490FEF7FEFB79
:102004000146174B04F007040BF0070BE40003EA46
:10201400412305F1170044EA8B141C430844114B77
:1020240020F0070003EAC54380081C430391FFF72F
:1020340027FE054640B13EB1334652460399CDF8DA
:1020440000901030FEF7DAFB434622463946284614
:1020540007B0BDE8F04F05F04FBD3146D1E700BFF2
:1020640000FE07000000F87F0EB403B503AB53F87D
:10207400042B01460448019305F065FD02B05DF8A8
:1020840004EB03B0704700BF737B0000CA0605D49D
:102094008B064CBF02490349FFF7E6BF704700BFF8
:1020A40000920000FF9100002DE9F04F89B09B469B
:1020B400DDE915769DF8483004460493DDE9139371
:1020C4000593049B0D460692002B00F0878006F0D2
:1020D4000803079305F0F8FC06F0020A02460028FC
:1020E4004BD020468549FFF7BFFF8046BAF1000F69
:1020F40008D016F0440F42D12A4620468049FFF703
:10210400B3FF804406F001035BB17E4B049A204682
:1021140053F822207C4B7D49002A08BF1A46FFF75A
:10212400A3FF06F00803002B55D0794B049A2046F0
:1021340053F822207749FFF797FF0546069B2BB1FA
:102144001A4620467449FFF78FFF0544BBF1000F80
:1021540005D05A4620467149FFF786FF0544454499
:10216400B9F1000F49D1002F4FD1F30700F1C0801E
:1021740031462046FFF78AFFB4E08046B6E7684B55
:1021840018680028BDD0674B4FF47A7E1B684FF463
:102194006162B5FBF3F5B5FBF0F300FB13550EFBE1
:1021A40005F5B3FBF2FAB5FBF0FC3C2102FB1A3255
:1021B40000FB1C55B2FBF1F30EFB05F5B5FBF0F586
:1021C40001FB132220460092CDE901C5524656492F
:1021D400FFF74AFF95E706F00805AFE7BBF1010FEB
:1021E40006D1B9F1000F64D1002F7BD000250CE09B
:1021F400B9F1000FF8D04D485CE04D484B462246FB
:102204004C4905F05DF8002F68D0DFF82C91DFF819
:102214002CA1102F31462046B8464FF0000B28BFA2
:102224004FF01008FFF732FF5D4545DC059B514632
:1022340020461A78FFF718FF4FF0010B1BF0070F29
:1022440003D149462046FFF70FFFD8453BD9059BEC
:102254005146204613F80B20FFF706FF0BF1010B44
:10226400BBF1100FEAD14FF0000B20463449FFF7C1
:10227400FBFE5A46059B20469A5CA2F120015F2989
:1022840028BF2E222F49FFF7EFFE0BF1010BBBF104
:10229400100F1DD01BF0070F03D149462046FFF74E
:1022A400E3FED8455A46E5D849462046FFF7DCFE0A
:1022B400EBE71F48049DA1E749462046FFF7D4FEFB
:1022C4000BF1010BB0E720461F49FFF7CDFEC5E730
:1022D400059BB7EB0807434405939AD1049B002B55
:1022E4007FF443AF204609B0BDE8F04F05F032BC9F
:1022F4002046054A0549FFF7B7FE39E70792000073
:102304000B9200002C8D00000292000050980000F7
:10231400408D000030920000369200003A92000096
:10232400380900203409002014920000A17B000029
:10233400737B00004B7B0000479200003F9200003B
:10234400499200004B920000459200002DE9F041B3
:102354000F884B6805460C4690468E6886B0C7F3D6
:1023640082175BB1134A9B1A43F3CF0100291FDB89
:102374002078C0F3C200FFF7B7FD0346214651F8A9
:10238400102B6088C2F34922002A01EB020408BF23
:102394000021C0F3CB00CDE90308CDE901140022EC
:1023A400314628460097FFF77FFE06B0BDE8F0816E
:1023B4000023E3E7448C000042F20F7373B58B42B1
:1023C40028BF0B4605680446052168460D4A04F0FB
:1023D400EFFF0646636828460B225B680A4905F04E
:1023E400A5FB63683246694628465B6805F09EFB98
:1023F40063681B2228465B68044905F097FB02B01A
:1024040070BD00BF189A00006A9200004E9200004E
:1024140000210123064A904206D8064A01B9012345
:102424001360054B18607047012140085B00F2E718
:1024340040420F003409002038090020014B0020DD
:1024440019607047500900200122024B02481A709B
:1024540005F080BBEC110020708D00000148FFF7EF
:10246400ABBF00BF708D000010B5064B0C4618685A
:10247400FFF784FB2146BDE8104003460F220248C3
:10248400184700BF50090020708D0000F8B50D46B4
:102494000446064F4618B44201D12846F8BD14F844
:1024A400011BBB6801485B689847F4E7C8890000D2
:1024B4002DE9F84305464FF02003EFF3118683F32B
:1024C4001288BFF36F8F4FF00C090D4B0D4F1C6832
:1024D400DFF834802CB986F31188BFF36F8FBDE821
:1024E400F883D4E90123002D18BF13462BB198F8C3
:1024F400142009FB02F2B85C98472468EAE700BF9D
:102504006C09002060090020B80F0020012270B57A
:10251400164B1C7D04F01F039A40D043144B6109F1
:1025240003EB8103D3E8EF1F01EA0005C3E8E65F8C
:10253400002EF7D10A4213D00E4B0F4D8BB10C2352
:102544006343EA185178E85C05F089FA0020FFF744
:10255400AFFF0C235C4300232A192B51C2E901333A
:1025640070BD83F31188BFF36F8FEFE7B80F0020BE
:1025740074090020637A0000600900202DE9F0410D
:10258400324B07461D7D4FF02003EFF3118883F390
:102594001288BFF36F8F0C246C432D4B2D4E195DA5
:1025A4001A19002947D007CA06EB040C8CE8070067
:1025B40000221A5588F31188BFF36F8F0C236B43E5
:1025C400F05CF218A8B37B1C10D04FF4004000213B
:1025D400D2F808C0204C0023ECFB00411F4A2046DF
:1025E400FDF7B6FD0121381A06F0AEF803F0FEFF40
:1025F4000120FFF75DFF1A4B6A0903EB82030122F6
:1026040005F01F018A40D3E8EF0F1043C3E8E10F40
:102614000029F8D1134B3BB10C2303FB05F033180D
:102624005978305CFFF7ECF9FFF770FF03F0F2FF25
:102634000120BDE8F0810146284600F015F8002885
:10264400B8D007C8344484E80700B3E7B80F0020C3
:1026540054090020600900203F420F0040420F004F
:1026640074090020051A00002DE9F04F85B00E46CC
:1026740003A900F043F84FF4004704464FF0000B61
:102684001B4B039DD3F800A0431E1BB203EB430373
:10269400DFF8608005EB830524B9A146484605B000
:1026A400BDE8F08FC446594668680023E0FB07C1C3
:1026B400114A6046FDF74CFDC44659460190A8688E
:1026C4000023E0FB07C10C4A6046FDF741FDBAF167
:1026D400FF3FA94601D0824505D9731CDED0019B7A
:1026E4001844B042DAD9013CA4B20C3DD4E700BF8F
:1026F400300000203F420F0040420F0008B9024B57
:102704000B600020704700BF808D0000014804F07A
:1027140095BC00BF808D000038B5044618B90F4B36
:102724000F485B6898476168B1F5683F0FD0B1F511
:10273400680F0CD00B4DA94209D011F4686107D081
:102744002146094805F082FE00232360656038BDF8
:102754001422206805F08FFAF8E700BF80010020FA
:10276400B39200002C5F5CA9780E002008B560B31A
:102774004368B3F5683F0ED0B3F5680F18D0144A18
:10278400934220D000684FF0FF324FF0FF3303F044
:102794001FFC58B115E001220368D3E8EF1F00299C
:1027A40003D1C3E8E02F0028F7D10AD1002008BDE7
:1027B4000368084A1B7803F5807352F82330002B12
:1027C400F4D00548F3E70548F1E76FF4E040EEE79D
:1027D4002C5F5CA900000350E98FFFFFEA8FFFFF25
:1027E40008B520B34368B3F5683F09D0B3F5680F63
:1027F40013D0114A93421DD0006803F063FC14E027
:1028040000220368D3E8EF1F012903D1C3E8E02FB6
:102814000028F7D109D0094808BD00210368084AF7
:102824001B7803F5807342F823100020F4E76FF45B
:10283400E040F1E70348EFE72C5F5CA9E98FFFFF75
:1028440000000350EA8FFFFF10B5044618B91D4B72
:102854001D485B6898476368B3F5683F2FD0B3F5AC
:10286400680F2CD0194A934219D1236803BB4FF047
:10287400FF324FF0FF332146154803F0A7FA08B999
:1028840023681BB90F4B13485B6898471422002137
:10289400206805F0F0F94FF46863636008E0B3F56D
:1028A400683F0DD83A2B03D040F6BA629342DED18A
:1028B400206805F010FE636843F03A03636010BDBE
:1028C400054AF3E780010020B39200002C5F5CA965
:1028D400780E0020D99200003A00003A08B5064963
:1028E40040231422054805F0A3FDBDE8084004492F
:1028F400044804F015BC00BF78090020780E0020BD
:10290400888D00009C8D0000014910220A607047E8
:1029140010ED00E072B6404080F31188BFF36F8F72
:10292400BFF34F8F30BF62B6BFF36F8F704700BFE6
:1029340072B6494081F3118820BF80F3118862B6D2
:10294400704700BF2DE9F04781460C4600AF0029CF
:102954004CD0D1E900126E468AB0A3686D464FF0A0
:10296400050AA8462548C5E90723C5E9050148F82D
:1029740010AF002342464FF421512148FFF7D6FA05
:10298400D4E90312B5466369AD461E48C5E9072379
:10299400C5E90501C5F810A0002342464FF42151B2
:1029A4001748FFF7C3FAB54688B0E3696D464FF0A0
:1029B400030AA846144AC5E9052348F810AF0023C2
:1029C40042464FF4C2510E48FFF7B0FAB546A36928
:1029D400AD460E4AC5F810A0C5E9052300234246BA
:1029E4004FF4C2510648FFF7A1FAB54621464846BE
:1029F40003F070F8BD46BDE8F08700BF0693000001
:102A0400AC8C0000359300006493000073930000C5
:102A140040B2002807DB01234109034A00F01F00EC
:102A2400834042F82130704700E100E040B20028C2
:102A34000CDB01220649430900F01F0082402033C9
:102A440041F82320BFF34F8FBFF36F8F704700BF50
:102A540000E100E0054B420953F82220012300F075
:102A64001F0003FA00F01040704700BF00E100E0CF
:102A740040B2002801F10101ACBF00F16040064BF7
:102A84004FEA4111C9B2ABBF00F5614000F00F003D
:102A940080F800131954704714ED00E030BFFFF7BD
:102AA400FDBF00BF0B4A08B50B4B22F07F029A60B2
:102AB400BFF34F8FBFF36F8FD3F8882022F47002D7
:102AC400C3F8882003F0C0F803F0E0FE00F09AFB9E
:102AD40003F0FAF80000000000ED00E0094A0A499A
:102AE400936809689867D96708494B6843F080532D
:102AF4004B60002383F31188BFF36F8F9368D86F03
:102B0400704700BFB80F0020248F000000ED00E0E4
:102B140013498A684FF030001044EFF3098C80E8C1
:102B2400F01F202080F31288BFF36F8F0D4F4FF0FA
:102B34000066CA698A603E60906F0023936780F3E1
:102B4400118802F1300090E8F01F8CF3098802F13B
:102B5400000004B505F044F8BDE8044070470000E7
:102B6400B80F002004ED00E01EF0040F0CBFEFF3DB
:102B74000880EFF30980816911F8021C0229FFD053
:102B840001B505F01EF801BD42F8203C009B0B493D
:102B940042F81C3C019B21F0010142F8183C029BC5
:102BA40042F8081C42F8143C4FF0807342F8043C8D
:102BB4000023203A02658367704700BFCF7300008B
:102BC400084B9860836E83F30B88104681F3098861
:102BD400002163B681F31188BFF36F8F00220023B5
:102BE40004F0F3FBB80F002001B572B60B4A9069EC
:102BF40000281EBF0021916105F05EFC62B6EFF370
:102C04000580A0F110004FEAC0000549014409C93C
:102C14009847BDE80140034908470000B80F002069
:102C2400F88900002D2C0000044B9968D86988426B
:102C340003D003494FF080520A607047B80F002058
:102C440004ED00E02DE9F04186B006460D4600AFE4
:102C54000224414B4FF482517B6140483C6107F1AF
:102C6400100204F0C1FF3E4B9B6ADB0609D53D4BC5
:102C74004FF48251C7E90443384807F1100204F0C5
:102C8400B3FF374B9B6A18070AD5374B4FF4825171
:102C94007B61022331483B6107F1100204F0A4FF79
:102CA4002F4CA36A990722D5E846304B07F110024E
:102CB4007B6102234FF482513B61284804F094FF66
:102CC400636BA26A120612D588B06A462849234863
:102CD400C2E9051303234FF4C25142F8103F04F034
:102CE40083FFC5461EB1A36A23F08003A3621C4B75
:102CF4009B6ADC070AD51F4B4FF482517B61022388
:102D040016483B6107F1100204F06EFF144B9B6AF6
:102D140098060AD5184B4FF482517B6102230F4861
:102D24003B6107F1100204F05FFF00200C4B1837E1
:102D34009A6AD10658BF9A6A9A6A920642BF5A6A38
:102D440022F400525A629A6A42F0FF029A62287090
:102D5400BD46BDE8F08100BFA1930000AC8C00002B
:102D640000ED00E0B7930000EA930000FD9300003B
:102D7400159400002B9400004A9400002DE9F041C2
:102D840086B006460D4600AF02243E4B4FF48251F6
:102D94007B613D483C6107F1100204F025FF3B4B89
:102DA4009B6AD90409D53A4B4FF48251C7E90443CD
:102DB400354807F1100204F017FF344B9B6A1A05DB
:102DC4000AD5344B4FF482517B6102232E483B6178
:102DD40007F1100204F008FF2C4CA36A9B0522D5CE
:102DE400E8462D4B28487B61022307F110023B6122
:102DF4004FF4825104F0F8FEA36BA26A100412D5BA
:102E040088B06A4625492048C2E9051303234FF4D4
:102E1400C25142F8103F04F0E7FEC5461EB1A36A52
:102E240023F40043A362194B9B6A59050AD51C4B32
:102E34004FF482517B61022313483B6107F1100276
:102E440004F0D2FE114B9A6AD20515D5154B7B615D
:102E540002234FF482510C483B6107F1100204F045
:102E6400C3FE0020094A1837936A43F47F439362F0
:102E74002870BD46BDE8F0819B6A9B04F1D50A4BDE
:102E8400E5E700BF79940000AC8C000000ED00E0A1
:102E94008F940000EA930000A0940000B99400000D
:102EA400CE940000E99400004A94000010B586B066
:102EB40002243A4B4FF48251394804AA05930494EE
:102EC40004F092FE374B9B6A9B0108D5364B4FF4B6
:102ED4008251334804AACDE9044304F085FE314B02
:102EE4009B6ADC0109D5314B4FF4825105930223CF
:102EF4002B4804AA049304F077FE2A4B9C6A14F42A
:102F0400801409D002242A4B4FF48251244804AA85
:102F14000593049404F068FE224B9B6A180309D5B8
:102F2400244B4FF48251059302231D4804AA0493B1
:102F340004F05AFE1B4B9B6A590309D51E4B4FF4F0
:102F4400825105930223164804AA049304F04CFE0C
:102F5400144B9B6A9A0309D5184B4FF4825105937D
:102F640002230F4804AA049304F03EFE0D4B9B6A0F
:102F7400DB0309D5124B4FF4825105930223084811
:102F840004AA049304F030FE064A2046936A6FEACA
:102F940003436FEA1343936206B010BD019500002A
:102FA400AC8C000000ED00E0199500002C950000A9
:102FB40046950000709500008E950000B3950000C2
:102FC400CD9500002DE9F0438BB0764B0546D3F840
:102FD4000480002600AFC8F3080486F31188BFF309
:102FE4006F8F02F07F43B3F17F4F0ED102F00C03D9
:102FF400082B19D16C4B4FF48251FB6102236B48AF
:10300400BB6107F1180204F0EFFD002635460023EA
:10301400FB71E31E092B00F2A580DFE803F00A9898
:103024009B94A3A3A3A3A39E10074CBF0D46012604
:10303400EDE7E9464FF002085D4B07F11802FB612A
:103044004FF482515948C7F8188004F0CDFD00238D
:10305400544CFB71E36A9A070BD5564BC7E90683B8
:103064004FF48251514807F1180204F0BDFD0024C9
:1030740040E0E36A002B01DA4F4BEFE7E36A5B00C1
:10308400F5D54E4B07F11802C7E906834FF4825178
:10309400464804F0A9FD6369AA6943F48073636137
:1030A400BFF34F8FBFF36F8F636932F8022C23F4A1
:1030B40080736361BFF34F8FBFF36F8F4DF602735D
:1030C4009A4207D0A36ADBB283B30120F91DFFF74C
:1030D400B9FD3AE088B02B686A4639493348C2E9F9
:1030E400051303234FF4C25142F8103F04F07CFD52
:1030F400CD462C68FB79ABB92022294607F108009C
:1031040004F0AEFD7B6A002E47D0C3F3080222B957
:103114006FEA53236FEA43237B62204607F10801D9
:10312400FFF710FC2C37BD46BDE8F083A36A13F407
:103134007F4F04D00120F91DFFF720FE05E0A36AAC
:10314400B3F5803F93D3FFF7B1FE0446D2E70020E6
:10315400F91DBCE70020F91DEEE71A4BFB610223C1
:10316400BB617DE7184A18F4F87FE8468AB0174B2C
:1031740018BF13466A461649103CC2E905134FF4BA
:1031840000731384134BD4614FF41151074842F870
:10319400103F04F029FDC54669E723F4FF7323F0CB
:1031A4000103B9E700ED00E026960000AC8C0000B6
:1031B40051960000689600008996000097960000DA
:1031C400B6960000D29600000D960000F895000017
:1031D400F696000004000001044B5A6942F0100204
:1031E4005A615A6942F480625A61704700ED00E006
:1031F400EFF30880EFF3098101B57246FFF7E2FEB1
:1032040001BD00BF002320210348C2180133452B10
:1032140082F80013F9D1704700E100E0002080F348
:103224001488BFF36F8F002080F30A8880F30B8823
:10323400FEF7F4FB00200E490860BFF34F8F0D48E2
:1032440080F3088800F03EF8202080F311880A48B3
:103254004FF40061401880F30988EFF314800221D1
:10326400084380F31488BFF36F8FFFF71BFC000043
:1032740094ED00E04022002000150020BFF34F8FA2
:103284000549064BCA6802F4E0621343CB60BFF3FE
:103294004F8F00BFFDE700BF00ED00E00400FA051A
:1032A400002318460649D1F89020C2F3072293421E
:1032B40000DB7047C1F89830C1F8A0000133F6E78D
:1032C40000ED00E010B572B6002484F31388FFF714
:1032D400E7FF23464FF0FF300C4A03F1200101338E
:1032E400102B42F82100F8D100234FF0FF30074A99
:1032F40003F160010133102B42F82100F8D162B6CA
:10330400BFF34F8FBFF36F8F10BD00BF00E100E02C
:10331400084B9B6883420BD1EFF3058343B1064B03
:103324005A6842F080525A605A6A22F400425A6241
:1033340003F03ABAB80F002000ED00E01FB5094CC5
:10334400094A23460121094800F02AF9002303937E
:10335400074B0121E41A01A80193029400F02AF911
:1033640004B010BD0000072000000020AC8D000058
:103374009802002010B50C7A0B6804F01F0223F0A9
:103384001F031A43CB68640923F01F03054943EA6A
:10339400440343F00103C1F89800C1F89C20C1F82C
:1033A400A03010BD00ED00E080B500AF88B06A46E3
:1033B400074BC2E90530032342F8103F00234FF4C2
:1033C400C2510448FEF7B2FD6FF01500BD4680BD42
:1033D4000D9700009C8C00002DE9F04F1446064622
:1033E4004FF0000987B05F4D00AF79607B68994565
:1033F40035DAD6F80480B8F1000F54D0B8F11F0FB5
:103404001BD918F01F0F18D1D6F800B01BF01F0FEE
:1034140013D1584604F0EBFB824608EB0B0001384D
:1034240004F0E5FB82451FD06FF0150A6C4688B0A6
:103434006A464D49C2E9051A05E06C4688B06A46F9
:103444004A4BC2E90539032342F8103F00234FF4E5
:10345400C2514748FEF76AFDA5466FF015042046A1
:103464001C37BD46BDE8F08F1AF1160FDED0544567
:10347400DCDDC5F898A0D5F89C00C5F898A0D5F86F
:10348400A02020F01F0042F01F08D6E900211144BB
:10349400904201F1FF3B1ED1D84508D131465FFA75
:1034A4008AF004F0ADFB09F101090C369EE7C5F87A
:1034B40098A0D5F89C3021F01F0103F01F030B43A3
:1034C4003146C5F89C30E0B204F09AFB10F1160FB7
:1034D400C3D0441CE7E7013AD845E0B222F01F020A
:1034E400C5F898A008D1D5F8A030314603F01F03E1
:1034F4001343C5F8A030E7E7D5F8A01001F01F0189
:103504000A43C5F8A020314604F07AFB10F1160FE7
:10351400A3D0C5F898A0D5F89C203B7C08F1FF38CF
:1035240062F304033B74D5F8A0303A7C5B0863F380
:1035340047123A74D6E900321344BB6023F01F03E8
:10354400441C4344A3EB0B03E0B223F01F030728FE
:103554007B6102D9FFF728FFB8E707F10801FFF7FD
:1035640009FFB6E700ED00E056970000339700002E
:103574009C8C00000522044BC3F89420BFF34F8FAA
:10358400BFF36F8F704700BF00ED00E0BFF35F8FA4
:103594000022024BC3F89420704700BF00ED00E006
:1035A40010B5034C2278FFF717FF207010BD00BF41
:1035B400ED1100202DE9F74F294D8A4606464FF0BC
:1035C4000008AB46274FD0451BDAD6F80490B9F172
:1035D400000F3FD031680846019104F008FB0199BF
:1035E400044609EB0100013804F001FB84424FF06A
:1035F40014021D4B08D002FB08F36FF015024BF8C0
:10360400032003B0BDE8F08F14F1160F2C60F8D03E
:103614001978A142F5DD02FB08B0C7F89840C7F855
:103624009840D7F89C4000F10801007B64F3040043
:103634000871D7F8A0000C79400860F347140C71A6
:10364400D7F89C1021F01F016960D7F8A01021F071
:103654001F01296108F1010814350C36B3E700BFD6
:10366400940E002000ED00E0ED11002038B50E4D61
:103674002C68082C15D80020FFF788FF0B4B0C4A48
:10368400C3F8C020844205D10A4B00201C70FFF708
:1036940071FF38BD696801EB0011FFF76BFE013063
:1036A400F0E74FF0FF30F4E7B88D000000ED00E0E4
:1036B400AAFF4400ED110020014B1860704700BFC1
:1036C400540000201022044B0020C3F840244FF083
:1036D4005023C3F81406704700300050084B70B5EF
:1036E400C31A0D4607499B10044659434022064815
:1036F40004F0E9FA2B4601462046BDE8704018471D
:10370400BC0E0020B76DDBB680890000402373B582
:103714000B4C0093041B0B460D460A49A41061434D
:103724000646094A094804F0FAFA011E05DA304649
:103734002B4602B0BDE87040184702B070BD00BF10
:10374400BC0E0020B76DDBB68D7D000080890000C3
:103754002DE9F8430022012106460520FFF788F9E8
:10376400114801F05DFB114B984219D104F053FD4F
:1037740000244FF01C090C27DFF8348035694146DA
:1037840009FB045003F07BFE002807DB012307FB41
:1037940004551C44042CAB67F0D10020BDE8F88329
:1037A4006FF00400FAE700BFED3700000000AD0B36
:1037B400E08D000001460C23002270B54B430848FD
:1037C400C4187833D4E91C561844226704F068FA04
:1037D4002DB132462B46BDE870400248184770BDF3
:1037E400BC0E002080890000052811D8DFE800F015
:1037F400030E10100C0A074B986F10F0070007D146
:10380400FFF7D8BF0220FBE70320F9E70120F7E721
:10381400704700BFBC0E002008B54FF02003EFF343
:10382400118183F31288BFF36F8F124A136843F038
:1038340002001060DA0708D481F31188BFF36F8F98
:10384400BDE80840012004F0F8BC4FF05023D3F841
:103854000C24D3F80C34D307EED5074804F020FA2F
:1038640081F31188BFF36F8FBDE808400020FFF794
:10387400A1BF00BF5C0F0020340F00207FB50022E1
:103884000123CDE9022304ABCDE90433094A6B4695
:10389400CDF800D0CDF804D004F06FFA002805DB91
:1038A4004FF480420023684602F06EFC07B05DF8D6
:1038B40004FB00BFC37D000010B54FF02003EFF3FD
:1038C400118483F31288BFF36F8F074A136823F0C0
:1038D4000201DB07116002D4012004F00DFD84F322
:1038E4001188BFF36F8F10BD5C0F00202DE9F041EC
:1038F400012207463749D1E8EF3FC1E8E02F00280D
:10390400F9D133B9344935484B60CB608A6003F050
:10391400C9FD7B1E012B2BD8012F07D14FF050235B
:10392400D3F81C3403F00303022B21D004F0B7FDB9
:103934000546F8B92A4B1B78E3B14FF05023022215
:103944000646C3F808234FF05024DFF89880D4F8D3
:103954001834D4F81824D20316D503F00303022B29
:1039640001D0012F10D175B386F31188BFF36F8F87
:10397400BDE8F0814FF02003EFF3118683F3128842
:10398400BFF36F8F0125DEE7C5B13046FEF7D0FFE8
:10399400D4F81835DBB2012BD9D1D4F80421002A8C
:1039A400D5D00022C4F80421D4F804210222C4F89A
:1039B40018252022C8F88021A360C8E7002121200F
:1039C40002F0D2FEE4E74FF050230222C3F80423AE
:1039D400CEE700BFB80E0020A80E0020D80E0020AD
:1039E400F811002000E100E008B5074804F0FBFCF2
:1039F40038B10648FFF760FE0448FDF7B1FA00202D
:103A040008BD6FF01200FBE7C8890000153A0000FA
:103A14000A2838B50446074D04D1AB680D21284661
:103A24005B689847AB6803485B68E1B298472046F7
:103A340038BD00BFC889000030B5406801F01F04DC
:103A4400057BB2F5001F85B044EA451405D1204634
:103A540001F096FC002005B030BD0025B2F5800FC2
:103A6400CDE9025514D1B3F1007F0CBF0423052323
:103A74008DF8083000232046194602AA01F0BEFA48
:103A84001F4B984238D10121204601F033FCE1E775
:103A9400B3F1C06F25D0B3F1007F14BF012302231B
:103AA4008DF808308368CB40D907E3D4B2F1A07F06
:103AB400E0D1144A14486109012908BF024604F000
:103AC4001F03803352F82330DB07D3D40DF10705ED
:103AD4002946204601F0BAFB0C4B984203D00395CB
:103AE400C8E70323DCE7284601F0FEFB044B9842B9
:103AF400F5D06FF00B00AEE76FF01500ABE700BF39
:103B04000000AD0B00258450002884500400AD0B48
:103B140010B501F0D9FB044668B901F0ADFB084BC0
:103B240098420AD12146074801F08AFB2246052122
:103B34000D20FEF79DFF002010BD6FF00400FBE791
:103B44000000AD0B4D3B00004209034670B502D0A6
:103B5400012A17D070BD0D4E326951680029F9D081
:103B6400012503F01F030C689D400029F2D08A68E8
:103B74002A4002D030464B6898472CB1236821462E
:103B84001C46F2E7024EE7E72346F8E7B089000057
:103B9400988900002DE9FF41476801F01F053B7B30
:103BA400144645EA43150E4628460DF1030101F07B
:103BB4004DFB14F4403F80460BD1284601F008FC2D
:103BC4003C4B984503D19DF8030001F087FB00208E
:103BD4000CE000232846194602AACDE9023301F07D
:103BE4000DFA344B984204D06FF0150004B0BDE8D0
:103BF400F081804503D19DF8030001F06FFBA3031E
:103C040049D540F206332340B3F5837F19D00CD84D
:103C1400062B17D004D8ABB1022BE5D1042311E055
:103C2400B3F5807FE0D101230CE040F202229342FD
:103C340026D0B3F5407F25D0B3F5007FD4D102233D
:103C440000E007238DF8043084F48033C3F3004389
:103C5400E0068DF805304CBF0323C4F34013210361
:103C64008DF8063010D501237A68B34093600022A2
:103C7400284601A901F070FA0E4B9842A7D0B3E789
:103C84000523DFE70323DDE7620341BF01237A68ED
:103C9400B340D360EBE7E3064FF000034CBF0324CB
:103CA400C4F340141A46284601A98DF8044001F0D3
:103CB400A5F9E1E70000AD0B2DE9F04383B04468BA
:103CC40000AFA66A0569002130463A1D04F0BFF929
:103CD400002832DB7B6832681979186800F0BCFE72
:103CE40000282ADB0126636A9847AC68D5E90232CA
:103CF40003EBC2039C4204D3284604F001F90020DC
:103D04001BE0206804F06FFBD8B923681968237995
:103D14006C468AB06A46D3614FF400731A48138420
:103D24001A4BC2E905011A484FF4115142F8103FE9
:103D340004F0ADF86FF01200A5460C37BD46BDE89F
:103D4400F08320682179E388D0F810E0DA0754BFC3
:103D540043F4B01383F4D013DEF800C023F48012CC
:103D640006FA01F8DB074CBF4CEA08032CEA080307
:103D7400D0F80890CEF80030D9F8003098470028E1
:103D8400DBDB0834B2E700BFF39700000400000156
:103D9400C48C0000F0B504690646676E4568E36E9E
:103DA40085B0AFB9002B3BD11D46002220461146F9
:103DB40004F084F894F84C30002B42D1256404F1CB
:103DC400280002F0BBF9002384F8783005B0F0BD78
:103DD400216E0BBB39BB4FF6FF72BA4228BF3A467D
:103DE400236E626700911BB1636E002B18BF1346EC
:103DF4000193A36E02931BB1E36E002B18BF13460D
:103E0400002269462846039301F0CAFD144B9842E8
:103E1400DCD06FF00405C8E79F4228BF1F46D9E7EE
:103E24001F46216ED7E701F06043B3F1005FD2D0A3
:103E3400082F28BF0827E06F3A4603F011FFE16F0F
:103E4400C9E7636C1BB129463046A26C98472368C6
:103E54009B8813F40053B6D1636004F11000B0E7FB
:103E64000000AD0B2DE9F04F8BB09A468B8800AF64
:103E74009B0480460E460469BA6038D44FF0FF3381
:103E84004FF0FF3204F1100002F07EF997F8503041
:103E9400666084F84C307B6D6364BB6DA364D8F8B2
:103EA4000430D8F810909D68FB6099F879307B60F5
:103EB40023B1D9F800309E4200F0E180B6F804C086
:103EC4001CF4006F1AD0AC4B6FF085057B620223A3
:103ED4004FF48251A9483B6207F1200203F0D7FF57
:103EE4000023636004F1100002F028F93EE1A369A5
:103EF400002BC3D163689942C0D1D0E71CF0010FF5
:103F040016D06D4688B0D8F800306A469C499B4864
:103F1400C2E905134FF4007393839A4B4FF4E251B3
:103F240042F8103F03F0B3FFAD466FF01505D7E735
:103F34001CF0080F0BD0944B7B6202234FF4825188
:103F44008E483B6207F1200203F0A1FFEDE7CCF3BA
:103F54004513082B01D08D4BEEE733683B603A687C
:103F64008B4B9A4201D88B4BE6E78B4B9D4207D98A
:103F74004FF05022D2F8582512F0030F18BF1D46F7
:103F8400FB6807F1100E03F10C0BBBE80F00AEE861
:103F94000F003B689BE80300AB4228BF2B461D463D
:103FA4007E4B8EE803009D424BD97D4B9D424BD9FD
:103FB4007C4B9D424BD97C4B9D424BD97B4B9D42C4
:103FC4004BD97B4B9D424BD3734B9D424BD3794B87
:103FD4009D422CBF4FF0A0554FF020651CF0020FFE
:103FE400BD610CF0040341D0002B14BF0323022352
:103FF4003B777B68CCF3001C87F81DC02BB1F868B5
:1040040001F07CFC002389F879304B466A4AF86851
:1040140007F1100101F054FB684B98422AD06D4619
:1040240088B06A46664B4FF4C251C2E90530032397
:10403400524842F8103F03F02AFFAD466FF00405E2
:104044004EE74FF00075C9E74FF08065C6E74FF0C3
:104054000065C3E74FF08055C0E74FF00055BDE75A
:104064004FF08045BAE74FF00045B7E7003B18BF73
:104074000123BDE70123C9F8006089F879300123E1
:1040840084F87830BB68002B57D12365002363651F
:1040940004F1640204F1540104F1500003F0E4FE5D
:1040A4002066BAF1000F50D1C4F858A00023E3658C
:1040B40004F16C0204F15C0104F1580003F0D4FE35
:1040C400002501212A46A0662564204603F0F6FE59
:1040D4004046FFF75FFE94F84C10002946D1E56E88
:1040E400636E26469D4238BF1D464FF4FA535D4326
:1040F40056F8283B4FF4004C1B6840F2E730B5FB00
:10410400F3F5C8354FF47A720023E5FB0C01FCF794
:104114001FF802460B46304602F036F8E8B1294B48
:104124004FF482517B62022314483B6207F1200260
:1041340003F0ADFE6FF07305D2E6BB681B68236520
:10414400002BA3D0BB685B68A1E7DAF80030A36555
:10415400002BABD0DAF80430A9E794F84C30256C86
:10416400002B3FF4BDAE002DFFF6BAAE28462C3727
:10417400BD46BDE8F08F00BF17980000C48C000056
:104184003198000003000001539800007298000069
:1041940047E80100A19800000024F4008FD0030038
:1041A4001FA107003F420F007F841E00FF083D004F
:1041B40000127A000048E801CD4100000000AD0B78
:1041C400D2980000F998000010B503780C4686B028
:1041D400002B54D14B6E4A6F5BB19A421ED9294BC6
:1041E4004FF4825105930223274804AA049303F051
:1041F4004EFEE36E626F5BB19A4227D9214B4FF4B6
:10420400825105930223204804AA049303F03FFE3D
:10421400206F06B0BDE81040FFF7BCBD9B1A4B668B
:1042240073B90B6D01F1640208330B654B6D04F136
:104234005000013B4B65543103F016FE2066D8E76D
:104244000B6E002BD5D013440B66D2E79B1AE366A2
:104254007BB9A36D04F16C020833A365E36D04F12B
:104264005C01013BE36504F1580003F0FDFDA06629
:10427400CEE7A36E002BCBD01344A366C8E706B0E9
:1042840010BD00BF1F990000C48C0000F0B54B792D
:10429400012B29D0032B24D110278B79032B20D178
:1042A400CE790EB1012E1CD10A79012A1ED0022A20
:1042B40020D0B2B914460B684568B3F5164FD5F84B
:1042C40000C06ED033D8B3F5165F6DD01CD8B3F5EB
:1042D400966F6BD010D8B3F5967F6AD0B3F5167F7E
:1042E4006AD06FF085005BE00027D6E74FF4807456
:1042F4000E22E0E70024FBE7B3F5166F5FD0B3F5B9
:10430400965FEED1384B3CE0B3F5E14F5AD007D875
:10431400B3F5615F58D0B3F5964FE2D1334B30E03B
:1043240047F61225AB42DCD14FF4000329E0B3F584
:10433400613F4BD013D8B3F5963F4AD009D84DF618
:10434400C025AB4247D0B3F5614FCAD14FF46B03DC
:1043540017E0B3F5E13FC4D14FF0EB7311E0B3F5CF
:10436400612F3BD008D8224DAB423AD0B3F5E12FB0
:10437400B7D14FF0E86304E01E4DAB42B1D14FF02A
:1043840080530569CCF8243543683A431B683443A9
:104394002243C3F86C252B1D03C983E803000020C6
:1043A400F0BD4FF41D03ECE7134BEAE74FF49E23F3
:1043B400E7E74FF4A033E4E74FF41C33E1E74FF4AD
:1043C4001D23DEE70D4BDCE70D4BDAE74FF06C7392
:1043D400D7E70C4BD5E74FF46503D2E74FF0706392
:1043E400CFE74FF08063CCE700B0130000A04E008D
:1043F40090D0030040420F000050270000C0750019
:1044040000F03A0000903A012DE9F043804687B06D
:10441400002201210820FEF72BFB0820FEF7F8FA02
:104424000021D8F80470D8F810603C686A46C4F8D3
:104434000015C6F80080D7F80C90484603F007FE34
:10444400051E25DB009BD9F800201979186800F0B7
:1044540003FB051E1CDB4046311DFFF717FF054615
:10446400B0B97B68990724D506F1180000F040FD27
:10447400244B984210D0244B0593022304932B46DB
:104484006FF004054FF48251204804AAFDF74EFD55
:10449400284607B0BDE8F083337E43F00043C4F8F8
:1044A400A031C4F88C300123327E9340184AC2F8FC
:1044B40004350823C4F800353B7A53B9C4F81031E5
:1044C400D4F810317369C4F834350123C4F838358D
:1044D40023607B689A075CBF4FF48073C4F804338D
:1044E4007B68DB0644BF4FF48003C4F804333369AC
:1044F400C4F844350023C4F848350123A360E360BD
:10450400C6E700BF0000AD0B54990000CC8C00003E
:1045140000700150F8B504460D46076903F0BFFF6B
:10452400B0B92E4B1B789BB16426606803F041FD43
:1045340000BB012003F0AAFD013EF6D10021212099
:1045440002F012F9F0E786F31188BFF36F8FF5E7F5
:104554004FF02003EFF3118683F31288BFF36F8FBC
:104564006068314603F025FD90B986F31188BFF3E6
:104574006F8FEDE74FF02003EFF3118683F312887A
:10458400BFF36F8F6068314603F013FD0028DAD063
:104594003B691D70626838691368C3F844050120DB
:1045A400C3F848050020C3F82001D3F82051C3F80C
:1045B40058015268D3F85801D20608D50820626819
:1045C4001268C2F800054FF48002C3F804230122E4
:1045D4009A6081F31188BFF36F8FF8BDF811002042
:1045E4000123834070B5DC430B4AD2E8EF1F01EA94
:1045F4000405C2E8E65F002EF7D14FF48032824012
:104604000648C0F80823BFF35F8FBFF36F8F0B42D8
:1046140014BF0120002070BD7C0F00200050015009
:10462400F8B51B49044622F07F450868C1E9002318
:10463400A5F50013101AB3F5400F0FD302F00CFACE
:10464400A30003F1502303F58033D3F840259542AA
:104654001DD14FF40002C3F8402512E00D4B1B6836
:104664001A0A1B065E190C4B42F10007C3E90067E6
:1046740002F0F2F9094A04F5A87352F823309D4276
:1046840005D14FF48033054AA340C2F84433F8BD42
:1046940068070020800F00207007002000500150A0
:1046A400D9B101230D4A8340D2E8EFCF4CEA030C81
:1046B400C2E8E1CF0029F7D14FF48033084A8340A0
:1046C400C2F80433074BD3E8AF3FC340DB0742BF14
:1046D4004FF40012044BC3F8002170477C0F0020F4
:1046E40000500150780F002000E100E00D4B1868E5
:1046F400010A0006BFF35F8F0B4BD3F8043518187B
:1047040041F10001B3F5801F0AD2084BD3E900231D
:10471400904271EB030303D210F1807041F1000168
:10472400704700BF800F0020005001507007002028
:104734002DE9F04F85B014461D460746FFF750FF9C
:104744000190FFF7D3FFA04271EB050380F0868050
:10475400494B201A65EB0101984271F1000180F088
:104764008880464B03EB0713D3E902239D4208BF1D
:1047740094425ED04FF4803324F07F4216464FF0CB
:10478400020B6FF001014FEA870907F1500809F1A4
:1047940050294FEA8808BB4009F580391FFA88F888
:1047A40008F150280293D9F84005354B08F58038B4
:1047B400D3F804A5A0EB0A0020F07F402AF07F4C38
:1047C4000128C9F840C507D10392132003F0DEFF86
:1047D4006FF001012A4B039AA1EB0A00304420F048
:1047E4007F40B0F5000F4FF00000C8F80000D8F883
:1047F4000000029888BF0AEB0B06C3F8440326F0B6
:104804007F40C9F84005D3F8040588BF0BF1010BBC
:10481400824506D0081A304420F07F40B0F5000FDE
:104824001AD8B61A26F07F46361945F100033446E5
:104834001D4612490E9801EB0712C2E902450024F5
:104844003B01C8500F9B536038460199FFF728FF7E
:10485400204605B0BDE8F08F3046A9E70123094A98
:10486400BB40D2E8EF0F1843C2E8E10F0029E0D0C3
:10487400F7E76FF01504E7E701000001580700208F
:1048840000500150780F002073B500244FF0FF3022
:104894004FF0FF31164D174BC5F80845C3E9020127
:1048A4004FF4803302264FF40012C5F80433124B40
:1048B4000121C5F804631520C3F880212246FEF7C0
:1048C400D7F81520FEF7A4F801230C4AAB602B603F
:1048D40013600B4B0B4A0093204600230194FFF70F
:1048E40027FF3046FFF702F8204602B070BD00BF34
:1048F400005001505807002000E100E07C0F002028
:1049040025460000FFFF7F002DE9F743314BD3F824
:10491400042392070BD5D3F8042142B10022C3F833
:1049240004212D4AD3F804311368013313604FF086
:104934002003EFF3118283F31288BFF36F8F254CAA
:10494400D4F80433DB0325D5244BD3E8EF1F21F03F
:104954000100C3E8E50F002DF7D111B9D4F84031B7
:10496400C3B10025C4F84051D4F8403182F3118812
:10497400BFF36F8FFFF7BAFE4FF02003EFF31182FE
:1049840083F31288BFF36F8F154BD3E90267B042EC
:10499400B94106D282F31188BFF36F8F03B0BDE82B
:1049A400F0834FF0FF38D3E900104FF0FF391D605A
:1049B400C3E902894FF48033C4F8483382F3118881
:1049C400BFF36F8F0029E9D0009032463B4628465A
:1049D4008847E3E700500150800F0020780F002043
:1049E40058070020431C13B520D0012820DDB0F562
:1049F400000F1FDA441EFFF779FE0F4BD3E90013B3
:104A0400421AB2F5000F28BF00240C480132224498
:104A1400824228BF024600205218094901900091A1
:104A240043F10003FFF784FE02B010BD0348E1E741
:104A34000024E0E7014CDEE768070020FFFF7F0069
:104A44002546000008B5FFF751FE024B1B68C01A4B
:104A540008BD00BF680700204FF0010C2DE9F047A6
:104A64005B4E5C4F00EB8101814202D10020BDE826
:104A7400F087046804F07F03C4F343257F2B4FEAD7
:104A8400144408BF4FF0FF33222C00F29D80DFE86E
:104A940004F0122328422B3E429B9B9B9B45729B16
:104AA4009B9B9B9B9B9B9B9B757D80839B9B9B86DE
:104AB4008C8F92959800C2F80C354FEA5318B8F1D0
:104AC400010F14BFB646BE4603F01F040CFA04F4EB
:104AD400CEF80840012402E0C2F814350024A646AA
:104AE40023E0C2F80835E8E70024C2F808354FEAA5
:104AF4005319B9F1010F14BFB046B84603F01F0EA5
:104B04000CFA0EFEC8F80CE04FF0010E0DE0C2F8EE
:104B14000C350124EBE7C2F81035DFE7C2F808359D
:104B2400002DDBD100240625A64650F804AB03F083
:104B34001F090AF40058B8F1000F4FEA53131CBFC1
:104B440001244FF0000E012B0CBFB846B04608EB11
:104B54008908D8F80032CAF3C11A03F0E0492B02DD
:104B640043EA8A0343EA0E0343EA440343EA09039C
:104B7400C8F8003278E7C2F80C35D1E7C2F86035DE
:104B84000468C4F38034002CC3D096E7C2F86435BB
:104B9400F6E7C2F86835F3E7C2F86C35F0E7C2F817
:104BA400243501244FF0000EBFE7C2F8283584E70E
:104BB400C2F83035F5E7C2F83435F2E7C2F83835D3
:104BC400EFE7C2F83C35ECE76FF085004FE700BF34
:104BD40000258450002884507FB5FDF7C7F8074BA3
:104BE400059302230493064800234FF4825104AA38
:104BF400FDF79CF90020FEF741FB00BF8D990000F2
:104C0400748C00004FF47F03D3F83021D3F834318F
:104C1400072A05D1023B032B02D8024AD05C704715
:104C240000207047AE9900004FF05023D3F8582568
:104C3400034B02F00302D340024A1360704700BFE3
:104C44000020A107F400002008B5FFF7DBFF58B1EE
:104C54004F4BD3F8202A3AB90D21C3F8201A012169
:104C6400C3F81C19C3F81C290022D30003F57F03E1
:104C7400D3F80013013107D0D3F800130132D3F86D
:104C84000433202A0B60F0D1FFF7BCFF002876D153
:104C9400FFF7B8FF40B13F4B3F4AC3F830254FF010
:104CA40050230122C3F858254FF47F03D3F8302151
:104CB400D3F83431072A09D1023B032B06D8374AEB
:104CC400D35C1BB10022364BC3F84C25FFF79AFF87
:104CD40050B14FF05023D3F80024D10742BF002233
:104CE400C3F81421C3F818214FF47F03D3F83021FB
:104CF400D3F83431072A09D14FF05023D3F80024D4
:104D0400D20744BF6FF00102C3F80024FFF77AFF13
:104D140018B165221E4BC3F80C274FF47F03D3F858
:104D24003021D3F83431072A16D11D4BD3F820345F
:104D3400002B11DA4FF050230322C3F81825012267
:104D44009A60D3F80421002AFBD00022C3F804217E
:104D54000122DA60C3F81825124AD2F88C3043F4E1
:104D64004063C2F88C30104A104B1168C3F84415E4
:104D7400D269C3F84C25BDE80840FFF755BF292286
:104D8400034BC3F80C270322C3F83C2780E700BF7A
:104D940000400050009003504400EFBEAA99000068
:104DA4000020035000ED00E00080FF000060005090
:104DB40070B501250268B2FA82F3C3F11F03DBB2B6
:104DC40005FA03F422EA0404D0E8EF6F964204D112
:104DD400C0E8EC4FBCF1000FF6D1EBD101480B70E9
:104DE40070BD00BF0000AD0B10B50368CB40DB07FE
:104DF40010D401238B40026843EA0201D0E8EF4F4C
:104E0400944204D1C0E8EC1FBCF1000FF6D1F2D1FA
:104E1400014810BD0148FCE70000AD0B0400AD0BD8
:104E2400044B1A7922B9012218601A71024870479A
:104E340002487047840F00200000AD0B0C00AD0B3E
:104E44004FF0502310B5D3F8002152B10020C3F81D
:104E54000001D3F800210122C3F80823234B1B6867
:104E640098474FF05023D3F804218AB10022C3F8A5
:104E74000421D3F80421D3F81824D3F8181402F029
:104E84000302012A4FF0020128D1C3F818159A60D1
:104E94004FF05023D3F8202162B10022C3F820211F
:104EA400D3F820214FF48072C3F808230F4B042059
:104EB4001B6898474FF05023D3F82421AAB100224D
:104EC400C3F82421D3F824214FF40072C3F8082333
:104ED400064B0520BDE810401B681847C3F80813AB
:104EE400024B01201B689847D2E710BD840F0020B5
:104EF40001460148FFF75CBFF8000020036803F097
:104F04001F020260034A04485B09012B18BF1046C4
:104F1400704700BF0025845000288450034B08309C
:104F240033F81000C0F34010704700BFFC000020AD
:104F340070B50D4C00F1080334F813300546DA055A
:104F44000E4607D5C3F3432304EBC302526854F857
:104F540033309847A3682BB131462846E268BDE850
:104F64007040184770BD00BFFC00002010B4124A06
:104F7400083032F81030D9051BD5C3F3432123F48C
:104F8400F85322F81030002002F10E0434F8023FE6
:104F940013F4807F03D0C3F34323994209D0013033
:104FA4003028F3D1002342F83130044810BCFFF715
:104FB4001BBF10BC704700BFFC0000207001002024
:104FC40038B50246FFF7AAFF0B4C02F1080560B1A1
:104FD400002134F815305B0B9B0003F1A04303F56B
:104FE4005043C3F81015C3F810151046FFF7BEFF61
:104FF400002324F8153038BDFC0000202DE9FF41C2
:10500400044690461D4601B34F4E00F1080736F89A
:1050140017309B0702D5FFF781FF28BB00232046EA
:10502400CDE900338DF80E308DF80F300DF10F02FD
:105034000B460DF10E0103F061F936F8173023F039
:10504400020343F0010326F81730B8F1000F2DD006
:105054003D4E04F1080736F8171098F800008A0747
:10506400D8F8043002D5CBB1384821E021F0200132
:10507400C904C90C26F8171083B10328F4D8D8F84A
:10508400043093F800C06246920002F1A04202F597
:10509400504280B9C2F81005C2F8100536F817302E
:1050A40023F01C0343EA800326F817301DBB28486D
:1050B40004B0BDE8F081D2F8103541EA4C3123F058
:1050C4000303C2F81035D2F8103541F0200123F45F
:1050D4004F3323F44073C2F810352302D2F810E59D
:1050E40003F47C5343EA004343EA0E03C2F8103549
:1050F40026F81710D2E72046D5E90067FFF736FFF8
:10510400002ED4D0104DD5E90023964201D19F4200
:1051140018D010480DF10F01FFF74AFE0C4B9842CE
:10512400C6D19DF80F2005EBC20308345F6035F843
:10513400143045F8326043EA422343F4807325F87F
:105144001430B4E70022EEE7FC0000200400AD0BAD
:105154000000AD0B70010020F0B50446154685B083
:1051640019B3344E00F1080736F81720930703D417
:10517400FFF7D4FE00285AD112F01C0F02D04B784E
:10518400012B54D001238DF80F3000234A1CCDE9A4
:10519400001320468B1C0DF10F0103F0AFF836F815
:1051A400173043F0030326F8173015B9224805B029
:1051B400F0BD204E04F1080736F81700830736D5F2
:1051C40095F800C00023614620F02000890001F119
:1051D400A041C00401F55041C00CC1F8103526F8B7
:1051E4001700C1F810356A78002ADFD0D1F81035DD
:1051F400AD7823F4991323F4F853C1F81035D1F89A
:1052040010E5230203F47C53120402F4403243EA0F
:105214000E0313432A0502F4801240EA4C30134370
:1052240040F02000C1F8103526F81700BEE7034807
:10523400BDE700BFFC0000200000AD0B0400AD0B77
:10524400014BC3E902017047FC00002008B5024687
:10525400FFF764FE38B1054B083233F812300448C6
:105264005B0B0B7008BD0348FCE700BFFC0000208B
:105274000000AD0B0400AD0B38B50F4C94F878501A
:10528400BDB96022294604F1100002F0F4FC0D209F
:10529400FDF7BEFB094B0A48C3F87C51D3F87C21C7
:1052A4004FF00042C3F80423012384F87830636785
:1052B40038BD0448FCE700BFFC00002000D00050CB
:1052C4000000AD0B0500AD0B034B93F878000038DC
:1052D40018BF0120704700BFFC00002001460148B0
:1052E400FFF782BD6C01002001460148FFF760BD55
:1052F4006C01002037B50446FFF710FE1E4B04F185
:10530400080233F81230E8B113F002051AD15B0B2E
:105314009A0002F1A04000F5514002F1A04205605C
:1053240002F550420068D2F8100540F00100C2F8BE
:10533400100529B1012202FA03F3104AC2F804331A
:1053440003B030BDC3F38203042B11D0052B11D05D
:1053540001A80194FFF7D2FD019B0169D94001F036
:1053640001010231204603B0BDE8304003F00FB81C
:105374000321F7E70221F5E7FC00002000D00050EC
:1053840008B50246FFF7CAFDC0B10F4B02F1080190
:1053940033F81130990711D401225B0B9A400B4961
:1053A4009B0003F1A043C1F8082303F55043D3F84D
:1053B400102522F00302C3F8102508BD0021BDE822
:1053C4000840104602F0E3BFFC00002000D000506B
:1053D40013B5104B00F1080233F812300446DB0712
:1053E40016D5FFF7CDFF2046FFF7EAFD01A801948B
:1053F400FFF784FD019B00EB8300D0F8003203F03B
:10540400E04343F00203C0F80032034802B010BD89
:105414000248FBE7FC0000200000AD0B0400AD0BCC
:105424002DE9F04F002601223446634B634864495A
:1054340087B01D6835B1D0F8045315421EBF1C60F7
:105444001D68164304338B424FEA4202F1D1DFF860
:105454006CA1DAF87C31002B00F09180DFF86481D4
:10546400D8F820300493C8F82030574B1A6A0592B4
:105474001A624FF000090DF1100B4FEA4913009323
:1054840048E094FAA4F4B4FA84F4009B4F4A1C4410
:1054940004F1080332F813700123E00804F0070252
:1054A40003FA02F21BF80030039423EA02030BF818
:1054B400003003A8FFF722FD039BB908803350F89E
:1054C4002330C7F382054A072F46C3F301432BD584
:1054D40020463946DDB2FFF72BFD03A80394FFF7FE
:1054E4000DFD039B803350F82330C3F301439D42E9
:1054F40007D10021204602F04AFF2946204602F047
:1055040046FF03A80394FFF7F9FC0122039B02FA68
:1055140003F303625BF82940002CB2D1B9F1000F08
:105524001DD14FF00109A8E7022B0CD1032120461D
:1055340002F02DFF05F00503012BE2D13946204688
:10554400FFF7F6FCDDE702212046019302F01FFF7E
:10555400032DF3D0019B032BD3D1022DEDE7CAF821
:105564007C41DAF87C31D8F8203017490493C8F824
:1055740020300A6A134305920A627FF47AAF012449
:1055840016B907B0BDE8F08F96FAA6F3B3FA83F321
:1055940004FA03F29B0003F1A04303F55043D3F84C
:1055A4001005D3F81015C0F30520C1F3014126EA14
:1055B4000206FFF7BDFCE3E700D1005000D0005025
:1055C40020D100500025845000288450FC00002085
:1055D40070B5084C0E462379154643B92A20FDF7C9
:1055E40017FA0123044823712660A56070BD03489F
:1055F400FCE700BF8C0F00200000AD0B0C00AD0BCE
:10560400F8B5012600270B4B0B4DD3F80C4304B916
:10561400F8BD94FAA4F0B0FA80F006FA00F324EA94
:105624000304064B82009F502B68002BEFD0A9681F
:105634009847ECE700A002508C0F002000A1025014
:10564400054A064B00F01F014009012818BF134604
:1056540001228A40DA607047002584500028845073
:1056640070B50D4C0D4E00F01F054009012818BF00
:1056740034469DF8100004EB85040002D4F800526F
:1056840040EA8300084305F0E04540EA420028432D
:10569400C4F8000270BD00BF002884500025845067
:1056A400054A064B00F01F014009012818BF1346A4
:1056B40001228A409A607047002584500028845053
:1056C4002DE9F743874D07790C4605EB4711097F10
:1056D4008046002940F00081002F40F0FF80D0F880
:1056E4000090A068E67BB0F1206FE17C27D0B0F198
:1056F400A05F24D119B1207D002840F0D5807A48DC
:1057040081451CD12078FF2802D0082840F0E88089
:10571400E078FF2802D00B2840F0E280FF2E02D070
:105724000C2E40F0DD806078FF2802D0092840F07C
:10573400D780A078FF2802D00A2840F0D180C5E99C
:105744000023AB7F61F30003AB772279DBB262F312
:105754004103AB77627CDBB262F38203AB77E3781D
:10576400EB77E37CD8F80060002B42D1A368207863
:10577400B3F1A05F237B08BF0327012B00F29680BF
:10578400FFF75EFF0023009720781A460121FFF7F8
:1057940067FF6078FF2808D0FFF752FF01220097C7
:1057A400002311466078FFF75BFFA078FF2805D03F
:1057B400002200971146A37BFFF752FFE078FF28F1
:1057C4000BD02379002B74D0FFF73AFF0122009706
:1057D40000231146E078FFF743FFE07BFF2808D061
:1057E400FFF75EFF0122009700231146E07BFFF7DD
:1057F40037FF237D6BBB63782178FF2B18BF1A46D4
:10580400A37808BF4FF0FF32FF2B08BF4FF0FF33E0
:10581400C6F80815C6F80C25C6F8103598F80430F3
:10582400BBB9E378FF2B47D0627C002A44D02179AE
:10583400A27CC6F81435C6F86815C6F8642598F82D
:10584400043033B9E37BFF2B08BF4FF0FF33C6F8B6
:105854006C35237CC9F86035A368C9F82435637BAB
:10586400227B003B18BF0123022A2FD0032A30D009
:10587400012A01D143F00203C9F85435A379C9F8C8
:10588400C0350723C9F800352B682BB1D8F80000C0
:1058940040F30730FDF7BCF800236B77012313486E
:1058A4002B7703B0BDE8F083014648E7FFF7F8FE25
:1058B40068E7FFF7F5FE89E74FF0FF33C6F81435C4
:1058C4000023C6F86835C6F86435B8E743F0040326
:1058D400D2E743F00603CFE70548E2E70548E0E7EF
:1058E4000548DEE7980F002000A000500000AD0B33
:1058F4000500AD0B0300AD0B0400AD0B2DE9F34126
:105904000379254D5E0105EB4318AB59074604683E
:10591400CBB144F30730FDF789F8204BC4F80833C2
:1059240098F81D307BB101234FF064086361D4F80B
:1059340004312BB9012002F0A9FBB8F10108F6D11A
:105944000022AB195A770023C4F80035AB199B7FAA
:10595400DB071BD4D4F8080502F028FDD4F81005A1
:1059640002F024FDD4F80C0502F020FD3B791BB9AC
:10597400D4F86C0502F01AFDAB19D87FFF2805D0C6
:105984000023012219460093FFF76AFE00233544E1
:105994002B7702B0BDE8F081980F00205201080077
:1059A4002DE9F843384F0379154607EB431898F867
:1059B4001D2081460C465E01002A63D1BA592AB1E2
:1059C40015F0140F04BF012288F81D2007EB060C04
:1059D4000CF10C0C94E80F008CE80F0001214046F8
:1059E40002F0F0FC2168D9F8003021B101F06042E6
:1059F400B2F1005F06D1A26852B102F06042B2F186
:105A0400005F05D000233E4420487377BDE8F88347
:105A14006268C3F84415C3F84825D4E90212C3F8F0
:105A24003415C3F838250022C3F81821D3F81821F7
:105A340015F0010218BF0122C3F8502515F0020227
:105A440018BF0122C3F840252A0707D5BA5972B9ED
:105A54000021404602F0B6FC0D48D7E701221A6146
:105A6400BA5922B9D3F81821002AFBD0F0E715F06F
:105A7400040F4FF0400202D0C3F80823ECE7C3F848
:105A84000423E9E70348C1E7980F00200A00AD0B9F
:105A94000000AD0B0B00AD0B70B50C4BD3F8182107
:105AA40092B100250A4C29462046C3F81851D3F870
:105AB400183102F087FCD4E900316577257204F1CE
:105AC4000800BDE87040184770BD00BF00A000503A
:105AD400980F00202DE9F04786B005460E4600AF2A
